{
	"6.8.Exercise.sol": {
		"exerciseStructs": {
			"abi": [
				{
					"inputs": [],
					"name": "getComedyID",
					"outputs": [
						{
							"internalType": "uint256",
							"name": "",
							"type": "uint256"
						}
					],
					"stateMutability": "view",
					"type": "function"
				},
				{
					"inputs": [],
					"name": "getMovieID",
					"outputs": [
						{
							"internalType": "uint256",
							"name": "",
							"type": "uint256"
						}
					],
					"stateMutability": "view",
					"type": "function"
				},
				{
					"inputs": [],
					"name": "setMovie",
					"outputs": [],
					"stateMutability": "nonpayable",
					"type": "function"
				},
				{
					"inputs": [],
					"name": "setNewMovie",
					"outputs": [],
					"stateMutability": "nonpayable",
					"type": "function"
				}
			],
			"devdoc": {
				"kind": "dev",
				"methods": {},
				"version": 1
			},
			"evm": {
				"assembly": "    /* \"6.8.Exercise.sol\":385:962  contract exerciseStructs {... */\n  mstore(0x40, 0x80)\n  callvalue\n  dup1\n  iszero\n  tag_1\n  jumpi\n  revert(0x00, 0x00)\ntag_1:\n  pop\n  dataSize(sub_0)\n  dup1\n  dataOffset(sub_0)\n  0x00\n  codecopy\n  0x00\n  return\nstop\n\nsub_0: assembly {\n        /* \"6.8.Exercise.sol\":385:962  contract exerciseStructs {... */\n      mstore(0x40, 0x80)\n      callvalue\n      dup1\n      iszero\n      tag_1\n      jumpi\n      revert(0x00, 0x00)\n    tag_1:\n      pop\n      jumpi(tag_2, lt(calldatasize, 0x04))\n      shr(0xe0, calldataload(0x00))\n      dup1\n      0x05ee614b\n      eq\n      tag_3\n      jumpi\n      dup1\n      0xca6ed005\n      eq\n      tag_4\n      jumpi\n      dup1\n      0xde3bce87\n      eq\n      tag_5\n      jumpi\n      dup1\n      0xf6bb33b1\n      eq\n      tag_6\n      jumpi\n    tag_2:\n      revert(0x00, 0x00)\n        /* \"6.8.Exercise.sol\":775:862  function getMovieID() public view returns(uint){... */\n    tag_3:\n      tag_7\n      tag_8\n      jump\t// in\n    tag_7:\n      mload(0x40)\n      tag_9\n      swap2\n      swap1\n      tag_10\n      jump\t// in\n    tag_9:\n      mload(0x40)\n      dup1\n      swap2\n      sub\n      swap1\n      return\n        /* \"6.8.Exercise.sol\":870:959  function getComedyID() public view returns(uint){... */\n    tag_4:\n      tag_11\n      tag_12\n      jump\t// in\n    tag_11:\n      mload(0x40)\n      tag_13\n      swap2\n      swap1\n      tag_10\n      jump\t// in\n    tag_13:\n      mload(0x40)\n      dup1\n      swap2\n      sub\n      swap1\n      return\n        /* \"6.8.Exercise.sol\":664:763  function setNewMovie() public {... */\n    tag_5:\n      tag_14\n      tag_15\n      jump\t// in\n    tag_14:\n      stop\n        /* \"6.8.Exercise.sol\":562:652  function setMovie() public {... */\n    tag_6:\n      tag_16\n      tag_17\n      jump\t// in\n    tag_16:\n      stop\n        /* \"6.8.Exercise.sol\":775:862  function getMovieID() public view returns(uint){... */\n    tag_8:\n        /* \"6.8.Exercise.sol\":817:821  uint */\n      0x00\n        /* \"6.8.Exercise.sol\":840:845  movie */\n      0x00\n        /* \"6.8.Exercise.sol\":840:854  movie.movie_id */\n      0x02\n      add\n      sload\n        /* \"6.8.Exercise.sol\":833:854  return movie.movie_id */\n      swap1\n      pop\n        /* \"6.8.Exercise.sol\":775:862  function getMovieID() public view returns(uint){... */\n      swap1\n      jump\t// out\n        /* \"6.8.Exercise.sol\":870:959  function getComedyID() public view returns(uint){... */\n    tag_12:\n        /* \"6.8.Exercise.sol\":913:917  uint */\n      0x00\n        /* \"6.8.Exercise.sol\":936:942  comedy */\n      0x03\n        /* \"6.8.Exercise.sol\":936:951  comedy.movie_id */\n      0x02\n      add\n      sload\n        /* \"6.8.Exercise.sol\":929:951  return comedy.movie_id */\n      swap1\n      pop\n        /* \"6.8.Exercise.sol\":870:959  function getComedyID() public view returns(uint){... */\n      swap1\n      jump\t// out\n        /* \"6.8.Exercise.sol\":664:763  function setNewMovie() public {... */\n    tag_15:\n        /* \"6.8.Exercise.sol\":714:752  Movie('Jurassic Park', 'Spielberg', 2) */\n      mload(0x40)\n      dup1\n      0x60\n      add\n      0x40\n      mstore\n      dup1\n      mload(0x40)\n      dup1\n      0x40\n      add\n      0x40\n      mstore\n      dup1\n      0x0d\n      dup2\n      mstore\n      0x20\n      add\n      0x4a75726173736963205061726b00000000000000000000000000000000000000\n      dup2\n      mstore\n      pop\n      dup2\n      mstore\n      0x20\n      add\n      mload(0x40)\n      dup1\n      0x40\n      add\n      0x40\n      mstore\n      dup1\n      0x09\n      dup2\n      mstore\n      0x20\n      add\n      0x537069656c626572670000000000000000000000000000000000000000000000\n      dup2\n      mstore\n      pop\n      dup2\n      mstore\n      0x20\n      add\n        /* \"6.8.Exercise.sol\":750:751  2 */\n      0x02\n        /* \"6.8.Exercise.sol\":714:752  Movie('Jurassic Park', 'Spielberg', 2) */\n      dup2\n      mstore\n      pop\n        /* \"6.8.Exercise.sol\":705:710  movie */\n      0x00\n        /* \"6.8.Exercise.sol\":705:752  movie =  Movie('Jurassic Park', 'Spielberg', 2) */\n      0x00\n      dup3\n      add\n      mload\n      dup2\n      0x00\n      add\n      swap1\n      dup2\n      tag_21\n      swap2\n      swap1\n      tag_22\n      jump\t// in\n    tag_21:\n      pop\n      0x20\n      dup3\n      add\n      mload\n      dup2\n      0x01\n      add\n      swap1\n      dup2\n      tag_23\n      swap2\n      swap1\n      tag_22\n      jump\t// in\n    tag_23:\n      pop\n      0x40\n      dup3\n      add\n      mload\n      dup2\n      0x02\n      add\n      sstore\n      swap1\n      pop\n      pop\n        /* \"6.8.Exercise.sol\":664:763  function setNewMovie() public {... */\n      jump\t// out\n        /* \"6.8.Exercise.sol\":562:652  function setMovie() public {... */\n    tag_17:\n        /* \"6.8.Exercise.sol\":609:644  Movie('Dumb n Dumber', 'Unkown', 3) */\n      mload(0x40)\n      dup1\n      0x60\n      add\n      0x40\n      mstore\n      dup1\n      mload(0x40)\n      dup1\n      0x40\n      add\n      0x40\n      mstore\n      dup1\n      0x0d\n      dup2\n      mstore\n      0x20\n      add\n      0x44756d62206e2044756d62657200000000000000000000000000000000000000\n      dup2\n      mstore\n      pop\n      dup2\n      mstore\n      0x20\n      add\n      mload(0x40)\n      dup1\n      0x40\n      add\n      0x40\n      mstore\n      dup1\n      0x06\n      dup2\n      mstore\n      0x20\n      add\n      0x556e6b6f776e0000000000000000000000000000000000000000000000000000\n      dup2\n      mstore\n      pop\n      dup2\n      mstore\n      0x20\n      add\n        /* \"6.8.Exercise.sol\":642:643  3 */\n      0x03\n        /* \"6.8.Exercise.sol\":609:644  Movie('Dumb n Dumber', 'Unkown', 3) */\n      dup2\n      mstore\n      pop\n        /* \"6.8.Exercise.sol\":600:606  comedy */\n      0x03\n        /* \"6.8.Exercise.sol\":600:644  comedy = Movie('Dumb n Dumber', 'Unkown', 3) */\n      0x00\n      dup3\n      add\n      mload\n      dup2\n      0x00\n      add\n      swap1\n      dup2\n      tag_25\n      swap2\n      swap1\n      tag_22\n      jump\t// in\n    tag_25:\n      pop\n      0x20\n      dup3\n      add\n      mload\n      dup2\n      0x01\n      add\n      swap1\n      dup2\n      tag_26\n      swap2\n      swap1\n      tag_22\n      jump\t// in\n    tag_26:\n      pop\n      0x40\n      dup3\n      add\n      mload\n      dup2\n      0x02\n      add\n      sstore\n      swap1\n      pop\n      pop\n        /* \"6.8.Exercise.sol\":562:652  function setMovie() public {... */\n      jump\t// out\n        /* \"#utility.yul\":7:84   */\n    tag_27:\n        /* \"#utility.yul\":44:51   */\n      0x00\n        /* \"#utility.yul\":73:78   */\n      dup2\n        /* \"#utility.yul\":62:78   */\n      swap1\n      pop\n        /* \"#utility.yul\":7:84   */\n      swap2\n      swap1\n      pop\n      jump\t// out\n        /* \"#utility.yul\":90:208   */\n    tag_28:\n        /* \"#utility.yul\":177:201   */\n      tag_51\n        /* \"#utility.yul\":195:200   */\n      dup2\n        /* \"#utility.yul\":177:201   */\n      tag_27\n      jump\t// in\n    tag_51:\n        /* \"#utility.yul\":172:175   */\n      dup3\n        /* \"#utility.yul\":165:202   */\n      mstore\n        /* \"#utility.yul\":90:208   */\n      pop\n      pop\n      jump\t// out\n        /* \"#utility.yul\":214:436   */\n    tag_10:\n        /* \"#utility.yul\":307:311   */\n      0x00\n        /* \"#utility.yul\":345:347   */\n      0x20\n        /* \"#utility.yul\":334:343   */\n      dup3\n        /* \"#utility.yul\":330:348   */\n      add\n        /* \"#utility.yul\":322:348   */\n      swap1\n      pop\n        /* \"#utility.yul\":358:429   */\n      tag_53\n        /* \"#utility.yul\":426:427   */\n      0x00\n        /* \"#utility.yul\":415:424   */\n      dup4\n        /* \"#utility.yul\":411:428   */\n      add\n        /* \"#utility.yul\":402:408   */\n      dup5\n        /* \"#utility.yul\":358:429   */\n      tag_28\n      jump\t// in\n    tag_53:\n        /* \"#utility.yul\":214:436   */\n      swap3\n      swap2\n      pop\n      pop\n      jump\t// out\n        /* \"#utility.yul\":442:541   */\n    tag_29:\n        /* \"#utility.yul\":494:500   */\n      0x00\n        /* \"#utility.yul\":528:533   */\n      dup2\n        /* \"#utility.yul\":522:534   */\n      mload\n        /* \"#utility.yul\":512:534   */\n      swap1\n      pop\n        /* \"#utility.yul\":442:541   */\n      swap2\n      swap1\n      pop\n      jump\t// out\n        /* \"#utility.yul\":547:727   */\n    tag_30:\n        /* \"#utility.yul\":595:672   */\n      0x4e487b7100000000000000000000000000000000000000000000000000000000\n        /* \"#utility.yul\":592:593   */\n      0x00\n        /* \"#utility.yul\":585:673   */\n      mstore\n        /* \"#utility.yul\":692:696   */\n      0x41\n        /* \"#utility.yul\":689:690   */\n      0x04\n        /* \"#utility.yul\":682:697   */\n      mstore\n        /* \"#utility.yul\":716:720   */\n      0x24\n        /* \"#utility.yul\":713:714   */\n      0x00\n        /* \"#utility.yul\":706:721   */\n      revert\n        /* \"#utility.yul\":733:913   */\n    tag_31:\n        /* \"#utility.yul\":781:858   */\n      0x4e487b7100000000000000000000000000000000000000000000000000000000\n        /* \"#utility.yul\":778:779   */\n      0x00\n        /* \"#utility.yul\":771:859   */\n      mstore\n        /* \"#utility.yul\":878:882   */\n      0x22\n        /* \"#utility.yul\":875:876   */\n      0x04\n        /* \"#utility.yul\":868:883   */\n      mstore\n        /* \"#utility.yul\":902:906   */\n      0x24\n        /* \"#utility.yul\":899:900   */\n      0x00\n        /* \"#utility.yul\":892:907   */\n      revert\n        /* \"#utility.yul\":919:1239   */\n    tag_32:\n        /* \"#utility.yul\":963:969   */\n      0x00\n        /* \"#utility.yul\":1000:1001   */\n      0x02\n        /* \"#utility.yul\":994:998   */\n      dup3\n        /* \"#utility.yul\":990:1002   */\n      div\n        /* \"#utility.yul\":980:1002   */\n      swap1\n      pop\n        /* \"#utility.yul\":1047:1048   */\n      0x01\n        /* \"#utility.yul\":1041:1045   */\n      dup3\n        /* \"#utility.yul\":1037:1049   */\n      and\n        /* \"#utility.yul\":1068:1086   */\n      dup1\n        /* \"#utility.yul\":1058:1139   */\n      tag_58\n      jumpi\n        /* \"#utility.yul\":1124:1128   */\n      0x7f\n        /* \"#utility.yul\":1116:1122   */\n      dup3\n        /* \"#utility.yul\":1112:1129   */\n      and\n        /* \"#utility.yul\":1102:1129   */\n      swap2\n      pop\n        /* \"#utility.yul\":1058:1139   */\n    tag_58:\n        /* \"#utility.yul\":1186:1188   */\n      0x20\n        /* \"#utility.yul\":1178:1184   */\n      dup3\n        /* \"#utility.yul\":1175:1189   */\n      lt\n        /* \"#utility.yul\":1155:1173   */\n      dup2\n        /* \"#utility.yul\":1152:1190   */\n      sub\n        /* \"#utility.yul\":1149:1233   */\n      tag_59\n      jumpi\n        /* \"#utility.yul\":1205:1223   */\n      tag_60\n      tag_31\n      jump\t// in\n    tag_60:\n        /* \"#utility.yul\":1149:1233   */\n    tag_59:\n        /* \"#utility.yul\":970:1239   */\n      pop\n        /* \"#utility.yul\":919:1239   */\n      swap2\n      swap1\n      pop\n      jump\t// out\n        /* \"#utility.yul\":1245:1386   */\n    tag_33:\n        /* \"#utility.yul\":1294:1298   */\n      0x00\n        /* \"#utility.yul\":1317:1320   */\n      dup2\n        /* \"#utility.yul\":1309:1320   */\n      swap1\n      pop\n        /* \"#utility.yul\":1340:1343   */\n      dup2\n        /* \"#utility.yul\":1337:1338   */\n      0x00\n        /* \"#utility.yul\":1330:1344   */\n      mstore\n        /* \"#utility.yul\":1374:1378   */\n      0x20\n        /* \"#utility.yul\":1371:1372   */\n      0x00\n        /* \"#utility.yul\":1361:1379   */\n      keccak256\n        /* \"#utility.yul\":1353:1379   */\n      swap1\n      pop\n        /* \"#utility.yul\":1245:1386   */\n      swap2\n      swap1\n      pop\n      jump\t// out\n        /* \"#utility.yul\":1392:1485   */\n    tag_34:\n        /* \"#utility.yul\":1429:1435   */\n      0x00\n        /* \"#utility.yul\":1476:1478   */\n      0x20\n        /* \"#utility.yul\":1471:1473   */\n      0x1f\n        /* \"#utility.yul\":1464:1469   */\n      dup4\n        /* \"#utility.yul\":1460:1474   */\n      add\n        /* \"#utility.yul\":1456:1479   */\n      div\n        /* \"#utility.yul\":1446:1479   */\n      swap1\n      pop\n        /* \"#utility.yul\":1392:1485   */\n      swap2\n      swap1\n      pop\n      jump\t// out\n        /* \"#utility.yul\":1491:1598   */\n    tag_35:\n        /* \"#utility.yul\":1535:1543   */\n      0x00\n        /* \"#utility.yul\":1585:1590   */\n      dup3\n        /* \"#utility.yul\":1579:1583   */\n      dup3\n        /* \"#utility.yul\":1575:1591   */\n      shl\n        /* \"#utility.yul\":1554:1591   */\n      swap1\n      pop\n        /* \"#utility.yul\":1491:1598   */\n      swap3\n      swap2\n      pop\n      pop\n      jump\t// out\n        /* \"#utility.yul\":1604:1997   */\n    tag_36:\n        /* \"#utility.yul\":1673:1679   */\n      0x00\n        /* \"#utility.yul\":1723:1724   */\n      0x08\n        /* \"#utility.yul\":1711:1721   */\n      dup4\n        /* \"#utility.yul\":1707:1725   */\n      mul\n        /* \"#utility.yul\":1746:1843   */\n      tag_65\n        /* \"#utility.yul\":1776:1842   */\n      0xffffffffffffffffffffffffffffffffffffffffffffffffffffffffffffffff\n        /* \"#utility.yul\":1765:1774   */\n      dup3\n        /* \"#utility.yul\":1746:1843   */\n      tag_35\n      jump\t// in\n    tag_65:\n        /* \"#utility.yul\":1864:1903   */\n      tag_66\n        /* \"#utility.yul\":1894:1902   */\n      dup7\n        /* \"#utility.yul\":1883:1892   */\n      dup4\n        /* \"#utility.yul\":1864:1903   */\n      tag_35\n      jump\t// in\n    tag_66:\n        /* \"#utility.yul\":1852:1903   */\n      swap6\n      pop\n        /* \"#utility.yul\":1936:1940   */\n      dup1\n        /* \"#utility.yul\":1932:1941   */\n      not\n        /* \"#utility.yul\":1925:1930   */\n      dup5\n        /* \"#utility.yul\":1921:1942   */\n      and\n        /* \"#utility.yul\":1912:1942   */\n      swap4\n      pop\n        /* \"#utility.yul\":1985:1989   */\n      dup1\n        /* \"#utility.yul\":1975:1983   */\n      dup7\n        /* \"#utility.yul\":1971:1990   */\n      and\n        /* \"#utility.yul\":1964:1969   */\n      dup5\n        /* \"#utility.yul\":1961:1991   */\n      or\n        /* \"#utility.yul\":1951:1991   */\n      swap3\n      pop\n        /* \"#utility.yul\":1680:1997   */\n      pop\n      pop\n        /* \"#utility.yul\":1604:1997   */\n      swap4\n      swap3\n      pop\n      pop\n      pop\n      jump\t// out\n        /* \"#utility.yul\":2003:2063   */\n    tag_37:\n        /* \"#utility.yul\":2031:2034   */\n      0x00\n        /* \"#utility.yul\":2052:2057   */\n      dup2\n        /* \"#utility.yul\":2045:2057   */\n      swap1\n      pop\n        /* \"#utility.yul\":2003:2063   */\n      swap2\n      swap1\n      pop\n      jump\t// out\n        /* \"#utility.yul\":2069:2211   */\n    tag_38:\n        /* \"#utility.yul\":2119:2128   */\n      0x00\n        /* \"#utility.yul\":2152:2205   */\n      tag_69\n        /* \"#utility.yul\":2170:2204   */\n      tag_70\n        /* \"#utility.yul\":2179:2203   */\n      tag_71\n        /* \"#utility.yul\":2197:2202   */\n      dup5\n        /* \"#utility.yul\":2179:2203   */\n      tag_27\n      jump\t// in\n    tag_71:\n        /* \"#utility.yul\":2170:2204   */\n      tag_37\n      jump\t// in\n    tag_70:\n        /* \"#utility.yul\":2152:2205   */\n      tag_27\n      jump\t// in\n    tag_69:\n        /* \"#utility.yul\":2139:2205   */\n      swap1\n      pop\n        /* \"#utility.yul\":2069:2211   */\n      swap2\n      swap1\n      pop\n      jump\t// out\n        /* \"#utility.yul\":2217:2292   */\n    tag_39:\n        /* \"#utility.yul\":2260:2263   */\n      0x00\n        /* \"#utility.yul\":2281:2286   */\n      dup2\n        /* \"#utility.yul\":2274:2286   */\n      swap1\n      pop\n        /* \"#utility.yul\":2217:2292   */\n      swap2\n      swap1\n      pop\n      jump\t// out\n        /* \"#utility.yul\":2298:2567   */\n    tag_40:\n        /* \"#utility.yul\":2408:2447   */\n      tag_74\n        /* \"#utility.yul\":2439:2446   */\n      dup4\n        /* \"#utility.yul\":2408:2447   */\n      tag_38\n      jump\t// in\n    tag_74:\n        /* \"#utility.yul\":2469:2560   */\n      tag_75\n        /* \"#utility.yul\":2518:2559   */\n      tag_76\n        /* \"#utility.yul\":2542:2558   */\n      dup3\n        /* \"#utility.yul\":2518:2559   */\n      tag_39\n      jump\t// in\n    tag_76:\n        /* \"#utility.yul\":2510:2516   */\n      dup5\n        /* \"#utility.yul\":2503:2507   */\n      dup5\n        /* \"#utility.yul\":2497:2508   */\n      sload\n        /* \"#utility.yul\":2469:2560   */\n      tag_36\n      jump\t// in\n    tag_75:\n        /* \"#utility.yul\":2463:2467   */\n      dup3\n        /* \"#utility.yul\":2456:2561   */\n      sstore\n        /* \"#utility.yul\":2374:2567   */\n      pop\n        /* \"#utility.yul\":2298:2567   */\n      pop\n      pop\n      pop\n      jump\t// out\n        /* \"#utility.yul\":2573:2646   */\n    tag_41:\n        /* \"#utility.yul\":2618:2621   */\n      0x00\n        /* \"#utility.yul\":2639:2640   */\n      0x00\n        /* \"#utility.yul\":2632:2640   */\n      swap1\n      pop\n        /* \"#utility.yul\":2573:2646   */\n      swap1\n      jump\t// out\n        /* \"#utility.yul\":2652:2841   */\n    tag_42:\n        /* \"#utility.yul\":2729:2761   */\n      tag_79\n      tag_41\n      jump\t// in\n    tag_79:\n        /* \"#utility.yul\":2770:2835   */\n      tag_80\n        /* \"#utility.yul\":2828:2834   */\n      dup2\n        /* \"#utility.yul\":2820:2826   */\n      dup5\n        /* \"#utility.yul\":2814:2818   */\n      dup5\n        /* \"#utility.yul\":2770:2835   */\n      tag_40\n      jump\t// in\n    tag_80:\n        /* \"#utility.yul\":2705:2841   */\n      pop\n        /* \"#utility.yul\":2652:2841   */\n      pop\n      pop\n      jump\t// out\n        /* \"#utility.yul\":2847:3033   */\n    tag_43:\n        /* \"#utility.yul\":2907:3027   */\n    tag_82:\n        /* \"#utility.yul\":2924:2927   */\n      dup2\n        /* \"#utility.yul\":2917:2922   */\n      dup2\n        /* \"#utility.yul\":2914:2928   */\n      lt\n        /* \"#utility.yul\":2907:3027   */\n      iszero\n      tag_84\n      jumpi\n        /* \"#utility.yul\":2978:3017   */\n      tag_85\n        /* \"#utility.yul\":3015:3016   */\n      0x00\n        /* \"#utility.yul\":3008:3013   */\n      dup3\n        /* \"#utility.yul\":2978:3017   */\n      tag_42\n      jump\t// in\n    tag_85:\n        /* \"#utility.yul\":2951:2952   */\n      0x01\n        /* \"#utility.yul\":2944:2949   */\n      dup2\n        /* \"#utility.yul\":2940:2953   */\n      add\n        /* \"#utility.yul\":2931:2953   */\n      swap1\n      pop\n        /* \"#utility.yul\":2907:3027   */\n      jump(tag_82)\n    tag_84:\n        /* \"#utility.yul\":2847:3033   */\n      pop\n      pop\n      jump\t// out\n        /* \"#utility.yul\":3039:3582   */\n    tag_44:\n        /* \"#utility.yul\":3140:3142   */\n      0x1f\n        /* \"#utility.yul\":3135:3138   */\n      dup3\n        /* \"#utility.yul\":3132:3143   */\n      gt\n        /* \"#utility.yul\":3129:3575   */\n      iszero\n      tag_87\n      jumpi\n        /* \"#utility.yul\":3174:3212   */\n      tag_88\n        /* \"#utility.yul\":3206:3211   */\n      dup2\n        /* \"#utility.yul\":3174:3212   */\n      tag_33\n      jump\t// in\n    tag_88:\n        /* \"#utility.yul\":3258:3287   */\n      tag_89\n        /* \"#utility.yul\":3276:3286   */\n      dup5\n        /* \"#utility.yul\":3258:3287   */\n      tag_34\n      jump\t// in\n    tag_89:\n        /* \"#utility.yul\":3248:3256   */\n      dup2\n        /* \"#utility.yul\":3244:3288   */\n      add\n        /* \"#utility.yul\":3441:3443   */\n      0x20\n        /* \"#utility.yul\":3429:3439   */\n      dup6\n        /* \"#utility.yul\":3426:3444   */\n      lt\n        /* \"#utility.yul\":3423:3472   */\n      iszero\n      tag_90\n      jumpi\n        /* \"#utility.yul\":3462:3470   */\n      dup2\n        /* \"#utility.yul\":3447:3470   */\n      swap1\n      pop\n        /* \"#utility.yul\":3423:3472   */\n    tag_90:\n        /* \"#utility.yul\":3485:3565   */\n      tag_91\n        /* \"#utility.yul\":3541:3563   */\n      tag_92\n        /* \"#utility.yul\":3559:3562   */\n      dup6\n        /* \"#utility.yul\":3541:3563   */\n      tag_34\n      jump\t// in\n    tag_92:\n        /* \"#utility.yul\":3531:3539   */\n      dup4\n        /* \"#utility.yul\":3527:3564   */\n      add\n        /* \"#utility.yul\":3514:3525   */\n      dup3\n        /* \"#utility.yul\":3485:3565   */\n      tag_43\n      jump\t// in\n    tag_91:\n        /* \"#utility.yul\":3144:3575   */\n      pop\n      pop\n        /* \"#utility.yul\":3129:3575   */\n    tag_87:\n        /* \"#utility.yul\":3039:3582   */\n      pop\n      pop\n      pop\n      jump\t// out\n        /* \"#utility.yul\":3588:3705   */\n    tag_45:\n        /* \"#utility.yul\":3642:3650   */\n      0x00\n        /* \"#utility.yul\":3692:3697   */\n      dup3\n        /* \"#utility.yul\":3686:3690   */\n      dup3\n        /* \"#utility.yul\":3682:3698   */\n      shr\n        /* \"#utility.yul\":3661:3698   */\n      swap1\n      pop\n        /* \"#utility.yul\":3588:3705   */\n      swap3\n      swap2\n      pop\n      pop\n      jump\t// out\n        /* \"#utility.yul\":3711:3880   */\n    tag_46:\n        /* \"#utility.yul\":3755:3761   */\n      0x00\n        /* \"#utility.yul\":3788:3839   */\n      tag_95\n        /* \"#utility.yul\":3836:3837   */\n      0x00\n        /* \"#utility.yul\":3832:3838   */\n      not\n        /* \"#utility.yul\":3824:3829   */\n      dup5\n        /* \"#utility.yul\":3821:3822   */\n      0x08\n        /* \"#utility.yul\":3817:3830   */\n      mul\n        /* \"#utility.yul\":3788:3839   */\n      tag_45\n      jump\t// in\n    tag_95:\n        /* \"#utility.yul\":3784:3840   */\n      not\n        /* \"#utility.yul\":3869:3873   */\n      dup1\n        /* \"#utility.yul\":3863:3867   */\n      dup4\n        /* \"#utility.yul\":3859:3874   */\n      and\n        /* \"#utility.yul\":3849:3874   */\n      swap2\n      pop\n        /* \"#utility.yul\":3762:3880   */\n      pop\n        /* \"#utility.yul\":3711:3880   */\n      swap3\n      swap2\n      pop\n      pop\n      jump\t// out\n        /* \"#utility.yul\":3885:4180   */\n    tag_47:\n        /* \"#utility.yul\":3961:3965   */\n      0x00\n        /* \"#utility.yul\":4107:4136   */\n      tag_97\n        /* \"#utility.yul\":4132:4135   */\n      dup4\n        /* \"#utility.yul\":4126:4130   */\n      dup4\n        /* \"#utility.yul\":4107:4136   */\n      tag_46\n      jump\t// in\n    tag_97:\n        /* \"#utility.yul\":4099:4136   */\n      swap2\n      pop\n        /* \"#utility.yul\":4169:4172   */\n      dup3\n        /* \"#utility.yul\":4166:4167   */\n      0x02\n        /* \"#utility.yul\":4162:4173   */\n      mul\n        /* \"#utility.yul\":4156:4160   */\n      dup3\n        /* \"#utility.yul\":4153:4174   */\n      or\n        /* \"#utility.yul\":4145:4174   */\n      swap1\n      pop\n        /* \"#utility.yul\":3885:4180   */\n      swap3\n      swap2\n      pop\n      pop\n      jump\t// out\n        /* \"#utility.yul\":4185:5580   */\n    tag_22:\n        /* \"#utility.yul\":4302:4339   */\n      tag_99\n        /* \"#utility.yul\":4335:4338   */\n      dup3\n        /* \"#utility.yul\":4302:4339   */\n      tag_29\n      jump\t// in\n    tag_99:\n        /* \"#utility.yul\":4404:4422   */\n      0xffffffffffffffff\n        /* \"#utility.yul\":4396:4402   */\n      dup2\n        /* \"#utility.yul\":4393:4423   */\n      gt\n        /* \"#utility.yul\":4390:4446   */\n      iszero\n      tag_100\n      jumpi\n        /* \"#utility.yul\":4426:4444   */\n      tag_101\n      tag_30\n      jump\t// in\n    tag_101:\n        /* \"#utility.yul\":4390:4446   */\n    tag_100:\n        /* \"#utility.yul\":4470:4508   */\n      tag_102\n        /* \"#utility.yul\":4502:4506   */\n      dup3\n        /* \"#utility.yul\":4496:4507   */\n      sload\n        /* \"#utility.yul\":4470:4508   */\n      tag_32\n      jump\t// in\n    tag_102:\n        /* \"#utility.yul\":4555:4622   */\n      tag_103\n        /* \"#utility.yul\":4615:4621   */\n      dup3\n        /* \"#utility.yul\":4607:4613   */\n      dup3\n        /* \"#utility.yul\":4601:4605   */\n      dup6\n        /* \"#utility.yul\":4555:4622   */\n      tag_44\n      jump\t// in\n    tag_103:\n        /* \"#utility.yul\":4649:4650   */\n      0x00\n        /* \"#utility.yul\":4673:4677   */\n      0x20\n        /* \"#utility.yul\":4660:4677   */\n      swap1\n      pop\n        /* \"#utility.yul\":4705:4707   */\n      0x1f\n        /* \"#utility.yul\":4697:4703   */\n      dup4\n        /* \"#utility.yul\":4694:4708   */\n      gt\n        /* \"#utility.yul\":4722:4723   */\n      0x01\n        /* \"#utility.yul\":4717:5335   */\n      dup2\n      eq\n      tag_105\n      jumpi\n        /* \"#utility.yul\":5379:5380   */\n      0x00\n        /* \"#utility.yul\":5396:5402   */\n      dup5\n        /* \"#utility.yul\":5393:5470   */\n      iszero\n      tag_106\n      jumpi\n        /* \"#utility.yul\":5445:5454   */\n      dup3\n        /* \"#utility.yul\":5440:5443   */\n      dup8\n        /* \"#utility.yul\":5436:5455   */\n      add\n        /* \"#utility.yul\":5430:5456   */\n      mload\n        /* \"#utility.yul\":5421:5456   */\n      swap1\n      pop\n        /* \"#utility.yul\":5393:5470   */\n    tag_106:\n        /* \"#utility.yul\":5496:5563   */\n      tag_107\n        /* \"#utility.yul\":5556:5562   */\n      dup6\n        /* \"#utility.yul\":5549:5554   */\n      dup3\n        /* \"#utility.yul\":5496:5563   */\n      tag_47\n      jump\t// in\n    tag_107:\n        /* \"#utility.yul\":5490:5494   */\n      dup7\n        /* \"#utility.yul\":5483:5564   */\n      sstore\n        /* \"#utility.yul\":5352:5574   */\n      pop\n        /* \"#utility.yul\":4687:5574   */\n      jump(tag_104)\n        /* \"#utility.yul\":4717:5335   */\n    tag_105:\n        /* \"#utility.yul\":4769:4773   */\n      0x1f\n        /* \"#utility.yul\":4765:4774   */\n      not\n        /* \"#utility.yul\":4757:4763   */\n      dup5\n        /* \"#utility.yul\":4753:4775   */\n      and\n        /* \"#utility.yul\":4803:4840   */\n      tag_108\n        /* \"#utility.yul\":4835:4839   */\n      dup7\n        /* \"#utility.yul\":4803:4840   */\n      tag_33\n      jump\t// in\n    tag_108:\n        /* \"#utility.yul\":4862:4863   */\n      0x00\n        /* \"#utility.yul\":4876:5084   */\n    tag_109:\n        /* \"#utility.yul\":4890:4897   */\n      dup3\n        /* \"#utility.yul\":4887:4888   */\n      dup2\n        /* \"#utility.yul\":4884:4898   */\n      lt\n        /* \"#utility.yul\":4876:5084   */\n      iszero\n      tag_111\n      jumpi\n        /* \"#utility.yul\":4969:4978   */\n      dup5\n        /* \"#utility.yul\":4964:4967   */\n      dup10\n        /* \"#utility.yul\":4960:4979   */\n      add\n        /* \"#utility.yul\":4954:4980   */\n      mload\n        /* \"#utility.yul\":4946:4952   */\n      dup3\n        /* \"#utility.yul\":4939:4981   */\n      sstore\n        /* \"#utility.yul\":5020:5021   */\n      0x01\n        /* \"#utility.yul\":5012:5018   */\n      dup3\n        /* \"#utility.yul\":5008:5022   */\n      add\n        /* \"#utility.yul\":4998:5022   */\n      swap2\n      pop\n        /* \"#utility.yul\":5067:5069   */\n      0x20\n        /* \"#utility.yul\":5056:5065   */\n      dup6\n        /* \"#utility.yul\":5052:5070   */\n      add\n        /* \"#utility.yul\":5039:5070   */\n      swap5\n      pop\n        /* \"#utility.yul\":4913:4917   */\n      0x20\n        /* \"#utility.yul\":4910:4911   */\n      dup2\n        /* \"#utility.yul\":4906:4918   */\n      add\n        /* \"#utility.yul\":4901:4918   */\n      swap1\n      pop\n        /* \"#utility.yul\":4876:5084   */\n      jump(tag_109)\n    tag_111:\n        /* \"#utility.yul\":5112:5118   */\n      dup7\n        /* \"#utility.yul\":5103:5110   */\n      dup4\n        /* \"#utility.yul\":5100:5119   */\n      lt\n        /* \"#utility.yul\":5097:5276   */\n      iszero\n      tag_112\n      jumpi\n        /* \"#utility.yul\":5170:5179   */\n      dup5\n        /* \"#utility.yul\":5165:5168   */\n      dup10\n        /* \"#utility.yul\":5161:5180   */\n      add\n        /* \"#utility.yul\":5155:5181   */\n      mload\n        /* \"#utility.yul\":5213:5261   */\n      tag_113\n        /* \"#utility.yul\":5255:5259   */\n      0x1f\n        /* \"#utility.yul\":5247:5253   */\n      dup10\n        /* \"#utility.yul\":5243:5260   */\n      and\n        /* \"#utility.yul\":5232:5241   */\n      dup3\n        /* \"#utility.yul\":5213:5261   */\n      tag_46\n      jump\t// in\n    tag_113:\n        /* \"#utility.yul\":5205:5211   */\n      dup4\n        /* \"#utility.yul\":5198:5262   */\n      sstore\n        /* \"#utility.yul\":5120:5276   */\n      pop\n        /* \"#utility.yul\":5097:5276   */\n    tag_112:\n        /* \"#utility.yul\":5322:5323   */\n      0x01\n        /* \"#utility.yul\":5318:5319   */\n      0x02\n        /* \"#utility.yul\":5310:5316   */\n      dup9\n        /* \"#utility.yul\":5306:5320   */\n      mul\n        /* \"#utility.yul\":5302:5324   */\n      add\n        /* \"#utility.yul\":5296:5300   */\n      dup9\n        /* \"#utility.yul\":5289:5325   */\n      sstore\n        /* \"#utility.yul\":4724:5335   */\n      pop\n      pop\n      pop\n        /* \"#utility.yul\":4687:5574   */\n    tag_104:\n      pop\n        /* \"#utility.yul\":4277:5580   */\n      pop\n      pop\n      pop\n        /* \"#utility.yul\":4185:5580   */\n      pop\n      pop\n      jump\t// out\n\n    auxdata: 0xa2646970667358221220ddd7c4475ade4315c0f29e871276004c562ff68666c636238308c4745befd4b564736f6c634300081e0033\n}\n",
				"bytecode": {
					"linkReferences": {},
					"object": "6080604052348015600e575f5ffd5b506105a08061001c5f395ff3fe608060405234801561000f575f5ffd5b506004361061004a575f3560e01c806305ee614b1461004e578063ca6ed0051461006c578063de3bce871461008a578063f6bb33b114610094575b5f5ffd5b61005661009e565b604051610063919061024e565b60405180910390f35b6100746100a9565b604051610081919061024e565b60405180910390f35b6100926100b5565b005b61009c610175565b005b5f5f60020154905090565b5f600360020154905090565b60405180606001604052806040518060400160405280600d81526020017f4a75726173736963205061726b0000000000000000000000000000000000000081525081526020016040518060400160405280600981526020017f537069656c626572670000000000000000000000000000000000000000000000815250815260200160028152505f5f820151815f01908161014f919061049b565b506020820151816001019081610165919061049b565b5060408201518160020155905050565b60405180606001604052806040518060400160405280600d81526020017f44756d62206e2044756d6265720000000000000000000000000000000000000081525081526020016040518060400160405280600681526020017f556e6b6f776e00000000000000000000000000000000000000000000000000008152508152602001600381525060035f820151815f019081610210919061049b565b506020820151816001019081610226919061049b565b5060408201518160020155905050565b5f819050919050565b61024881610236565b82525050565b5f6020820190506102615f83018461023f565b92915050565b5f81519050919050565b7f4e487b71000000000000000000000000000000000000000000000000000000005f52604160045260245ffd5b7f4e487b71000000000000000000000000000000000000000000000000000000005f52602260045260245ffd5b5f60028204905060018216806102e257607f821691505b6020821081036102f5576102f461029e565b5b50919050565b5f819050815f5260205f209050919050565b5f6020601f8301049050919050565b5f82821b905092915050565b5f600883026103577fffffffffffffffffffffffffffffffffffffffffffffffffffffffffffffffff8261031c565b610361868361031c565b95508019841693508086168417925050509392505050565b5f819050919050565b5f61039c61039761039284610236565b610379565b610236565b9050919050565b5f819050919050565b6103b583610382565b6103c96103c1826103a3565b848454610328565b825550505050565b5f5f905090565b6103e06103d1565b6103eb8184846103ac565b505050565b5b8181101561040e576104035f826103d8565b6001810190506103f1565b5050565b601f82111561045357610424816102fb565b61042d8461030d565b8101602085101561043c578190505b6104506104488561030d565b8301826103f0565b50505b505050565b5f82821c905092915050565b5f6104735f1984600802610458565b1980831691505092915050565b5f61048b8383610464565b9150826002028217905092915050565b6104a482610267565b67ffffffffffffffff8111156104bd576104bc610271565b5b6104c782546102cb565b6104d2828285610412565b5f60209050601f831160018114610503575f84156104f1578287015190505b6104fb8582610480565b865550610562565b601f198416610511866102fb565b5f5b8281101561053857848901518255600182019150602085019450602081019050610513565b868310156105555784890151610551601f891682610464565b8355505b6001600288020188555050505b50505050505056fea2646970667358221220ddd7c4475ade4315c0f29e871276004c562ff68666c636238308c4745befd4b564736f6c634300081e0033",
					"opcodes": "PUSH1 0x80 PUSH1 0x40 MSTORE CALLVALUE DUP1 ISZERO PUSH1 0xE JUMPI PUSH0 PUSH0 REVERT JUMPDEST POP PUSH2 0x5A0 DUP1 PUSH2 0x1C PUSH0 CODECOPY PUSH0 RETURN INVALID PUSH1 0x80 PUSH1 0x40 MSTORE CALLVALUE DUP1 ISZERO PUSH2 0xF JUMPI PUSH0 PUSH0 REVERT JUMPDEST POP PUSH1 0x4 CALLDATASIZE LT PUSH2 0x4A JUMPI PUSH0 CALLDATALOAD PUSH1 0xE0 SHR DUP1 PUSH4 0x5EE614B EQ PUSH2 0x4E JUMPI DUP1 PUSH4 0xCA6ED005 EQ PUSH2 0x6C JUMPI DUP1 PUSH4 0xDE3BCE87 EQ PUSH2 0x8A JUMPI DUP1 PUSH4 0xF6BB33B1 EQ PUSH2 0x94 JUMPI JUMPDEST PUSH0 PUSH0 REVERT JUMPDEST PUSH2 0x56 PUSH2 0x9E JUMP JUMPDEST PUSH1 0x40 MLOAD PUSH2 0x63 SWAP2 SWAP1 PUSH2 0x24E JUMP JUMPDEST PUSH1 0x40 MLOAD DUP1 SWAP2 SUB SWAP1 RETURN JUMPDEST PUSH2 0x74 PUSH2 0xA9 JUMP JUMPDEST PUSH1 0x40 MLOAD PUSH2 0x81 SWAP2 SWAP1 PUSH2 0x24E JUMP JUMPDEST PUSH1 0x40 MLOAD DUP1 SWAP2 SUB SWAP1 RETURN JUMPDEST PUSH2 0x92 PUSH2 0xB5 JUMP JUMPDEST STOP JUMPDEST PUSH2 0x9C PUSH2 0x175 JUMP JUMPDEST STOP JUMPDEST PUSH0 PUSH0 PUSH1 0x2 ADD SLOAD SWAP1 POP SWAP1 JUMP JUMPDEST PUSH0 PUSH1 0x3 PUSH1 0x2 ADD SLOAD SWAP1 POP SWAP1 JUMP JUMPDEST PUSH1 0x40 MLOAD DUP1 PUSH1 0x60 ADD PUSH1 0x40 MSTORE DUP1 PUSH1 0x40 MLOAD DUP1 PUSH1 0x40 ADD PUSH1 0x40 MSTORE DUP1 PUSH1 0xD DUP2 MSTORE PUSH1 0x20 ADD PUSH32 0x4A75726173736963205061726B00000000000000000000000000000000000000 DUP2 MSTORE POP DUP2 MSTORE PUSH1 0x20 ADD PUSH1 0x40 MLOAD DUP1 PUSH1 0x40 ADD PUSH1 0x40 MSTORE DUP1 PUSH1 0x9 DUP2 MSTORE PUSH1 0x20 ADD PUSH32 0x537069656C626572670000000000000000000000000000000000000000000000 DUP2 MSTORE POP DUP2 MSTORE PUSH1 0x20 ADD PUSH1 0x2 DUP2 MSTORE POP PUSH0 PUSH0 DUP3 ADD MLOAD DUP2 PUSH0 ADD SWAP1 DUP2 PUSH2 0x14F SWAP2 SWAP1 PUSH2 0x49B JUMP JUMPDEST POP PUSH1 0x20 DUP3 ADD MLOAD DUP2 PUSH1 0x1 ADD SWAP1 DUP2 PUSH2 0x165 SWAP2 SWAP1 PUSH2 0x49B JUMP JUMPDEST POP PUSH1 0x40 DUP3 ADD MLOAD DUP2 PUSH1 0x2 ADD SSTORE SWAP1 POP POP JUMP JUMPDEST PUSH1 0x40 MLOAD DUP1 PUSH1 0x60 ADD PUSH1 0x40 MSTORE DUP1 PUSH1 0x40 MLOAD DUP1 PUSH1 0x40 ADD PUSH1 0x40 MSTORE DUP1 PUSH1 0xD DUP2 MSTORE PUSH1 0x20 ADD PUSH32 0x44756D62206E2044756D62657200000000000000000000000000000000000000 DUP2 MSTORE POP DUP2 MSTORE PUSH1 0x20 ADD PUSH1 0x40 MLOAD DUP1 PUSH1 0x40 ADD PUSH1 0x40 MSTORE DUP1 PUSH1 0x6 DUP2 MSTORE PUSH1 0x20 ADD PUSH32 0x556E6B6F776E0000000000000000000000000000000000000000000000000000 DUP2 MSTORE POP DUP2 MSTORE PUSH1 0x20 ADD PUSH1 0x3 DUP2 MSTORE POP PUSH1 0x3 PUSH0 DUP3 ADD MLOAD DUP2 PUSH0 ADD SWAP1 DUP2 PUSH2 0x210 SWAP2 SWAP1 PUSH2 0x49B JUMP JUMPDEST POP PUSH1 0x20 DUP3 ADD MLOAD DUP2 PUSH1 0x1 ADD SWAP1 DUP2 PUSH2 0x226 SWAP2 SWAP1 PUSH2 0x49B JUMP JUMPDEST POP PUSH1 0x40 DUP3 ADD MLOAD DUP2 PUSH1 0x2 ADD SSTORE SWAP1 POP POP JUMP JUMPDEST PUSH0 DUP2 SWAP1 POP SWAP2 SWAP1 POP JUMP JUMPDEST PUSH2 0x248 DUP2 PUSH2 0x236 JUMP JUMPDEST DUP3 MSTORE POP POP JUMP JUMPDEST PUSH0 PUSH1 0x20 DUP3 ADD SWAP1 POP PUSH2 0x261 PUSH0 DUP4 ADD DUP5 PUSH2 0x23F JUMP JUMPDEST SWAP3 SWAP2 POP POP JUMP JUMPDEST PUSH0 DUP2 MLOAD SWAP1 POP SWAP2 SWAP1 POP JUMP JUMPDEST PUSH32 0x4E487B7100000000000000000000000000000000000000000000000000000000 PUSH0 MSTORE PUSH1 0x41 PUSH1 0x4 MSTORE PUSH1 0x24 PUSH0 REVERT JUMPDEST PUSH32 0x4E487B7100000000000000000000000000000000000000000000000000000000 PUSH0 MSTORE PUSH1 0x22 PUSH1 0x4 MSTORE PUSH1 0x24 PUSH0 REVERT JUMPDEST PUSH0 PUSH1 0x2 DUP3 DIV SWAP1 POP PUSH1 0x1 DUP3 AND DUP1 PUSH2 0x2E2 JUMPI PUSH1 0x7F DUP3 AND SWAP2 POP JUMPDEST PUSH1 0x20 DUP3 LT DUP2 SUB PUSH2 0x2F5 JUMPI PUSH2 0x2F4 PUSH2 0x29E JUMP JUMPDEST JUMPDEST POP SWAP2 SWAP1 POP JUMP JUMPDEST PUSH0 DUP2 SWAP1 POP DUP2 PUSH0 MSTORE PUSH1 0x20 PUSH0 KECCAK256 SWAP1 POP SWAP2 SWAP1 POP JUMP JUMPDEST PUSH0 PUSH1 0x20 PUSH1 0x1F DUP4 ADD DIV SWAP1 POP SWAP2 SWAP1 POP JUMP JUMPDEST PUSH0 DUP3 DUP3 SHL SWAP1 POP SWAP3 SWAP2 POP POP JUMP JUMPDEST PUSH0 PUSH1 0x8 DUP4 MUL PUSH2 0x357 PUSH32 0xFFFFFFFFFFFFFFFFFFFFFFFFFFFFFFFFFFFFFFFFFFFFFFFFFFFFFFFFFFFFFFFF DUP3 PUSH2 0x31C JUMP JUMPDEST PUSH2 0x361 DUP7 DUP4 PUSH2 0x31C JUMP JUMPDEST SWAP6 POP DUP1 NOT DUP5 AND SWAP4 POP DUP1 DUP7 AND DUP5 OR SWAP3 POP POP POP SWAP4 SWAP3 POP POP POP JUMP JUMPDEST PUSH0 DUP2 SWAP1 POP SWAP2 SWAP1 POP JUMP JUMPDEST PUSH0 PUSH2 0x39C PUSH2 0x397 PUSH2 0x392 DUP5 PUSH2 0x236 JUMP JUMPDEST PUSH2 0x379 JUMP JUMPDEST PUSH2 0x236 JUMP JUMPDEST SWAP1 POP SWAP2 SWAP1 POP JUMP JUMPDEST PUSH0 DUP2 SWAP1 POP SWAP2 SWAP1 POP JUMP JUMPDEST PUSH2 0x3B5 DUP4 PUSH2 0x382 JUMP JUMPDEST PUSH2 0x3C9 PUSH2 0x3C1 DUP3 PUSH2 0x3A3 JUMP JUMPDEST DUP5 DUP5 SLOAD PUSH2 0x328 JUMP JUMPDEST DUP3 SSTORE POP POP POP POP JUMP JUMPDEST PUSH0 PUSH0 SWAP1 POP SWAP1 JUMP JUMPDEST PUSH2 0x3E0 PUSH2 0x3D1 JUMP JUMPDEST PUSH2 0x3EB DUP2 DUP5 DUP5 PUSH2 0x3AC JUMP JUMPDEST POP POP POP JUMP JUMPDEST JUMPDEST DUP2 DUP2 LT ISZERO PUSH2 0x40E JUMPI PUSH2 0x403 PUSH0 DUP3 PUSH2 0x3D8 JUMP JUMPDEST PUSH1 0x1 DUP2 ADD SWAP1 POP PUSH2 0x3F1 JUMP JUMPDEST POP POP JUMP JUMPDEST PUSH1 0x1F DUP3 GT ISZERO PUSH2 0x453 JUMPI PUSH2 0x424 DUP2 PUSH2 0x2FB JUMP JUMPDEST PUSH2 0x42D DUP5 PUSH2 0x30D JUMP JUMPDEST DUP2 ADD PUSH1 0x20 DUP6 LT ISZERO PUSH2 0x43C JUMPI DUP2 SWAP1 POP JUMPDEST PUSH2 0x450 PUSH2 0x448 DUP6 PUSH2 0x30D JUMP JUMPDEST DUP4 ADD DUP3 PUSH2 0x3F0 JUMP JUMPDEST POP POP JUMPDEST POP POP POP JUMP JUMPDEST PUSH0 DUP3 DUP3 SHR SWAP1 POP SWAP3 SWAP2 POP POP JUMP JUMPDEST PUSH0 PUSH2 0x473 PUSH0 NOT DUP5 PUSH1 0x8 MUL PUSH2 0x458 JUMP JUMPDEST NOT DUP1 DUP4 AND SWAP2 POP POP SWAP3 SWAP2 POP POP JUMP JUMPDEST PUSH0 PUSH2 0x48B DUP4 DUP4 PUSH2 0x464 JUMP JUMPDEST SWAP2 POP DUP3 PUSH1 0x2 MUL DUP3 OR SWAP1 POP SWAP3 SWAP2 POP POP JUMP JUMPDEST PUSH2 0x4A4 DUP3 PUSH2 0x267 JUMP JUMPDEST PUSH8 0xFFFFFFFFFFFFFFFF DUP2 GT ISZERO PUSH2 0x4BD JUMPI PUSH2 0x4BC PUSH2 0x271 JUMP JUMPDEST JUMPDEST PUSH2 0x4C7 DUP3 SLOAD PUSH2 0x2CB JUMP JUMPDEST PUSH2 0x4D2 DUP3 DUP3 DUP6 PUSH2 0x412 JUMP JUMPDEST PUSH0 PUSH1 0x20 SWAP1 POP PUSH1 0x1F DUP4 GT PUSH1 0x1 DUP2 EQ PUSH2 0x503 JUMPI PUSH0 DUP5 ISZERO PUSH2 0x4F1 JUMPI DUP3 DUP8 ADD MLOAD SWAP1 POP JUMPDEST PUSH2 0x4FB DUP6 DUP3 PUSH2 0x480 JUMP JUMPDEST DUP7 SSTORE POP PUSH2 0x562 JUMP JUMPDEST PUSH1 0x1F NOT DUP5 AND PUSH2 0x511 DUP7 PUSH2 0x2FB JUMP JUMPDEST PUSH0 JUMPDEST DUP3 DUP2 LT ISZERO PUSH2 0x538 JUMPI DUP5 DUP10 ADD MLOAD DUP3 SSTORE PUSH1 0x1 DUP3 ADD SWAP2 POP PUSH1 0x20 DUP6 ADD SWAP5 POP PUSH1 0x20 DUP2 ADD SWAP1 POP PUSH2 0x513 JUMP JUMPDEST DUP7 DUP4 LT ISZERO PUSH2 0x555 JUMPI DUP5 DUP10 ADD MLOAD PUSH2 0x551 PUSH1 0x1F DUP10 AND DUP3 PUSH2 0x464 JUMP JUMPDEST DUP4 SSTORE POP JUMPDEST PUSH1 0x1 PUSH1 0x2 DUP9 MUL ADD DUP9 SSTORE POP POP POP JUMPDEST POP POP POP POP POP POP JUMP INVALID LOG2 PUSH5 0x6970667358 0x22 SLT KECCAK256 0xDD 0xD7 0xC4 SELFBALANCE GAS 0xDE NUMBER ISZERO 0xC0 CALLCODE SWAP15 DUP8 SLT PUSH23 0x4C562FF68666C636238308C4745BEFD4B564736F6C63 NUMBER STOP ADDMOD 0x1E STOP CALLER "
				},
				"gasEstimates": {
					"creation": {
						"codeDepositCost": "288000",
						"executionCost": "322",
						"totalCost": "288322"
					},
					"external": {
						"getComedyID()": "2438",
						"getMovieID()": "2415",
						"setMovie()": "infinite",
						"setNewMovie()": "infinite"
					}
				},
				"methodIdentifiers": {
					"getComedyID()": "ca6ed005",
					"getMovieID()": "05ee614b",
					"setMovie()": "f6bb33b1",
					"setNewMovie()": "de3bce87"
				}
			},
			"storageLayout": {
				"storage": [
					{
						"astId": 11,
						"contract": "6.8.Exercise.sol:exerciseStructs",
						"label": "movie",
						"offset": 0,
						"slot": "0",
						"type": "t_struct(Movie)8_storage"
					},
					{
						"astId": 14,
						"contract": "6.8.Exercise.sol:exerciseStructs",
						"label": "comedy",
						"offset": 0,
						"slot": "3",
						"type": "t_struct(Movie)8_storage"
					}
				],
				"types": {
					"t_string_storage": {
						"encoding": "bytes",
						"label": "string",
						"numberOfBytes": "32"
					},
					"t_struct(Movie)8_storage": {
						"encoding": "inplace",
						"label": "struct exerciseStructs.Movie",
						"members": [
							{
								"astId": 3,
								"contract": "6.8.Exercise.sol:exerciseStructs",
								"label": "title",
								"offset": 0,
								"slot": "0",
								"type": "t_string_storage"
							},
							{
								"astId": 5,
								"contract": "6.8.Exercise.sol:exerciseStructs",
								"label": "director",
								"offset": 0,
								"slot": "1",
								"type": "t_string_storage"
							},
							{
								"astId": 7,
								"contract": "6.8.Exercise.sol:exerciseStructs",
								"label": "movie_id",
								"offset": 0,
								"slot": "2",
								"type": "t_uint256"
							}
						],
						"numberOfBytes": "96"
					},
					"t_uint256": {
						"encoding": "inplace",
						"label": "uint256",
						"numberOfBytes": "32"
					}
				}
			},
			"userdoc": {
				"kind": "user",
				"methods": {},
				"version": 1
			}
		}
	}
}