{
	"6.10.Exercise.sol": {
		"exerciseMappping": {
			"abi": [
				{
					"inputs": [
						{
							"internalType": "string",
							"name": "title",
							"type": "string"
						},
						{
							"internalType": "string",
							"name": "director",
							"type": "string"
						},
						{
							"internalType": "uint256",
							"name": "id",
							"type": "uint256"
						}
					],
					"name": "addMovie",
					"outputs": [],
					"stateMutability": "nonpayable",
					"type": "function"
				},
				{
					"inputs": [
						{
							"internalType": "uint256",
							"name": "",
							"type": "uint256"
						}
					],
					"name": "movie",
					"outputs": [
						{
							"internalType": "string",
							"name": "title",
							"type": "string"
						},
						{
							"internalType": "string",
							"name": "director",
							"type": "string"
						}
					],
					"stateMutability": "view",
					"type": "function"
				}
			],
			"devdoc": {
				"kind": "dev",
				"methods": {},
				"version": 1
			},
			"evm": {
				"assembly": "    /* \"6.10.Exercise.sol\":552:846  contract exerciseMappping {... */\n  mstore(0x40, 0x80)\n  callvalue\n  dup1\n  iszero\n  tag_1\n  jumpi\n  revert(0x00, 0x00)\ntag_1:\n  pop\n  dataSize(sub_0)\n  dup1\n  dataOffset(sub_0)\n  0x00\n  codecopy\n  0x00\n  return\nstop\n\nsub_0: assembly {\n        /* \"6.10.Exercise.sol\":552:846  contract exerciseMappping {... */\n      mstore(0x40, 0x80)\n      callvalue\n      dup1\n      iszero\n      tag_1\n      jumpi\n      revert(0x00, 0x00)\n    tag_1:\n      pop\n      jumpi(tag_2, lt(calldatasize, 0x04))\n      shr(0xe0, calldataload(0x00))\n      dup1\n      0xd87ec417\n      eq\n      tag_3\n      jumpi\n      dup1\n      0xf012666e\n      eq\n      tag_4\n      jumpi\n    tag_2:\n      revert(0x00, 0x00)\n        /* \"6.10.Exercise.sol\":665:701  mapping (uint => Movie) public movie */\n    tag_3:\n      tag_5\n      0x04\n      dup1\n      calldatasize\n      sub\n      dup2\n      add\n      swap1\n      tag_6\n      swap2\n      swap1\n      tag_7\n      jump\t// in\n    tag_6:\n      tag_8\n      jump\t// in\n    tag_5:\n      mload(0x40)\n      tag_9\n      swap3\n      swap2\n      swap1\n      tag_10\n      jump\t// in\n    tag_9:\n      mload(0x40)\n      dup1\n      swap2\n      sub\n      swap1\n      return\n        /* \"6.10.Exercise.sol\":710:843  function addMovie (string memory title, string memory director, uint id) public {... */\n    tag_4:\n      tag_11\n      0x04\n      dup1\n      calldatasize\n      sub\n      dup2\n      add\n      swap1\n      tag_12\n      swap2\n      swap1\n      tag_13\n      jump\t// in\n    tag_12:\n      tag_14\n      jump\t// in\n    tag_11:\n      stop\n        /* \"6.10.Exercise.sol\":665:701  mapping (uint => Movie) public movie */\n    tag_8:\n      mstore(0x20, 0x00)\n      dup1\n      0x00\n      mstore\n      keccak256(0x00, 0x40)\n      0x00\n      swap2\n      pop\n      swap1\n      pop\n      dup1\n      0x00\n      add\n      dup1\n      sload\n      tag_15\n      swap1\n      tag_16\n      jump\t// in\n    tag_15:\n      dup1\n      0x1f\n      add\n      0x20\n      dup1\n      swap2\n      div\n      mul\n      0x20\n      add\n      mload(0x40)\n      swap1\n      dup2\n      add\n      0x40\n      mstore\n      dup1\n      swap3\n      swap2\n      swap1\n      dup2\n      dup2\n      mstore\n      0x20\n      add\n      dup3\n      dup1\n      sload\n      tag_17\n      swap1\n      tag_16\n      jump\t// in\n    tag_17:\n      dup1\n      iszero\n      tag_18\n      jumpi\n      dup1\n      0x1f\n      lt\n      tag_19\n      jumpi\n      0x0100\n      dup1\n      dup4\n      sload\n      div\n      mul\n      dup4\n      mstore\n      swap2\n      0x20\n      add\n      swap2\n      jump(tag_18)\n    tag_19:\n      dup3\n      add\n      swap2\n      swap1\n      0x00\n      mstore\n      keccak256(0x00, 0x20)\n      swap1\n    tag_20:\n      dup2\n      sload\n      dup2\n      mstore\n      swap1\n      0x01\n      add\n      swap1\n      0x20\n      add\n      dup1\n      dup4\n      gt\n      tag_20\n      jumpi\n      dup3\n      swap1\n      sub\n      0x1f\n      and\n      dup3\n      add\n      swap2\n    tag_18:\n      pop\n      pop\n      pop\n      pop\n      pop\n      swap1\n      dup1\n      0x01\n      add\n      dup1\n      sload\n      tag_21\n      swap1\n      tag_16\n      jump\t// in\n    tag_21:\n      dup1\n      0x1f\n      add\n      0x20\n      dup1\n      swap2\n      div\n      mul\n      0x20\n      add\n      mload(0x40)\n      swap1\n      dup2\n      add\n      0x40\n      mstore\n      dup1\n      swap3\n      swap2\n      swap1\n      dup2\n      dup2\n      mstore\n      0x20\n      add\n      dup3\n      dup1\n      sload\n      tag_22\n      swap1\n      tag_16\n      jump\t// in\n    tag_22:\n      dup1\n      iszero\n      tag_23\n      jumpi\n      dup1\n      0x1f\n      lt\n      tag_24\n      jumpi\n      0x0100\n      dup1\n      dup4\n      sload\n      div\n      mul\n      dup4\n      mstore\n      swap2\n      0x20\n      add\n      swap2\n      jump(tag_23)\n    tag_24:\n      dup3\n      add\n      swap2\n      swap1\n      0x00\n      mstore\n      keccak256(0x00, 0x20)\n      swap1\n    tag_25:\n      dup2\n      sload\n      dup2\n      mstore\n      swap1\n      0x01\n      add\n      swap1\n      0x20\n      add\n      dup1\n      dup4\n      gt\n      tag_25\n      jumpi\n      dup3\n      swap1\n      sub\n      0x1f\n      and\n      dup3\n      add\n      swap2\n    tag_23:\n      pop\n      pop\n      pop\n      pop\n      pop\n      swap1\n      pop\n      dup3\n      jump\t// out\n        /* \"6.10.Exercise.sol\":710:843  function addMovie (string memory title, string memory director, uint id) public {... */\n    tag_14:\n        /* \"6.10.Exercise.sol\":813:835  Movie(title, director) */\n      mload(0x40)\n      dup1\n      0x40\n      add\n      0x40\n      mstore\n      dup1\n        /* \"6.10.Exercise.sol\":819:824  title */\n      dup5\n        /* \"6.10.Exercise.sol\":813:835  Movie(title, director) */\n      dup2\n      mstore\n      0x20\n      add\n        /* \"6.10.Exercise.sol\":826:834  director */\n      dup4\n        /* \"6.10.Exercise.sol\":813:835  Movie(title, director) */\n      dup2\n      mstore\n      pop\n        /* \"6.10.Exercise.sol\":801:806  movie */\n      0x00\n        /* \"6.10.Exercise.sol\":801:810  movie[id] */\n      0x00\n        /* \"6.10.Exercise.sol\":807:809  id */\n      dup4\n        /* \"6.10.Exercise.sol\":801:810  movie[id] */\n      dup2\n      mstore\n      0x20\n      add\n      swap1\n      dup2\n      mstore\n      0x20\n      add\n      0x00\n      keccak256\n        /* \"6.10.Exercise.sol\":801:835  movie[id] = Movie(title, director) */\n      0x00\n      dup3\n      add\n      mload\n      dup2\n      0x00\n      add\n      swap1\n      dup2\n      tag_27\n      swap2\n      swap1\n      tag_28\n      jump\t// in\n    tag_27:\n      pop\n      0x20\n      dup3\n      add\n      mload\n      dup2\n      0x01\n      add\n      swap1\n      dup2\n      tag_29\n      swap2\n      swap1\n      tag_28\n      jump\t// in\n    tag_29:\n      pop\n      swap1\n      pop\n      pop\n        /* \"6.10.Exercise.sol\":710:843  function addMovie (string memory title, string memory director, uint id) public {... */\n      pop\n      pop\n      pop\n      jump\t// out\n        /* \"#utility.yul\":7:82   */\n    tag_30:\n        /* \"#utility.yul\":40:46   */\n      0x00\n        /* \"#utility.yul\":73:75   */\n      0x40\n        /* \"#utility.yul\":67:76   */\n      mload\n        /* \"#utility.yul\":57:76   */\n      swap1\n      pop\n        /* \"#utility.yul\":7:82   */\n      swap1\n      jump\t// out\n        /* \"#utility.yul\":88:205   */\n    tag_31:\n        /* \"#utility.yul\":197:198   */\n      0x00\n        /* \"#utility.yul\":194:195   */\n      0x00\n        /* \"#utility.yul\":187:199   */\n      revert\n        /* \"#utility.yul\":211:328   */\n    tag_32:\n        /* \"#utility.yul\":320:321   */\n      0x00\n        /* \"#utility.yul\":317:318   */\n      0x00\n        /* \"#utility.yul\":310:322   */\n      revert\n        /* \"#utility.yul\":334:411   */\n    tag_33:\n        /* \"#utility.yul\":371:378   */\n      0x00\n        /* \"#utility.yul\":400:405   */\n      dup2\n        /* \"#utility.yul\":389:405   */\n      swap1\n      pop\n        /* \"#utility.yul\":334:411   */\n      swap2\n      swap1\n      pop\n      jump\t// out\n        /* \"#utility.yul\":417:539   */\n    tag_34:\n        /* \"#utility.yul\":490:514   */\n      tag_72\n        /* \"#utility.yul\":508:513   */\n      dup2\n        /* \"#utility.yul\":490:514   */\n      tag_33\n      jump\t// in\n    tag_72:\n        /* \"#utility.yul\":483:488   */\n      dup2\n        /* \"#utility.yul\":480:515   */\n      eq\n        /* \"#utility.yul\":470:533   */\n      tag_73\n      jumpi\n        /* \"#utility.yul\":529:530   */\n      0x00\n        /* \"#utility.yul\":526:527   */\n      0x00\n        /* \"#utility.yul\":519:531   */\n      revert\n        /* \"#utility.yul\":470:533   */\n    tag_73:\n        /* \"#utility.yul\":417:539   */\n      pop\n      jump\t// out\n        /* \"#utility.yul\":545:684   */\n    tag_35:\n        /* \"#utility.yul\":591:596   */\n      0x00\n        /* \"#utility.yul\":629:635   */\n      dup2\n        /* \"#utility.yul\":616:636   */\n      calldataload\n        /* \"#utility.yul\":607:636   */\n      swap1\n      pop\n        /* \"#utility.yul\":645:678   */\n      tag_75\n        /* \"#utility.yul\":672:677   */\n      dup2\n        /* \"#utility.yul\":645:678   */\n      tag_34\n      jump\t// in\n    tag_75:\n        /* \"#utility.yul\":545:684   */\n      swap3\n      swap2\n      pop\n      pop\n      jump\t// out\n        /* \"#utility.yul\":690:1019   */\n    tag_7:\n        /* \"#utility.yul\":749:755   */\n      0x00\n        /* \"#utility.yul\":798:800   */\n      0x20\n        /* \"#utility.yul\":786:795   */\n      dup3\n        /* \"#utility.yul\":777:784   */\n      dup5\n        /* \"#utility.yul\":773:796   */\n      sub\n        /* \"#utility.yul\":769:801   */\n      slt\n        /* \"#utility.yul\":766:885   */\n      iszero\n      tag_77\n      jumpi\n        /* \"#utility.yul\":804:883   */\n      tag_78\n      tag_31\n      jump\t// in\n    tag_78:\n        /* \"#utility.yul\":766:885   */\n    tag_77:\n        /* \"#utility.yul\":924:925   */\n      0x00\n        /* \"#utility.yul\":949:1002   */\n      tag_79\n        /* \"#utility.yul\":994:1001   */\n      dup5\n        /* \"#utility.yul\":985:991   */\n      dup3\n        /* \"#utility.yul\":974:983   */\n      dup6\n        /* \"#utility.yul\":970:992   */\n      add\n        /* \"#utility.yul\":949:1002   */\n      tag_35\n      jump\t// in\n    tag_79:\n        /* \"#utility.yul\":939:1002   */\n      swap2\n      pop\n        /* \"#utility.yul\":895:1012   */\n      pop\n        /* \"#utility.yul\":690:1019   */\n      swap3\n      swap2\n      pop\n      pop\n      jump\t// out\n        /* \"#utility.yul\":1025:1124   */\n    tag_36:\n        /* \"#utility.yul\":1077:1083   */\n      0x00\n        /* \"#utility.yul\":1111:1116   */\n      dup2\n        /* \"#utility.yul\":1105:1117   */\n      mload\n        /* \"#utility.yul\":1095:1117   */\n      swap1\n      pop\n        /* \"#utility.yul\":1025:1124   */\n      swap2\n      swap1\n      pop\n      jump\t// out\n        /* \"#utility.yul\":1130:1299   */\n    tag_37:\n        /* \"#utility.yul\":1214:1225   */\n      0x00\n        /* \"#utility.yul\":1248:1254   */\n      dup3\n        /* \"#utility.yul\":1243:1246   */\n      dup3\n        /* \"#utility.yul\":1236:1255   */\n      mstore\n        /* \"#utility.yul\":1288:1292   */\n      0x20\n        /* \"#utility.yul\":1283:1286   */\n      dup3\n        /* \"#utility.yul\":1279:1293   */\n      add\n        /* \"#utility.yul\":1264:1293   */\n      swap1\n      pop\n        /* \"#utility.yul\":1130:1299   */\n      swap3\n      swap2\n      pop\n      pop\n      jump\t// out\n        /* \"#utility.yul\":1305:1444   */\n    tag_38:\n        /* \"#utility.yul\":1394:1400   */\n      dup3\n        /* \"#utility.yul\":1389:1392   */\n      dup2\n        /* \"#utility.yul\":1384:1387   */\n      dup4\n        /* \"#utility.yul\":1378:1401   */\n      mcopy\n        /* \"#utility.yul\":1435:1436   */\n      0x00\n        /* \"#utility.yul\":1426:1432   */\n      dup4\n        /* \"#utility.yul\":1421:1424   */\n      dup4\n        /* \"#utility.yul\":1417:1433   */\n      add\n        /* \"#utility.yul\":1410:1437   */\n      mstore\n        /* \"#utility.yul\":1305:1444   */\n      pop\n      pop\n      pop\n      jump\t// out\n        /* \"#utility.yul\":1450:1552   */\n    tag_39:\n        /* \"#utility.yul\":1491:1497   */\n      0x00\n        /* \"#utility.yul\":1542:1544   */\n      0x1f\n        /* \"#utility.yul\":1538:1545   */\n      not\n        /* \"#utility.yul\":1533:1535   */\n      0x1f\n        /* \"#utility.yul\":1526:1531   */\n      dup4\n        /* \"#utility.yul\":1522:1536   */\n      add\n        /* \"#utility.yul\":1518:1546   */\n      and\n        /* \"#utility.yul\":1508:1546   */\n      swap1\n      pop\n        /* \"#utility.yul\":1450:1552   */\n      swap2\n      swap1\n      pop\n      jump\t// out\n        /* \"#utility.yul\":1558:1935   */\n    tag_40:\n        /* \"#utility.yul\":1646:1649   */\n      0x00\n        /* \"#utility.yul\":1674:1713   */\n      tag_85\n        /* \"#utility.yul\":1707:1712   */\n      dup3\n        /* \"#utility.yul\":1674:1713   */\n      tag_36\n      jump\t// in\n    tag_85:\n        /* \"#utility.yul\":1729:1800   */\n      tag_86\n        /* \"#utility.yul\":1793:1799   */\n      dup2\n        /* \"#utility.yul\":1788:1791   */\n      dup6\n        /* \"#utility.yul\":1729:1800   */\n      tag_37\n      jump\t// in\n    tag_86:\n        /* \"#utility.yul\":1722:1800   */\n      swap4\n      pop\n        /* \"#utility.yul\":1809:1874   */\n      tag_87\n        /* \"#utility.yul\":1867:1873   */\n      dup2\n        /* \"#utility.yul\":1862:1865   */\n      dup6\n        /* \"#utility.yul\":1855:1859   */\n      0x20\n        /* \"#utility.yul\":1848:1853   */\n      dup7\n        /* \"#utility.yul\":1844:1860   */\n      add\n        /* \"#utility.yul\":1809:1874   */\n      tag_38\n      jump\t// in\n    tag_87:\n        /* \"#utility.yul\":1899:1928   */\n      tag_88\n        /* \"#utility.yul\":1921:1927   */\n      dup2\n        /* \"#utility.yul\":1899:1928   */\n      tag_39\n      jump\t// in\n    tag_88:\n        /* \"#utility.yul\":1894:1897   */\n      dup5\n        /* \"#utility.yul\":1890:1929   */\n      add\n        /* \"#utility.yul\":1883:1929   */\n      swap2\n      pop\n        /* \"#utility.yul\":1650:1935   */\n      pop\n        /* \"#utility.yul\":1558:1935   */\n      swap3\n      swap2\n      pop\n      pop\n      jump\t// out\n        /* \"#utility.yul\":1941:2455   */\n    tag_10:\n        /* \"#utility.yul\":2102:2106   */\n      0x00\n        /* \"#utility.yul\":2140:2142   */\n      0x40\n        /* \"#utility.yul\":2129:2138   */\n      dup3\n        /* \"#utility.yul\":2125:2143   */\n      add\n        /* \"#utility.yul\":2117:2143   */\n      swap1\n      pop\n        /* \"#utility.yul\":2189:2198   */\n      dup2\n        /* \"#utility.yul\":2183:2187   */\n      dup2\n        /* \"#utility.yul\":2179:2199   */\n      sub\n        /* \"#utility.yul\":2175:2176   */\n      0x00\n        /* \"#utility.yul\":2164:2173   */\n      dup4\n        /* \"#utility.yul\":2160:2177   */\n      add\n        /* \"#utility.yul\":2153:2200   */\n      mstore\n        /* \"#utility.yul\":2217:2295   */\n      tag_90\n        /* \"#utility.yul\":2290:2294   */\n      dup2\n        /* \"#utility.yul\":2281:2287   */\n      dup6\n        /* \"#utility.yul\":2217:2295   */\n      tag_40\n      jump\t// in\n    tag_90:\n        /* \"#utility.yul\":2209:2295   */\n      swap1\n      pop\n        /* \"#utility.yul\":2342:2351   */\n      dup2\n        /* \"#utility.yul\":2336:2340   */\n      dup2\n        /* \"#utility.yul\":2332:2352   */\n      sub\n        /* \"#utility.yul\":2327:2329   */\n      0x20\n        /* \"#utility.yul\":2316:2325   */\n      dup4\n        /* \"#utility.yul\":2312:2330   */\n      add\n        /* \"#utility.yul\":2305:2353   */\n      mstore\n        /* \"#utility.yul\":2370:2448   */\n      tag_91\n        /* \"#utility.yul\":2443:2447   */\n      dup2\n        /* \"#utility.yul\":2434:2440   */\n      dup5\n        /* \"#utility.yul\":2370:2448   */\n      tag_40\n      jump\t// in\n    tag_91:\n        /* \"#utility.yul\":2362:2448   */\n      swap1\n      pop\n        /* \"#utility.yul\":1941:2455   */\n      swap4\n      swap3\n      pop\n      pop\n      pop\n      jump\t// out\n        /* \"#utility.yul\":2461:2578   */\n    tag_41:\n        /* \"#utility.yul\":2570:2571   */\n      0x00\n        /* \"#utility.yul\":2567:2568   */\n      0x00\n        /* \"#utility.yul\":2560:2572   */\n      revert\n        /* \"#utility.yul\":2584:2701   */\n    tag_42:\n        /* \"#utility.yul\":2693:2694   */\n      0x00\n        /* \"#utility.yul\":2690:2691   */\n      0x00\n        /* \"#utility.yul\":2683:2695   */\n      revert\n        /* \"#utility.yul\":2707:2887   */\n    tag_43:\n        /* \"#utility.yul\":2755:2832   */\n      0x4e487b7100000000000000000000000000000000000000000000000000000000\n        /* \"#utility.yul\":2752:2753   */\n      0x00\n        /* \"#utility.yul\":2745:2833   */\n      mstore\n        /* \"#utility.yul\":2852:2856   */\n      0x41\n        /* \"#utility.yul\":2849:2850   */\n      0x04\n        /* \"#utility.yul\":2842:2857   */\n      mstore\n        /* \"#utility.yul\":2876:2880   */\n      0x24\n        /* \"#utility.yul\":2873:2874   */\n      0x00\n        /* \"#utility.yul\":2866:2881   */\n      revert\n        /* \"#utility.yul\":2893:3174   */\n    tag_44:\n        /* \"#utility.yul\":2976:3003   */\n      tag_96\n        /* \"#utility.yul\":2998:3002   */\n      dup3\n        /* \"#utility.yul\":2976:3003   */\n      tag_39\n      jump\t// in\n    tag_96:\n        /* \"#utility.yul\":2968:2974   */\n      dup2\n        /* \"#utility.yul\":2964:3004   */\n      add\n        /* \"#utility.yul\":3106:3112   */\n      dup2\n        /* \"#utility.yul\":3094:3104   */\n      dup2\n        /* \"#utility.yul\":3091:3113   */\n      lt\n        /* \"#utility.yul\":3070:3088   */\n      0xffffffffffffffff\n        /* \"#utility.yul\":3058:3068   */\n      dup3\n        /* \"#utility.yul\":3055:3089   */\n      gt\n        /* \"#utility.yul\":3052:3114   */\n      or\n        /* \"#utility.yul\":3049:3137   */\n      iszero\n      tag_97\n      jumpi\n        /* \"#utility.yul\":3117:3135   */\n      tag_98\n      tag_43\n      jump\t// in\n    tag_98:\n        /* \"#utility.yul\":3049:3137   */\n    tag_97:\n        /* \"#utility.yul\":3157:3167   */\n      dup1\n        /* \"#utility.yul\":3153:3155   */\n      0x40\n        /* \"#utility.yul\":3146:3168   */\n      mstore\n        /* \"#utility.yul\":2936:3174   */\n      pop\n        /* \"#utility.yul\":2893:3174   */\n      pop\n      pop\n      jump\t// out\n        /* \"#utility.yul\":3180:3309   */\n    tag_45:\n        /* \"#utility.yul\":3214:3220   */\n      0x00\n        /* \"#utility.yul\":3241:3261   */\n      tag_100\n      tag_30\n      jump\t// in\n    tag_100:\n        /* \"#utility.yul\":3231:3261   */\n      swap1\n      pop\n        /* \"#utility.yul\":3270:3303   */\n      tag_101\n        /* \"#utility.yul\":3298:3302   */\n      dup3\n        /* \"#utility.yul\":3290:3296   */\n      dup3\n        /* \"#utility.yul\":3270:3303   */\n      tag_44\n      jump\t// in\n    tag_101:\n        /* \"#utility.yul\":3180:3309   */\n      swap2\n      swap1\n      pop\n      jump\t// out\n        /* \"#utility.yul\":3315:3623   */\n    tag_46:\n        /* \"#utility.yul\":3377:3381   */\n      0x00\n        /* \"#utility.yul\":3467:3485   */\n      0xffffffffffffffff\n        /* \"#utility.yul\":3459:3465   */\n      dup3\n        /* \"#utility.yul\":3456:3486   */\n      gt\n        /* \"#utility.yul\":3453:3509   */\n      iszero\n      tag_103\n      jumpi\n        /* \"#utility.yul\":3489:3507   */\n      tag_104\n      tag_43\n      jump\t// in\n    tag_104:\n        /* \"#utility.yul\":3453:3509   */\n    tag_103:\n        /* \"#utility.yul\":3527:3556   */\n      tag_105\n        /* \"#utility.yul\":3549:3555   */\n      dup3\n        /* \"#utility.yul\":3527:3556   */\n      tag_39\n      jump\t// in\n    tag_105:\n        /* \"#utility.yul\":3519:3556   */\n      swap1\n      pop\n        /* \"#utility.yul\":3611:3615   */\n      0x20\n        /* \"#utility.yul\":3605:3609   */\n      dup2\n        /* \"#utility.yul\":3601:3616   */\n      add\n        /* \"#utility.yul\":3593:3616   */\n      swap1\n      pop\n        /* \"#utility.yul\":3315:3623   */\n      swap2\n      swap1\n      pop\n      jump\t// out\n        /* \"#utility.yul\":3629:3777   */\n    tag_47:\n        /* \"#utility.yul\":3727:3733   */\n      dup3\n        /* \"#utility.yul\":3722:3725   */\n      dup2\n        /* \"#utility.yul\":3717:3720   */\n      dup4\n        /* \"#utility.yul\":3704:3734   */\n      calldatacopy\n        /* \"#utility.yul\":3768:3769   */\n      0x00\n        /* \"#utility.yul\":3759:3765   */\n      dup4\n        /* \"#utility.yul\":3754:3757   */\n      dup4\n        /* \"#utility.yul\":3750:3766   */\n      add\n        /* \"#utility.yul\":3743:3770   */\n      mstore\n        /* \"#utility.yul\":3629:3777   */\n      pop\n      pop\n      pop\n      jump\t// out\n        /* \"#utility.yul\":3783:4208   */\n    tag_48:\n        /* \"#utility.yul\":3861:3866   */\n      0x00\n        /* \"#utility.yul\":3886:3952   */\n      tag_108\n        /* \"#utility.yul\":3902:3951   */\n      tag_109\n        /* \"#utility.yul\":3944:3950   */\n      dup5\n        /* \"#utility.yul\":3902:3951   */\n      tag_46\n      jump\t// in\n    tag_109:\n        /* \"#utility.yul\":3886:3952   */\n      tag_45\n      jump\t// in\n    tag_108:\n        /* \"#utility.yul\":3877:3952   */\n      swap1\n      pop\n        /* \"#utility.yul\":3975:3981   */\n      dup3\n        /* \"#utility.yul\":3968:3973   */\n      dup2\n        /* \"#utility.yul\":3961:3982   */\n      mstore\n        /* \"#utility.yul\":4013:4017   */\n      0x20\n        /* \"#utility.yul\":4006:4011   */\n      dup2\n        /* \"#utility.yul\":4002:4018   */\n      add\n        /* \"#utility.yul\":4051:4054   */\n      dup5\n        /* \"#utility.yul\":4042:4048   */\n      dup5\n        /* \"#utility.yul\":4037:4040   */\n      dup5\n        /* \"#utility.yul\":4033:4049   */\n      add\n        /* \"#utility.yul\":4030:4055   */\n      gt\n        /* \"#utility.yul\":4027:4139   */\n      iszero\n      tag_110\n      jumpi\n        /* \"#utility.yul\":4058:4137   */\n      tag_111\n      tag_42\n      jump\t// in\n    tag_111:\n        /* \"#utility.yul\":4027:4139   */\n    tag_110:\n        /* \"#utility.yul\":4148:4202   */\n      tag_112\n        /* \"#utility.yul\":4195:4201   */\n      dup5\n        /* \"#utility.yul\":4190:4193   */\n      dup3\n        /* \"#utility.yul\":4185:4188   */\n      dup6\n        /* \"#utility.yul\":4148:4202   */\n      tag_47\n      jump\t// in\n    tag_112:\n        /* \"#utility.yul\":3867:4208   */\n      pop\n        /* \"#utility.yul\":3783:4208   */\n      swap4\n      swap3\n      pop\n      pop\n      pop\n      jump\t// out\n        /* \"#utility.yul\":4228:4568   */\n    tag_49:\n        /* \"#utility.yul\":4284:4289   */\n      0x00\n        /* \"#utility.yul\":4333:4336   */\n      dup3\n        /* \"#utility.yul\":4326:4330   */\n      0x1f\n        /* \"#utility.yul\":4318:4324   */\n      dup4\n        /* \"#utility.yul\":4314:4331   */\n      add\n        /* \"#utility.yul\":4310:4337   */\n      slt\n        /* \"#utility.yul\":4300:4422   */\n      tag_114\n      jumpi\n        /* \"#utility.yul\":4341:4420   */\n      tag_115\n      tag_41\n      jump\t// in\n    tag_115:\n        /* \"#utility.yul\":4300:4422   */\n    tag_114:\n        /* \"#utility.yul\":4458:4464   */\n      dup2\n        /* \"#utility.yul\":4445:4465   */\n      calldataload\n        /* \"#utility.yul\":4483:4562   */\n      tag_116\n        /* \"#utility.yul\":4558:4561   */\n      dup5\n        /* \"#utility.yul\":4550:4556   */\n      dup3\n        /* \"#utility.yul\":4543:4547   */\n      0x20\n        /* \"#utility.yul\":4535:4541   */\n      dup7\n        /* \"#utility.yul\":4531:4548   */\n      add\n        /* \"#utility.yul\":4483:4562   */\n      tag_48\n      jump\t// in\n    tag_116:\n        /* \"#utility.yul\":4474:4562   */\n      swap2\n      pop\n        /* \"#utility.yul\":4290:4568   */\n      pop\n        /* \"#utility.yul\":4228:4568   */\n      swap3\n      swap2\n      pop\n      pop\n      jump\t// out\n        /* \"#utility.yul\":4574:5553   */\n    tag_13:\n        /* \"#utility.yul\":4671:4677   */\n      0x00\n        /* \"#utility.yul\":4679:4685   */\n      0x00\n        /* \"#utility.yul\":4687:4693   */\n      0x00\n        /* \"#utility.yul\":4736:4738   */\n      0x60\n        /* \"#utility.yul\":4724:4733   */\n      dup5\n        /* \"#utility.yul\":4715:4722   */\n      dup7\n        /* \"#utility.yul\":4711:4734   */\n      sub\n        /* \"#utility.yul\":4707:4739   */\n      slt\n        /* \"#utility.yul\":4704:4823   */\n      iszero\n      tag_118\n      jumpi\n        /* \"#utility.yul\":4742:4821   */\n      tag_119\n      tag_31\n      jump\t// in\n    tag_119:\n        /* \"#utility.yul\":4704:4823   */\n    tag_118:\n        /* \"#utility.yul\":4890:4891   */\n      0x00\n        /* \"#utility.yul\":4879:4888   */\n      dup5\n        /* \"#utility.yul\":4875:4892   */\n      add\n        /* \"#utility.yul\":4862:4893   */\n      calldataload\n        /* \"#utility.yul\":4920:4938   */\n      0xffffffffffffffff\n        /* \"#utility.yul\":4912:4918   */\n      dup2\n        /* \"#utility.yul\":4909:4939   */\n      gt\n        /* \"#utility.yul\":4906:5023   */\n      iszero\n      tag_120\n      jumpi\n        /* \"#utility.yul\":4942:5021   */\n      tag_121\n      tag_32\n      jump\t// in\n    tag_121:\n        /* \"#utility.yul\":4906:5023   */\n    tag_120:\n        /* \"#utility.yul\":5047:5110   */\n      tag_122\n        /* \"#utility.yul\":5102:5109   */\n      dup7\n        /* \"#utility.yul\":5093:5099   */\n      dup3\n        /* \"#utility.yul\":5082:5091   */\n      dup8\n        /* \"#utility.yul\":5078:5100   */\n      add\n        /* \"#utility.yul\":5047:5110   */\n      tag_49\n      jump\t// in\n    tag_122:\n        /* \"#utility.yul\":5037:5110   */\n      swap4\n      pop\n        /* \"#utility.yul\":4833:5120   */\n      pop\n        /* \"#utility.yul\":5187:5189   */\n      0x20\n        /* \"#utility.yul\":5176:5185   */\n      dup5\n        /* \"#utility.yul\":5172:5190   */\n      add\n        /* \"#utility.yul\":5159:5191   */\n      calldataload\n        /* \"#utility.yul\":5218:5236   */\n      0xffffffffffffffff\n        /* \"#utility.yul\":5210:5216   */\n      dup2\n        /* \"#utility.yul\":5207:5237   */\n      gt\n        /* \"#utility.yul\":5204:5321   */\n      iszero\n      tag_123\n      jumpi\n        /* \"#utility.yul\":5240:5319   */\n      tag_124\n      tag_32\n      jump\t// in\n    tag_124:\n        /* \"#utility.yul\":5204:5321   */\n    tag_123:\n        /* \"#utility.yul\":5345:5408   */\n      tag_125\n        /* \"#utility.yul\":5400:5407   */\n      dup7\n        /* \"#utility.yul\":5391:5397   */\n      dup3\n        /* \"#utility.yul\":5380:5389   */\n      dup8\n        /* \"#utility.yul\":5376:5398   */\n      add\n        /* \"#utility.yul\":5345:5408   */\n      tag_49\n      jump\t// in\n    tag_125:\n        /* \"#utility.yul\":5335:5408   */\n      swap3\n      pop\n        /* \"#utility.yul\":5130:5418   */\n      pop\n        /* \"#utility.yul\":5457:5459   */\n      0x40\n        /* \"#utility.yul\":5483:5536   */\n      tag_126\n        /* \"#utility.yul\":5528:5535   */\n      dup7\n        /* \"#utility.yul\":5519:5525   */\n      dup3\n        /* \"#utility.yul\":5508:5517   */\n      dup8\n        /* \"#utility.yul\":5504:5526   */\n      add\n        /* \"#utility.yul\":5483:5536   */\n      tag_35\n      jump\t// in\n    tag_126:\n        /* \"#utility.yul\":5473:5536   */\n      swap2\n      pop\n        /* \"#utility.yul\":5428:5546   */\n      pop\n        /* \"#utility.yul\":4574:5553   */\n      swap3\n      pop\n      swap3\n      pop\n      swap3\n      jump\t// out\n        /* \"#utility.yul\":5559:5739   */\n    tag_50:\n        /* \"#utility.yul\":5607:5684   */\n      0x4e487b7100000000000000000000000000000000000000000000000000000000\n        /* \"#utility.yul\":5604:5605   */\n      0x00\n        /* \"#utility.yul\":5597:5685   */\n      mstore\n        /* \"#utility.yul\":5704:5708   */\n      0x22\n        /* \"#utility.yul\":5701:5702   */\n      0x04\n        /* \"#utility.yul\":5694:5709   */\n      mstore\n        /* \"#utility.yul\":5728:5732   */\n      0x24\n        /* \"#utility.yul\":5725:5726   */\n      0x00\n        /* \"#utility.yul\":5718:5733   */\n      revert\n        /* \"#utility.yul\":5745:6065   */\n    tag_16:\n        /* \"#utility.yul\":5789:5795   */\n      0x00\n        /* \"#utility.yul\":5826:5827   */\n      0x02\n        /* \"#utility.yul\":5820:5824   */\n      dup3\n        /* \"#utility.yul\":5816:5828   */\n      div\n        /* \"#utility.yul\":5806:5828   */\n      swap1\n      pop\n        /* \"#utility.yul\":5873:5874   */\n      0x01\n        /* \"#utility.yul\":5867:5871   */\n      dup3\n        /* \"#utility.yul\":5863:5875   */\n      and\n        /* \"#utility.yul\":5894:5912   */\n      dup1\n        /* \"#utility.yul\":5884:5965   */\n      tag_129\n      jumpi\n        /* \"#utility.yul\":5950:5954   */\n      0x7f\n        /* \"#utility.yul\":5942:5948   */\n      dup3\n        /* \"#utility.yul\":5938:5955   */\n      and\n        /* \"#utility.yul\":5928:5955   */\n      swap2\n      pop\n        /* \"#utility.yul\":5884:5965   */\n    tag_129:\n        /* \"#utility.yul\":6012:6014   */\n      0x20\n        /* \"#utility.yul\":6004:6010   */\n      dup3\n        /* \"#utility.yul\":6001:6015   */\n      lt\n        /* \"#utility.yul\":5981:5999   */\n      dup2\n        /* \"#utility.yul\":5978:6016   */\n      sub\n        /* \"#utility.yul\":5975:6059   */\n      tag_130\n      jumpi\n        /* \"#utility.yul\":6031:6049   */\n      tag_131\n      tag_50\n      jump\t// in\n    tag_131:\n        /* \"#utility.yul\":5975:6059   */\n    tag_130:\n        /* \"#utility.yul\":5796:6065   */\n      pop\n        /* \"#utility.yul\":5745:6065   */\n      swap2\n      swap1\n      pop\n      jump\t// out\n        /* \"#utility.yul\":6071:6212   */\n    tag_51:\n        /* \"#utility.yul\":6120:6124   */\n      0x00\n        /* \"#utility.yul\":6143:6146   */\n      dup2\n        /* \"#utility.yul\":6135:6146   */\n      swap1\n      pop\n        /* \"#utility.yul\":6166:6169   */\n      dup2\n        /* \"#utility.yul\":6163:6164   */\n      0x00\n        /* \"#utility.yul\":6156:6170   */\n      mstore\n        /* \"#utility.yul\":6200:6204   */\n      0x20\n        /* \"#utility.yul\":6197:6198   */\n      0x00\n        /* \"#utility.yul\":6187:6205   */\n      keccak256\n        /* \"#utility.yul\":6179:6205   */\n      swap1\n      pop\n        /* \"#utility.yul\":6071:6212   */\n      swap2\n      swap1\n      pop\n      jump\t// out\n        /* \"#utility.yul\":6218:6311   */\n    tag_52:\n        /* \"#utility.yul\":6255:6261   */\n      0x00\n        /* \"#utility.yul\":6302:6304   */\n      0x20\n        /* \"#utility.yul\":6297:6299   */\n      0x1f\n        /* \"#utility.yul\":6290:6295   */\n      dup4\n        /* \"#utility.yul\":6286:6300   */\n      add\n        /* \"#utility.yul\":6282:6305   */\n      div\n        /* \"#utility.yul\":6272:6305   */\n      swap1\n      pop\n        /* \"#utility.yul\":6218:6311   */\n      swap2\n      swap1\n      pop\n      jump\t// out\n        /* \"#utility.yul\":6317:6424   */\n    tag_53:\n        /* \"#utility.yul\":6361:6369   */\n      0x00\n        /* \"#utility.yul\":6411:6416   */\n      dup3\n        /* \"#utility.yul\":6405:6409   */\n      dup3\n        /* \"#utility.yul\":6401:6417   */\n      shl\n        /* \"#utility.yul\":6380:6417   */\n      swap1\n      pop\n        /* \"#utility.yul\":6317:6424   */\n      swap3\n      swap2\n      pop\n      pop\n      jump\t// out\n        /* \"#utility.yul\":6430:6823   */\n    tag_54:\n        /* \"#utility.yul\":6499:6505   */\n      0x00\n        /* \"#utility.yul\":6549:6550   */\n      0x08\n        /* \"#utility.yul\":6537:6547   */\n      dup4\n        /* \"#utility.yul\":6533:6551   */\n      mul\n        /* \"#utility.yul\":6572:6669   */\n      tag_136\n        /* \"#utility.yul\":6602:6668   */\n      0xffffffffffffffffffffffffffffffffffffffffffffffffffffffffffffffff\n        /* \"#utility.yul\":6591:6600   */\n      dup3\n        /* \"#utility.yul\":6572:6669   */\n      tag_53\n      jump\t// in\n    tag_136:\n        /* \"#utility.yul\":6690:6729   */\n      tag_137\n        /* \"#utility.yul\":6720:6728   */\n      dup7\n        /* \"#utility.yul\":6709:6718   */\n      dup4\n        /* \"#utility.yul\":6690:6729   */\n      tag_53\n      jump\t// in\n    tag_137:\n        /* \"#utility.yul\":6678:6729   */\n      swap6\n      pop\n        /* \"#utility.yul\":6762:6766   */\n      dup1\n        /* \"#utility.yul\":6758:6767   */\n      not\n        /* \"#utility.yul\":6751:6756   */\n      dup5\n        /* \"#utility.yul\":6747:6768   */\n      and\n        /* \"#utility.yul\":6738:6768   */\n      swap4\n      pop\n        /* \"#utility.yul\":6811:6815   */\n      dup1\n        /* \"#utility.yul\":6801:6809   */\n      dup7\n        /* \"#utility.yul\":6797:6816   */\n      and\n        /* \"#utility.yul\":6790:6795   */\n      dup5\n        /* \"#utility.yul\":6787:6817   */\n      or\n        /* \"#utility.yul\":6777:6817   */\n      swap3\n      pop\n        /* \"#utility.yul\":6506:6823   */\n      pop\n      pop\n        /* \"#utility.yul\":6430:6823   */\n      swap4\n      swap3\n      pop\n      pop\n      pop\n      jump\t// out\n        /* \"#utility.yul\":6829:6889   */\n    tag_55:\n        /* \"#utility.yul\":6857:6860   */\n      0x00\n        /* \"#utility.yul\":6878:6883   */\n      dup2\n        /* \"#utility.yul\":6871:6883   */\n      swap1\n      pop\n        /* \"#utility.yul\":6829:6889   */\n      swap2\n      swap1\n      pop\n      jump\t// out\n        /* \"#utility.yul\":6895:7037   */\n    tag_56:\n        /* \"#utility.yul\":6945:6954   */\n      0x00\n        /* \"#utility.yul\":6978:7031   */\n      tag_140\n        /* \"#utility.yul\":6996:7030   */\n      tag_141\n        /* \"#utility.yul\":7005:7029   */\n      tag_142\n        /* \"#utility.yul\":7023:7028   */\n      dup5\n        /* \"#utility.yul\":7005:7029   */\n      tag_33\n      jump\t// in\n    tag_142:\n        /* \"#utility.yul\":6996:7030   */\n      tag_55\n      jump\t// in\n    tag_141:\n        /* \"#utility.yul\":6978:7031   */\n      tag_33\n      jump\t// in\n    tag_140:\n        /* \"#utility.yul\":6965:7031   */\n      swap1\n      pop\n        /* \"#utility.yul\":6895:7037   */\n      swap2\n      swap1\n      pop\n      jump\t// out\n        /* \"#utility.yul\":7043:7118   */\n    tag_57:\n        /* \"#utility.yul\":7086:7089   */\n      0x00\n        /* \"#utility.yul\":7107:7112   */\n      dup2\n        /* \"#utility.yul\":7100:7112   */\n      swap1\n      pop\n        /* \"#utility.yul\":7043:7118   */\n      swap2\n      swap1\n      pop\n      jump\t// out\n        /* \"#utility.yul\":7124:7393   */\n    tag_58:\n        /* \"#utility.yul\":7234:7273   */\n      tag_145\n        /* \"#utility.yul\":7265:7272   */\n      dup4\n        /* \"#utility.yul\":7234:7273   */\n      tag_56\n      jump\t// in\n    tag_145:\n        /* \"#utility.yul\":7295:7386   */\n      tag_146\n        /* \"#utility.yul\":7344:7385   */\n      tag_147\n        /* \"#utility.yul\":7368:7384   */\n      dup3\n        /* \"#utility.yul\":7344:7385   */\n      tag_57\n      jump\t// in\n    tag_147:\n        /* \"#utility.yul\":7336:7342   */\n      dup5\n        /* \"#utility.yul\":7329:7333   */\n      dup5\n        /* \"#utility.yul\":7323:7334   */\n      sload\n        /* \"#utility.yul\":7295:7386   */\n      tag_54\n      jump\t// in\n    tag_146:\n        /* \"#utility.yul\":7289:7293   */\n      dup3\n        /* \"#utility.yul\":7282:7387   */\n      sstore\n        /* \"#utility.yul\":7200:7393   */\n      pop\n        /* \"#utility.yul\":7124:7393   */\n      pop\n      pop\n      pop\n      jump\t// out\n        /* \"#utility.yul\":7399:7472   */\n    tag_59:\n        /* \"#utility.yul\":7444:7447   */\n      0x00\n        /* \"#utility.yul\":7465:7466   */\n      0x00\n        /* \"#utility.yul\":7458:7466   */\n      swap1\n      pop\n        /* \"#utility.yul\":7399:7472   */\n      swap1\n      jump\t// out\n        /* \"#utility.yul\":7478:7667   */\n    tag_60:\n        /* \"#utility.yul\":7555:7587   */\n      tag_150\n      tag_59\n      jump\t// in\n    tag_150:\n        /* \"#utility.yul\":7596:7661   */\n      tag_151\n        /* \"#utility.yul\":7654:7660   */\n      dup2\n        /* \"#utility.yul\":7646:7652   */\n      dup5\n        /* \"#utility.yul\":7640:7644   */\n      dup5\n        /* \"#utility.yul\":7596:7661   */\n      tag_58\n      jump\t// in\n    tag_151:\n        /* \"#utility.yul\":7531:7667   */\n      pop\n        /* \"#utility.yul\":7478:7667   */\n      pop\n      pop\n      jump\t// out\n        /* \"#utility.yul\":7673:7859   */\n    tag_61:\n        /* \"#utility.yul\":7733:7853   */\n    tag_153:\n        /* \"#utility.yul\":7750:7753   */\n      dup2\n        /* \"#utility.yul\":7743:7748   */\n      dup2\n        /* \"#utility.yul\":7740:7754   */\n      lt\n        /* \"#utility.yul\":7733:7853   */\n      iszero\n      tag_155\n      jumpi\n        /* \"#utility.yul\":7804:7843   */\n      tag_156\n        /* \"#utility.yul\":7841:7842   */\n      0x00\n        /* \"#utility.yul\":7834:7839   */\n      dup3\n        /* \"#utility.yul\":7804:7843   */\n      tag_60\n      jump\t// in\n    tag_156:\n        /* \"#utility.yul\":7777:7778   */\n      0x01\n        /* \"#utility.yul\":7770:7775   */\n      dup2\n        /* \"#utility.yul\":7766:7779   */\n      add\n        /* \"#utility.yul\":7757:7779   */\n      swap1\n      pop\n        /* \"#utility.yul\":7733:7853   */\n      jump(tag_153)\n    tag_155:\n        /* \"#utility.yul\":7673:7859   */\n      pop\n      pop\n      jump\t// out\n        /* \"#utility.yul\":7865:8408   */\n    tag_62:\n        /* \"#utility.yul\":7966:7968   */\n      0x1f\n        /* \"#utility.yul\":7961:7964   */\n      dup3\n        /* \"#utility.yul\":7958:7969   */\n      gt\n        /* \"#utility.yul\":7955:8401   */\n      iszero\n      tag_158\n      jumpi\n        /* \"#utility.yul\":8000:8038   */\n      tag_159\n        /* \"#utility.yul\":8032:8037   */\n      dup2\n        /* \"#utility.yul\":8000:8038   */\n      tag_51\n      jump\t// in\n    tag_159:\n        /* \"#utility.yul\":8084:8113   */\n      tag_160\n        /* \"#utility.yul\":8102:8112   */\n      dup5\n        /* \"#utility.yul\":8084:8113   */\n      tag_52\n      jump\t// in\n    tag_160:\n        /* \"#utility.yul\":8074:8082   */\n      dup2\n        /* \"#utility.yul\":8070:8114   */\n      add\n        /* \"#utility.yul\":8267:8269   */\n      0x20\n        /* \"#utility.yul\":8255:8265   */\n      dup6\n        /* \"#utility.yul\":8252:8270   */\n      lt\n        /* \"#utility.yul\":8249:8298   */\n      iszero\n      tag_161\n      jumpi\n        /* \"#utility.yul\":8288:8296   */\n      dup2\n        /* \"#utility.yul\":8273:8296   */\n      swap1\n      pop\n        /* \"#utility.yul\":8249:8298   */\n    tag_161:\n        /* \"#utility.yul\":8311:8391   */\n      tag_162\n        /* \"#utility.yul\":8367:8389   */\n      tag_163\n        /* \"#utility.yul\":8385:8388   */\n      dup6\n        /* \"#utility.yul\":8367:8389   */\n      tag_52\n      jump\t// in\n    tag_163:\n        /* \"#utility.yul\":8357:8365   */\n      dup4\n        /* \"#utility.yul\":8353:8390   */\n      add\n        /* \"#utility.yul\":8340:8351   */\n      dup3\n        /* \"#utility.yul\":8311:8391   */\n      tag_61\n      jump\t// in\n    tag_162:\n        /* \"#utility.yul\":7970:8401   */\n      pop\n      pop\n        /* \"#utility.yul\":7955:8401   */\n    tag_158:\n        /* \"#utility.yul\":7865:8408   */\n      pop\n      pop\n      pop\n      jump\t// out\n        /* \"#utility.yul\":8414:8531   */\n    tag_63:\n        /* \"#utility.yul\":8468:8476   */\n      0x00\n        /* \"#utility.yul\":8518:8523   */\n      dup3\n        /* \"#utility.yul\":8512:8516   */\n      dup3\n        /* \"#utility.yul\":8508:8524   */\n      shr\n        /* \"#utility.yul\":8487:8524   */\n      swap1\n      pop\n        /* \"#utility.yul\":8414:8531   */\n      swap3\n      swap2\n      pop\n      pop\n      jump\t// out\n        /* \"#utility.yul\":8537:8706   */\n    tag_64:\n        /* \"#utility.yul\":8581:8587   */\n      0x00\n        /* \"#utility.yul\":8614:8665   */\n      tag_166\n        /* \"#utility.yul\":8662:8663   */\n      0x00\n        /* \"#utility.yul\":8658:8664   */\n      not\n        /* \"#utility.yul\":8650:8655   */\n      dup5\n        /* \"#utility.yul\":8647:8648   */\n      0x08\n        /* \"#utility.yul\":8643:8656   */\n      mul\n        /* \"#utility.yul\":8614:8665   */\n      tag_63\n      jump\t// in\n    tag_166:\n        /* \"#utility.yul\":8610:8666   */\n      not\n        /* \"#utility.yul\":8695:8699   */\n      dup1\n        /* \"#utility.yul\":8689:8693   */\n      dup4\n        /* \"#utility.yul\":8685:8700   */\n      and\n        /* \"#utility.yul\":8675:8700   */\n      swap2\n      pop\n        /* \"#utility.yul\":8588:8706   */\n      pop\n        /* \"#utility.yul\":8537:8706   */\n      swap3\n      swap2\n      pop\n      pop\n      jump\t// out\n        /* \"#utility.yul\":8711:9006   */\n    tag_65:\n        /* \"#utility.yul\":8787:8791   */\n      0x00\n        /* \"#utility.yul\":8933:8962   */\n      tag_168\n        /* \"#utility.yul\":8958:8961   */\n      dup4\n        /* \"#utility.yul\":8952:8956   */\n      dup4\n        /* \"#utility.yul\":8933:8962   */\n      tag_64\n      jump\t// in\n    tag_168:\n        /* \"#utility.yul\":8925:8962   */\n      swap2\n      pop\n        /* \"#utility.yul\":8995:8998   */\n      dup3\n        /* \"#utility.yul\":8992:8993   */\n      0x02\n        /* \"#utility.yul\":8988:8999   */\n      mul\n        /* \"#utility.yul\":8982:8986   */\n      dup3\n        /* \"#utility.yul\":8979:9000   */\n      or\n        /* \"#utility.yul\":8971:9000   */\n      swap1\n      pop\n        /* \"#utility.yul\":8711:9006   */\n      swap3\n      swap2\n      pop\n      pop\n      jump\t// out\n        /* \"#utility.yul\":9011:10406   */\n    tag_28:\n        /* \"#utility.yul\":9128:9165   */\n      tag_170\n        /* \"#utility.yul\":9161:9164   */\n      dup3\n        /* \"#utility.yul\":9128:9165   */\n      tag_36\n      jump\t// in\n    tag_170:\n        /* \"#utility.yul\":9230:9248   */\n      0xffffffffffffffff\n        /* \"#utility.yul\":9222:9228   */\n      dup2\n        /* \"#utility.yul\":9219:9249   */\n      gt\n        /* \"#utility.yul\":9216:9272   */\n      iszero\n      tag_171\n      jumpi\n        /* \"#utility.yul\":9252:9270   */\n      tag_172\n      tag_43\n      jump\t// in\n    tag_172:\n        /* \"#utility.yul\":9216:9272   */\n    tag_171:\n        /* \"#utility.yul\":9296:9334   */\n      tag_173\n        /* \"#utility.yul\":9328:9332   */\n      dup3\n        /* \"#utility.yul\":9322:9333   */\n      sload\n        /* \"#utility.yul\":9296:9334   */\n      tag_16\n      jump\t// in\n    tag_173:\n        /* \"#utility.yul\":9381:9448   */\n      tag_174\n        /* \"#utility.yul\":9441:9447   */\n      dup3\n        /* \"#utility.yul\":9433:9439   */\n      dup3\n        /* \"#utility.yul\":9427:9431   */\n      dup6\n        /* \"#utility.yul\":9381:9448   */\n      tag_62\n      jump\t// in\n    tag_174:\n        /* \"#utility.yul\":9475:9476   */\n      0x00\n        /* \"#utility.yul\":9499:9503   */\n      0x20\n        /* \"#utility.yul\":9486:9503   */\n      swap1\n      pop\n        /* \"#utility.yul\":9531:9533   */\n      0x1f\n        /* \"#utility.yul\":9523:9529   */\n      dup4\n        /* \"#utility.yul\":9520:9534   */\n      gt\n        /* \"#utility.yul\":9548:9549   */\n      0x01\n        /* \"#utility.yul\":9543:10161   */\n      dup2\n      eq\n      tag_176\n      jumpi\n        /* \"#utility.yul\":10205:10206   */\n      0x00\n        /* \"#utility.yul\":10222:10228   */\n      dup5\n        /* \"#utility.yul\":10219:10296   */\n      iszero\n      tag_177\n      jumpi\n        /* \"#utility.yul\":10271:10280   */\n      dup3\n        /* \"#utility.yul\":10266:10269   */\n      dup8\n        /* \"#utility.yul\":10262:10281   */\n      add\n        /* \"#utility.yul\":10256:10282   */\n      mload\n        /* \"#utility.yul\":10247:10282   */\n      swap1\n      pop\n        /* \"#utility.yul\":10219:10296   */\n    tag_177:\n        /* \"#utility.yul\":10322:10389   */\n      tag_178\n        /* \"#utility.yul\":10382:10388   */\n      dup6\n        /* \"#utility.yul\":10375:10380   */\n      dup3\n        /* \"#utility.yul\":10322:10389   */\n      tag_65\n      jump\t// in\n    tag_178:\n        /* \"#utility.yul\":10316:10320   */\n      dup7\n        /* \"#utility.yul\":10309:10390   */\n      sstore\n        /* \"#utility.yul\":10178:10400   */\n      pop\n        /* \"#utility.yul\":9513:10400   */\n      jump(tag_175)\n        /* \"#utility.yul\":9543:10161   */\n    tag_176:\n        /* \"#utility.yul\":9595:9599   */\n      0x1f\n        /* \"#utility.yul\":9591:9600   */\n      not\n        /* \"#utility.yul\":9583:9589   */\n      dup5\n        /* \"#utility.yul\":9579:9601   */\n      and\n        /* \"#utility.yul\":9629:9666   */\n      tag_179\n        /* \"#utility.yul\":9661:9665   */\n      dup7\n        /* \"#utility.yul\":9629:9666   */\n      tag_51\n      jump\t// in\n    tag_179:\n        /* \"#utility.yul\":9688:9689   */\n      0x00\n        /* \"#utility.yul\":9702:9910   */\n    tag_180:\n        /* \"#utility.yul\":9716:9723   */\n      dup3\n        /* \"#utility.yul\":9713:9714   */\n      dup2\n        /* \"#utility.yul\":9710:9724   */\n      lt\n        /* \"#utility.yul\":9702:9910   */\n      iszero\n      tag_182\n      jumpi\n        /* \"#utility.yul\":9795:9804   */\n      dup5\n        /* \"#utility.yul\":9790:9793   */\n      dup10\n        /* \"#utility.yul\":9786:9805   */\n      add\n        /* \"#utility.yul\":9780:9806   */\n      mload\n        /* \"#utility.yul\":9772:9778   */\n      dup3\n        /* \"#utility.yul\":9765:9807   */\n      sstore\n        /* \"#utility.yul\":9846:9847   */\n      0x01\n        /* \"#utility.yul\":9838:9844   */\n      dup3\n        /* \"#utility.yul\":9834:9848   */\n      add\n        /* \"#utility.yul\":9824:9848   */\n      swap2\n      pop\n        /* \"#utility.yul\":9893:9895   */\n      0x20\n        /* \"#utility.yul\":9882:9891   */\n      dup6\n        /* \"#utility.yul\":9878:9896   */\n      add\n        /* \"#utility.yul\":9865:9896   */\n      swap5\n      pop\n        /* \"#utility.yul\":9739:9743   */\n      0x20\n        /* \"#utility.yul\":9736:9737   */\n      dup2\n        /* \"#utility.yul\":9732:9744   */\n      add\n        /* \"#utility.yul\":9727:9744   */\n      swap1\n      pop\n        /* \"#utility.yul\":9702:9910   */\n      jump(tag_180)\n    tag_182:\n        /* \"#utility.yul\":9938:9944   */\n      dup7\n        /* \"#utility.yul\":9929:9936   */\n      dup4\n        /* \"#utility.yul\":9926:9945   */\n      lt\n        /* \"#utility.yul\":9923:10102   */\n      iszero\n      tag_183\n      jumpi\n        /* \"#utility.yul\":9996:10005   */\n      dup5\n        /* \"#utility.yul\":9991:9994   */\n      dup10\n        /* \"#utility.yul\":9987:10006   */\n      add\n        /* \"#utility.yul\":9981:10007   */\n      mload\n        /* \"#utility.yul\":10039:10087   */\n      tag_184\n        /* \"#utility.yul\":10081:10085   */\n      0x1f\n        /* \"#utility.yul\":10073:10079   */\n      dup10\n        /* \"#utility.yul\":10069:10086   */\n      and\n        /* \"#utility.yul\":10058:10067   */\n      dup3\n        /* \"#utility.yul\":10039:10087   */\n      tag_64\n      jump\t// in\n    tag_184:\n        /* \"#utility.yul\":10031:10037   */\n      dup4\n        /* \"#utility.yul\":10024:10088   */\n      sstore\n        /* \"#utility.yul\":9946:10102   */\n      pop\n        /* \"#utility.yul\":9923:10102   */\n    tag_183:\n        /* \"#utility.yul\":10148:10149   */\n      0x01\n        /* \"#utility.yul\":10144:10145   */\n      0x02\n        /* \"#utility.yul\":10136:10142   */\n      dup9\n        /* \"#utility.yul\":10132:10146   */\n      mul\n        /* \"#utility.yul\":10128:10150   */\n      add\n        /* \"#utility.yul\":10122:10126   */\n      dup9\n        /* \"#utility.yul\":10115:10151   */\n      sstore\n        /* \"#utility.yul\":9550:10161   */\n      pop\n      pop\n      pop\n        /* \"#utility.yul\":9513:10400   */\n    tag_175:\n      pop\n        /* \"#utility.yul\":9103:10406   */\n      pop\n      pop\n      pop\n        /* \"#utility.yul\":9011:10406   */\n      pop\n      pop\n      jump\t// out\n\n    auxdata: 0xa2646970667358221220c80efbd7d1c74b8ff7882af36baab745032e489259290d75d3d783437a0bacdb64736f6c634300081e0033\n}\n",
				"bytecode": {
					"linkReferences": {},
					"object": "6080604052348015600e575f5ffd5b506107d18061001c5f395ff3fe608060405234801561000f575f5ffd5b5060043610610034575f3560e01c8063d87ec41714610038578063f012666e14610069575b5f5ffd5b610052600480360381019061004d919061024b565b610085565b6040516100609291906102e6565b60405180910390f35b610083600480360381019061007e9190610447565b6101b0565b005b5f602052805f5260405f205f91509050805f0180546100a3906104fc565b80601f01602080910402602001604051908101604052809291908181526020018280546100cf906104fc565b801561011a5780601f106100f15761010080835404028352916020019161011a565b820191905f5260205f20905b8154815290600101906020018083116100fd57829003601f168201915b50505050509080600101805461012f906104fc565b80601f016020809104026020016040519081016040528092919081815260200182805461015b906104fc565b80156101a65780601f1061017d576101008083540402835291602001916101a6565b820191905f5260205f20905b81548152906001019060200180831161018957829003601f168201915b5050505050905082565b6040518060400160405280848152602001838152505f5f8381526020019081526020015f205f820151815f0190816101e891906106cc565b5060208201518160010190816101fe91906106cc565b50905050505050565b5f604051905090565b5f5ffd5b5f5ffd5b5f819050919050565b61022a81610218565b8114610234575f5ffd5b50565b5f8135905061024581610221565b92915050565b5f602082840312156102605761025f610210565b5b5f61026d84828501610237565b91505092915050565b5f81519050919050565b5f82825260208201905092915050565b8281835e5f83830152505050565b5f601f19601f8301169050919050565b5f6102b882610276565b6102c28185610280565b93506102d2818560208601610290565b6102db8161029e565b840191505092915050565b5f6040820190508181035f8301526102fe81856102ae565b9050818103602083015261031281846102ae565b90509392505050565b5f5ffd5b5f5ffd5b7f4e487b71000000000000000000000000000000000000000000000000000000005f52604160045260245ffd5b6103598261029e565b810181811067ffffffffffffffff8211171561037857610377610323565b5b80604052505050565b5f61038a610207565b90506103968282610350565b919050565b5f67ffffffffffffffff8211156103b5576103b4610323565b5b6103be8261029e565b9050602081019050919050565b828183375f83830152505050565b5f6103eb6103e68461039b565b610381565b9050828152602081018484840111156104075761040661031f565b5b6104128482856103cb565b509392505050565b5f82601f83011261042e5761042d61031b565b5b813561043e8482602086016103d9565b91505092915050565b5f5f5f6060848603121561045e5761045d610210565b5b5f84013567ffffffffffffffff81111561047b5761047a610214565b5b6104878682870161041a565b935050602084013567ffffffffffffffff8111156104a8576104a7610214565b5b6104b48682870161041a565b92505060406104c586828701610237565b9150509250925092565b7f4e487b71000000000000000000000000000000000000000000000000000000005f52602260045260245ffd5b5f600282049050600182168061051357607f821691505b602082108103610526576105256104cf565b5b50919050565b5f819050815f5260205f209050919050565b5f6020601f8301049050919050565b5f82821b905092915050565b5f600883026105887fffffffffffffffffffffffffffffffffffffffffffffffffffffffffffffffff8261054d565b610592868361054d565b95508019841693508086168417925050509392505050565b5f819050919050565b5f6105cd6105c86105c384610218565b6105aa565b610218565b9050919050565b5f819050919050565b6105e6836105b3565b6105fa6105f2826105d4565b848454610559565b825550505050565b5f5f905090565b610611610602565b61061c8184846105dd565b505050565b5b8181101561063f576106345f82610609565b600181019050610622565b5050565b601f821115610684576106558161052c565b61065e8461053e565b8101602085101561066d578190505b6106816106798561053e565b830182610621565b50505b505050565b5f82821c905092915050565b5f6106a45f1984600802610689565b1980831691505092915050565b5f6106bc8383610695565b9150826002028217905092915050565b6106d582610276565b67ffffffffffffffff8111156106ee576106ed610323565b5b6106f882546104fc565b610703828285610643565b5f60209050601f831160018114610734575f8415610722578287015190505b61072c85826106b1565b865550610793565b601f1984166107428661052c565b5f5b8281101561076957848901518255600182019150602085019450602081019050610744565b868310156107865784890151610782601f891682610695565b8355505b6001600288020188555050505b50505050505056fea2646970667358221220c80efbd7d1c74b8ff7882af36baab745032e489259290d75d3d783437a0bacdb64736f6c634300081e0033",
					"opcodes": "PUSH1 0x80 PUSH1 0x40 MSTORE CALLVALUE DUP1 ISZERO PUSH1 0xE JUMPI PUSH0 PUSH0 REVERT JUMPDEST POP PUSH2 0x7D1 DUP1 PUSH2 0x1C PUSH0 CODECOPY PUSH0 RETURN INVALID PUSH1 0x80 PUSH1 0x40 MSTORE CALLVALUE DUP1 ISZERO PUSH2 0xF JUMPI PUSH0 PUSH0 REVERT JUMPDEST POP PUSH1 0x4 CALLDATASIZE LT PUSH2 0x34 JUMPI PUSH0 CALLDATALOAD PUSH1 0xE0 SHR DUP1 PUSH4 0xD87EC417 EQ PUSH2 0x38 JUMPI DUP1 PUSH4 0xF012666E EQ PUSH2 0x69 JUMPI JUMPDEST PUSH0 PUSH0 REVERT JUMPDEST PUSH2 0x52 PUSH1 0x4 DUP1 CALLDATASIZE SUB DUP2 ADD SWAP1 PUSH2 0x4D SWAP2 SWAP1 PUSH2 0x24B JUMP JUMPDEST PUSH2 0x85 JUMP JUMPDEST PUSH1 0x40 MLOAD PUSH2 0x60 SWAP3 SWAP2 SWAP1 PUSH2 0x2E6 JUMP JUMPDEST PUSH1 0x40 MLOAD DUP1 SWAP2 SUB SWAP1 RETURN JUMPDEST PUSH2 0x83 PUSH1 0x4 DUP1 CALLDATASIZE SUB DUP2 ADD SWAP1 PUSH2 0x7E SWAP2 SWAP1 PUSH2 0x447 JUMP JUMPDEST PUSH2 0x1B0 JUMP JUMPDEST STOP JUMPDEST PUSH0 PUSH1 0x20 MSTORE DUP1 PUSH0 MSTORE PUSH1 0x40 PUSH0 KECCAK256 PUSH0 SWAP2 POP SWAP1 POP DUP1 PUSH0 ADD DUP1 SLOAD PUSH2 0xA3 SWAP1 PUSH2 0x4FC JUMP JUMPDEST DUP1 PUSH1 0x1F ADD PUSH1 0x20 DUP1 SWAP2 DIV MUL PUSH1 0x20 ADD PUSH1 0x40 MLOAD SWAP1 DUP2 ADD PUSH1 0x40 MSTORE DUP1 SWAP3 SWAP2 SWAP1 DUP2 DUP2 MSTORE PUSH1 0x20 ADD DUP3 DUP1 SLOAD PUSH2 0xCF SWAP1 PUSH2 0x4FC JUMP JUMPDEST DUP1 ISZERO PUSH2 0x11A JUMPI DUP1 PUSH1 0x1F LT PUSH2 0xF1 JUMPI PUSH2 0x100 DUP1 DUP4 SLOAD DIV MUL DUP4 MSTORE SWAP2 PUSH1 0x20 ADD SWAP2 PUSH2 0x11A JUMP JUMPDEST DUP3 ADD SWAP2 SWAP1 PUSH0 MSTORE PUSH1 0x20 PUSH0 KECCAK256 SWAP1 JUMPDEST DUP2 SLOAD DUP2 MSTORE SWAP1 PUSH1 0x1 ADD SWAP1 PUSH1 0x20 ADD DUP1 DUP4 GT PUSH2 0xFD JUMPI DUP3 SWAP1 SUB PUSH1 0x1F AND DUP3 ADD SWAP2 JUMPDEST POP POP POP POP POP SWAP1 DUP1 PUSH1 0x1 ADD DUP1 SLOAD PUSH2 0x12F SWAP1 PUSH2 0x4FC JUMP JUMPDEST DUP1 PUSH1 0x1F ADD PUSH1 0x20 DUP1 SWAP2 DIV MUL PUSH1 0x20 ADD PUSH1 0x40 MLOAD SWAP1 DUP2 ADD PUSH1 0x40 MSTORE DUP1 SWAP3 SWAP2 SWAP1 DUP2 DUP2 MSTORE PUSH1 0x20 ADD DUP3 DUP1 SLOAD PUSH2 0x15B SWAP1 PUSH2 0x4FC JUMP JUMPDEST DUP1 ISZERO PUSH2 0x1A6 JUMPI DUP1 PUSH1 0x1F LT PUSH2 0x17D JUMPI PUSH2 0x100 DUP1 DUP4 SLOAD DIV MUL DUP4 MSTORE SWAP2 PUSH1 0x20 ADD SWAP2 PUSH2 0x1A6 JUMP JUMPDEST DUP3 ADD SWAP2 SWAP1 PUSH0 MSTORE PUSH1 0x20 PUSH0 KECCAK256 SWAP1 JUMPDEST DUP2 SLOAD DUP2 MSTORE SWAP1 PUSH1 0x1 ADD SWAP1 PUSH1 0x20 ADD DUP1 DUP4 GT PUSH2 0x189 JUMPI DUP3 SWAP1 SUB PUSH1 0x1F AND DUP3 ADD SWAP2 JUMPDEST POP POP POP POP POP SWAP1 POP DUP3 JUMP JUMPDEST PUSH1 0x40 MLOAD DUP1 PUSH1 0x40 ADD PUSH1 0x40 MSTORE DUP1 DUP5 DUP2 MSTORE PUSH1 0x20 ADD DUP4 DUP2 MSTORE POP PUSH0 PUSH0 DUP4 DUP2 MSTORE PUSH1 0x20 ADD SWAP1 DUP2 MSTORE PUSH1 0x20 ADD PUSH0 KECCAK256 PUSH0 DUP3 ADD MLOAD DUP2 PUSH0 ADD SWAP1 DUP2 PUSH2 0x1E8 SWAP2 SWAP1 PUSH2 0x6CC JUMP JUMPDEST POP PUSH1 0x20 DUP3 ADD MLOAD DUP2 PUSH1 0x1 ADD SWAP1 DUP2 PUSH2 0x1FE SWAP2 SWAP1 PUSH2 0x6CC JUMP JUMPDEST POP SWAP1 POP POP POP POP POP JUMP JUMPDEST PUSH0 PUSH1 0x40 MLOAD SWAP1 POP SWAP1 JUMP JUMPDEST PUSH0 PUSH0 REVERT JUMPDEST PUSH0 PUSH0 REVERT JUMPDEST PUSH0 DUP2 SWAP1 POP SWAP2 SWAP1 POP JUMP JUMPDEST PUSH2 0x22A DUP2 PUSH2 0x218 JUMP JUMPDEST DUP2 EQ PUSH2 0x234 JUMPI PUSH0 PUSH0 REVERT JUMPDEST POP JUMP JUMPDEST PUSH0 DUP2 CALLDATALOAD SWAP1 POP PUSH2 0x245 DUP2 PUSH2 0x221 JUMP JUMPDEST SWAP3 SWAP2 POP POP JUMP JUMPDEST PUSH0 PUSH1 0x20 DUP3 DUP5 SUB SLT ISZERO PUSH2 0x260 JUMPI PUSH2 0x25F PUSH2 0x210 JUMP JUMPDEST JUMPDEST PUSH0 PUSH2 0x26D DUP5 DUP3 DUP6 ADD PUSH2 0x237 JUMP JUMPDEST SWAP2 POP POP SWAP3 SWAP2 POP POP JUMP JUMPDEST PUSH0 DUP2 MLOAD SWAP1 POP SWAP2 SWAP1 POP JUMP JUMPDEST PUSH0 DUP3 DUP3 MSTORE PUSH1 0x20 DUP3 ADD SWAP1 POP SWAP3 SWAP2 POP POP JUMP JUMPDEST DUP3 DUP2 DUP4 MCOPY PUSH0 DUP4 DUP4 ADD MSTORE POP POP POP JUMP JUMPDEST PUSH0 PUSH1 0x1F NOT PUSH1 0x1F DUP4 ADD AND SWAP1 POP SWAP2 SWAP1 POP JUMP JUMPDEST PUSH0 PUSH2 0x2B8 DUP3 PUSH2 0x276 JUMP JUMPDEST PUSH2 0x2C2 DUP2 DUP6 PUSH2 0x280 JUMP JUMPDEST SWAP4 POP PUSH2 0x2D2 DUP2 DUP6 PUSH1 0x20 DUP7 ADD PUSH2 0x290 JUMP JUMPDEST PUSH2 0x2DB DUP2 PUSH2 0x29E JUMP JUMPDEST DUP5 ADD SWAP2 POP POP SWAP3 SWAP2 POP POP JUMP JUMPDEST PUSH0 PUSH1 0x40 DUP3 ADD SWAP1 POP DUP2 DUP2 SUB PUSH0 DUP4 ADD MSTORE PUSH2 0x2FE DUP2 DUP6 PUSH2 0x2AE JUMP JUMPDEST SWAP1 POP DUP2 DUP2 SUB PUSH1 0x20 DUP4 ADD MSTORE PUSH2 0x312 DUP2 DUP5 PUSH2 0x2AE JUMP JUMPDEST SWAP1 POP SWAP4 SWAP3 POP POP POP JUMP JUMPDEST PUSH0 PUSH0 REVERT JUMPDEST PUSH0 PUSH0 REVERT JUMPDEST PUSH32 0x4E487B7100000000000000000000000000000000000000000000000000000000 PUSH0 MSTORE PUSH1 0x41 PUSH1 0x4 MSTORE PUSH1 0x24 PUSH0 REVERT JUMPDEST PUSH2 0x359 DUP3 PUSH2 0x29E JUMP JUMPDEST DUP2 ADD DUP2 DUP2 LT PUSH8 0xFFFFFFFFFFFFFFFF DUP3 GT OR ISZERO PUSH2 0x378 JUMPI PUSH2 0x377 PUSH2 0x323 JUMP JUMPDEST JUMPDEST DUP1 PUSH1 0x40 MSTORE POP POP POP JUMP JUMPDEST PUSH0 PUSH2 0x38A PUSH2 0x207 JUMP JUMPDEST SWAP1 POP PUSH2 0x396 DUP3 DUP3 PUSH2 0x350 JUMP JUMPDEST SWAP2 SWAP1 POP JUMP JUMPDEST PUSH0 PUSH8 0xFFFFFFFFFFFFFFFF DUP3 GT ISZERO PUSH2 0x3B5 JUMPI PUSH2 0x3B4 PUSH2 0x323 JUMP JUMPDEST JUMPDEST PUSH2 0x3BE DUP3 PUSH2 0x29E JUMP JUMPDEST SWAP1 POP PUSH1 0x20 DUP2 ADD SWAP1 POP SWAP2 SWAP1 POP JUMP JUMPDEST DUP3 DUP2 DUP4 CALLDATACOPY PUSH0 DUP4 DUP4 ADD MSTORE POP POP POP JUMP JUMPDEST PUSH0 PUSH2 0x3EB PUSH2 0x3E6 DUP5 PUSH2 0x39B JUMP JUMPDEST PUSH2 0x381 JUMP JUMPDEST SWAP1 POP DUP3 DUP2 MSTORE PUSH1 0x20 DUP2 ADD DUP5 DUP5 DUP5 ADD GT ISZERO PUSH2 0x407 JUMPI PUSH2 0x406 PUSH2 0x31F JUMP JUMPDEST JUMPDEST PUSH2 0x412 DUP5 DUP3 DUP6 PUSH2 0x3CB JUMP JUMPDEST POP SWAP4 SWAP3 POP POP POP JUMP JUMPDEST PUSH0 DUP3 PUSH1 0x1F DUP4 ADD SLT PUSH2 0x42E JUMPI PUSH2 0x42D PUSH2 0x31B JUMP JUMPDEST JUMPDEST DUP2 CALLDATALOAD PUSH2 0x43E DUP5 DUP3 PUSH1 0x20 DUP7 ADD PUSH2 0x3D9 JUMP JUMPDEST SWAP2 POP POP SWAP3 SWAP2 POP POP JUMP JUMPDEST PUSH0 PUSH0 PUSH0 PUSH1 0x60 DUP5 DUP7 SUB SLT ISZERO PUSH2 0x45E JUMPI PUSH2 0x45D PUSH2 0x210 JUMP JUMPDEST JUMPDEST PUSH0 DUP5 ADD CALLDATALOAD PUSH8 0xFFFFFFFFFFFFFFFF DUP2 GT ISZERO PUSH2 0x47B JUMPI PUSH2 0x47A PUSH2 0x214 JUMP JUMPDEST JUMPDEST PUSH2 0x487 DUP7 DUP3 DUP8 ADD PUSH2 0x41A JUMP JUMPDEST SWAP4 POP POP PUSH1 0x20 DUP5 ADD CALLDATALOAD PUSH8 0xFFFFFFFFFFFFFFFF DUP2 GT ISZERO PUSH2 0x4A8 JUMPI PUSH2 0x4A7 PUSH2 0x214 JUMP JUMPDEST JUMPDEST PUSH2 0x4B4 DUP7 DUP3 DUP8 ADD PUSH2 0x41A JUMP JUMPDEST SWAP3 POP POP PUSH1 0x40 PUSH2 0x4C5 DUP7 DUP3 DUP8 ADD PUSH2 0x237 JUMP JUMPDEST SWAP2 POP POP SWAP3 POP SWAP3 POP SWAP3 JUMP JUMPDEST PUSH32 0x4E487B7100000000000000000000000000000000000000000000000000000000 PUSH0 MSTORE PUSH1 0x22 PUSH1 0x4 MSTORE PUSH1 0x24 PUSH0 REVERT JUMPDEST PUSH0 PUSH1 0x2 DUP3 DIV SWAP1 POP PUSH1 0x1 DUP3 AND DUP1 PUSH2 0x513 JUMPI PUSH1 0x7F DUP3 AND SWAP2 POP JUMPDEST PUSH1 0x20 DUP3 LT DUP2 SUB PUSH2 0x526 JUMPI PUSH2 0x525 PUSH2 0x4CF JUMP JUMPDEST JUMPDEST POP SWAP2 SWAP1 POP JUMP JUMPDEST PUSH0 DUP2 SWAP1 POP DUP2 PUSH0 MSTORE PUSH1 0x20 PUSH0 KECCAK256 SWAP1 POP SWAP2 SWAP1 POP JUMP JUMPDEST PUSH0 PUSH1 0x20 PUSH1 0x1F DUP4 ADD DIV SWAP1 POP SWAP2 SWAP1 POP JUMP JUMPDEST PUSH0 DUP3 DUP3 SHL SWAP1 POP SWAP3 SWAP2 POP POP JUMP JUMPDEST PUSH0 PUSH1 0x8 DUP4 MUL PUSH2 0x588 PUSH32 0xFFFFFFFFFFFFFFFFFFFFFFFFFFFFFFFFFFFFFFFFFFFFFFFFFFFFFFFFFFFFFFFF DUP3 PUSH2 0x54D JUMP JUMPDEST PUSH2 0x592 DUP7 DUP4 PUSH2 0x54D JUMP JUMPDEST SWAP6 POP DUP1 NOT DUP5 AND SWAP4 POP DUP1 DUP7 AND DUP5 OR SWAP3 POP POP POP SWAP4 SWAP3 POP POP POP JUMP JUMPDEST PUSH0 DUP2 SWAP1 POP SWAP2 SWAP1 POP JUMP JUMPDEST PUSH0 PUSH2 0x5CD PUSH2 0x5C8 PUSH2 0x5C3 DUP5 PUSH2 0x218 JUMP JUMPDEST PUSH2 0x5AA JUMP JUMPDEST PUSH2 0x218 JUMP JUMPDEST SWAP1 POP SWAP2 SWAP1 POP JUMP JUMPDEST PUSH0 DUP2 SWAP1 POP SWAP2 SWAP1 POP JUMP JUMPDEST PUSH2 0x5E6 DUP4 PUSH2 0x5B3 JUMP JUMPDEST PUSH2 0x5FA PUSH2 0x5F2 DUP3 PUSH2 0x5D4 JUMP JUMPDEST DUP5 DUP5 SLOAD PUSH2 0x559 JUMP JUMPDEST DUP3 SSTORE POP POP POP POP JUMP JUMPDEST PUSH0 PUSH0 SWAP1 POP SWAP1 JUMP JUMPDEST PUSH2 0x611 PUSH2 0x602 JUMP JUMPDEST PUSH2 0x61C DUP2 DUP5 DUP5 PUSH2 0x5DD JUMP JUMPDEST POP POP POP JUMP JUMPDEST JUMPDEST DUP2 DUP2 LT ISZERO PUSH2 0x63F JUMPI PUSH2 0x634 PUSH0 DUP3 PUSH2 0x609 JUMP JUMPDEST PUSH1 0x1 DUP2 ADD SWAP1 POP PUSH2 0x622 JUMP JUMPDEST POP POP JUMP JUMPDEST PUSH1 0x1F DUP3 GT ISZERO PUSH2 0x684 JUMPI PUSH2 0x655 DUP2 PUSH2 0x52C JUMP JUMPDEST PUSH2 0x65E DUP5 PUSH2 0x53E JUMP JUMPDEST DUP2 ADD PUSH1 0x20 DUP6 LT ISZERO PUSH2 0x66D JUMPI DUP2 SWAP1 POP JUMPDEST PUSH2 0x681 PUSH2 0x679 DUP6 PUSH2 0x53E JUMP JUMPDEST DUP4 ADD DUP3 PUSH2 0x621 JUMP JUMPDEST POP POP JUMPDEST POP POP POP JUMP JUMPDEST PUSH0 DUP3 DUP3 SHR SWAP1 POP SWAP3 SWAP2 POP POP JUMP JUMPDEST PUSH0 PUSH2 0x6A4 PUSH0 NOT DUP5 PUSH1 0x8 MUL PUSH2 0x689 JUMP JUMPDEST NOT DUP1 DUP4 AND SWAP2 POP POP SWAP3 SWAP2 POP POP JUMP JUMPDEST PUSH0 PUSH2 0x6BC DUP4 DUP4 PUSH2 0x695 JUMP JUMPDEST SWAP2 POP DUP3 PUSH1 0x2 MUL DUP3 OR SWAP1 POP SWAP3 SWAP2 POP POP JUMP JUMPDEST PUSH2 0x6D5 DUP3 PUSH2 0x276 JUMP JUMPDEST PUSH8 0xFFFFFFFFFFFFFFFF DUP2 GT ISZERO PUSH2 0x6EE JUMPI PUSH2 0x6ED PUSH2 0x323 JUMP JUMPDEST JUMPDEST PUSH2 0x6F8 DUP3 SLOAD PUSH2 0x4FC JUMP JUMPDEST PUSH2 0x703 DUP3 DUP3 DUP6 PUSH2 0x643 JUMP JUMPDEST PUSH0 PUSH1 0x20 SWAP1 POP PUSH1 0x1F DUP4 GT PUSH1 0x1 DUP2 EQ PUSH2 0x734 JUMPI PUSH0 DUP5 ISZERO PUSH2 0x722 JUMPI DUP3 DUP8 ADD MLOAD SWAP1 POP JUMPDEST PUSH2 0x72C DUP6 DUP3 PUSH2 0x6B1 JUMP JUMPDEST DUP7 SSTORE POP PUSH2 0x793 JUMP JUMPDEST PUSH1 0x1F NOT DUP5 AND PUSH2 0x742 DUP7 PUSH2 0x52C JUMP JUMPDEST PUSH0 JUMPDEST DUP3 DUP2 LT ISZERO PUSH2 0x769 JUMPI DUP5 DUP10 ADD MLOAD DUP3 SSTORE PUSH1 0x1 DUP3 ADD SWAP2 POP PUSH1 0x20 DUP6 ADD SWAP5 POP PUSH1 0x20 DUP2 ADD SWAP1 POP PUSH2 0x744 JUMP JUMPDEST DUP7 DUP4 LT ISZERO PUSH2 0x786 JUMPI DUP5 DUP10 ADD MLOAD PUSH2 0x782 PUSH1 0x1F DUP10 AND DUP3 PUSH2 0x695 JUMP JUMPDEST DUP4 SSTORE POP JUMPDEST PUSH1 0x1 PUSH1 0x2 DUP9 MUL ADD DUP9 SSTORE POP POP POP JUMPDEST POP POP POP POP POP POP JUMP INVALID LOG2 PUSH5 0x6970667358 0x22 SLT KECCAK256 0xC8 0xE EXTSTATICCALL 0xD7 DATALOADN 0xC74B DUP16 0xF7 DUP9 0x2A RETURN PUSH12 0xAAB745032E489259290D75D3 0xD7 DUP4 NUMBER PUSH27 0xBACDB64736F6C634300081E003300000000000000000000000000 "
				},
				"gasEstimates": {
					"creation": {
						"codeDepositCost": "400200",
						"executionCost": "434",
						"totalCost": "400634"
					},
					"external": {
						"addMovie(string,string,uint256)": "infinite",
						"movie(uint256)": "infinite"
					}
				},
				"methodIdentifiers": {
					"addMovie(string,string,uint256)": "f012666e",
					"movie(uint256)": "d87ec417"
				}
			},
			"storageLayout": {
				"storage": [
					{
						"astId": 11,
						"contract": "6.10.Exercise.sol:exerciseMappping",
						"label": "movie",
						"offset": 0,
						"slot": "0",
						"type": "t_mapping(t_uint256,t_struct(Movie)6_storage)"
					}
				],
				"types": {
					"t_mapping(t_uint256,t_struct(Movie)6_storage)": {
						"encoding": "mapping",
						"key": "t_uint256",
						"label": "mapping(uint256 => struct exerciseMappping.Movie)",
						"numberOfBytes": "32",
						"value": "t_struct(Movie)6_storage"
					},
					"t_string_storage": {
						"encoding": "bytes",
						"label": "string",
						"numberOfBytes": "32"
					},
					"t_struct(Movie)6_storage": {
						"encoding": "inplace",
						"label": "struct exerciseMappping.Movie",
						"members": [
							{
								"astId": 3,
								"contract": "6.10.Exercise.sol:exerciseMappping",
								"label": "title",
								"offset": 0,
								"slot": "0",
								"type": "t_string_storage"
							},
							{
								"astId": 5,
								"contract": "6.10.Exercise.sol:exerciseMappping",
								"label": "director",
								"offset": 0,
								"slot": "1",
								"type": "t_string_storage"
							}
						],
						"numberOfBytes": "64"
					},
					"t_uint256": {
						"encoding": "inplace",
						"label": "uint256",
						"numberOfBytes": "32"
					}
				}
			},
			"userdoc": {
				"kind": "user",
				"methods": {},
				"version": 1
			}
		}
	}
}