{
	"6.11.Nested Mapping.sol": {
		"exerciseMappping": {
			"abi": [
				{
					"inputs": [
						{
							"internalType": "string",
							"name": "title",
							"type": "string"
						},
						{
							"internalType": "string",
							"name": "director",
							"type": "string"
						},
						{
							"internalType": "uint256",
							"name": "id",
							"type": "uint256"
						}
					],
					"name": "addMovie",
					"outputs": [],
					"stateMutability": "nonpayable",
					"type": "function"
				},
				{
					"inputs": [
						{
							"internalType": "string",
							"name": "title",
							"type": "string"
						},
						{
							"internalType": "string",
							"name": "director",
							"type": "string"
						},
						{
							"internalType": "uint256",
							"name": "id",
							"type": "uint256"
						}
					],
					"name": "addMyMovie",
					"outputs": [],
					"stateMutability": "nonpayable",
					"type": "function"
				},
				{
					"inputs": [
						{
							"internalType": "uint256",
							"name": "",
							"type": "uint256"
						}
					],
					"name": "movie",
					"outputs": [
						{
							"internalType": "string",
							"name": "title",
							"type": "string"
						},
						{
							"internalType": "string",
							"name": "director",
							"type": "string"
						}
					],
					"stateMutability": "view",
					"type": "function"
				},
				{
					"inputs": [
						{
							"internalType": "address",
							"name": "",
							"type": "address"
						},
						{
							"internalType": "uint256",
							"name": "",
							"type": "uint256"
						}
					],
					"name": "myMovie",
					"outputs": [
						{
							"internalType": "string",
							"name": "title",
							"type": "string"
						},
						{
							"internalType": "string",
							"name": "director",
							"type": "string"
						}
					],
					"stateMutability": "view",
					"type": "function"
				}
			],
			"devdoc": {
				"kind": "dev",
				"methods": {},
				"version": 1
			},
			"evm": {
				"assembly": "    /* \"6.11.Nested Mapping.sol\":371:1041  contract exerciseMappping {... */\n  mstore(0x40, 0x80)\n  callvalue\n  dup1\n  iszero\n  tag_1\n  jumpi\n  revert(0x00, 0x00)\ntag_1:\n  pop\n  dataSize(sub_0)\n  dup1\n  dataOffset(sub_0)\n  0x00\n  codecopy\n  0x00\n  return\nstop\n\nsub_0: assembly {\n        /* \"6.11.Nested Mapping.sol\":371:1041  contract exerciseMappping {... */\n      mstore(0x40, 0x80)\n      callvalue\n      dup1\n      iszero\n      tag_1\n      jumpi\n      revert(0x00, 0x00)\n    tag_1:\n      pop\n      jumpi(tag_2, lt(calldatasize, 0x04))\n      shr(0xe0, calldataload(0x00))\n      dup1\n      0x11f72990\n      eq\n      tag_3\n      jumpi\n      dup1\n      0xd87ec417\n      eq\n      tag_4\n      jumpi\n      dup1\n      0xdad9909f\n      eq\n      tag_5\n      jumpi\n      dup1\n      0xf012666e\n      eq\n      tag_6\n      jumpi\n    tag_2:\n      revert(0x00, 0x00)\n        /* \"6.11.Nested Mapping.sol\":535:594  mapping (address => mapping (uint => Movie)) public myMovie */\n    tag_3:\n      tag_7\n      0x04\n      dup1\n      calldatasize\n      sub\n      dup2\n      add\n      swap1\n      tag_8\n      swap2\n      swap1\n      tag_9\n      jump\t// in\n    tag_8:\n      tag_10\n      jump\t// in\n    tag_7:\n      mload(0x40)\n      tag_11\n      swap3\n      swap2\n      swap1\n      tag_12\n      jump\t// in\n    tag_11:\n      mload(0x40)\n      dup1\n      swap2\n      sub\n      swap1\n      return\n        /* \"6.11.Nested Mapping.sol\":492:528  mapping (uint => Movie) public movie */\n    tag_4:\n      tag_13\n      0x04\n      dup1\n      calldatasize\n      sub\n      dup2\n      add\n      swap1\n      tag_14\n      swap2\n      swap1\n      tag_15\n      jump\t// in\n    tag_14:\n      tag_16\n      jump\t// in\n    tag_13:\n      mload(0x40)\n      tag_17\n      swap3\n      swap2\n      swap1\n      tag_12\n      jump\t// in\n    tag_17:\n      mload(0x40)\n      dup1\n      swap2\n      sub\n      swap1\n      return\n        /* \"6.11.Nested Mapping.sol\":748:1038  function addMyMovie (string memory title, string memory director, uint id) public {... */\n    tag_5:\n      tag_18\n      0x04\n      dup1\n      calldatasize\n      sub\n      dup2\n      add\n      swap1\n      tag_19\n      swap2\n      swap1\n      tag_20\n      jump\t// in\n    tag_19:\n      tag_21\n      jump\t// in\n    tag_18:\n      stop\n        /* \"6.11.Nested Mapping.sol\":603:736  function addMovie (string memory title, string memory director, uint id) public {... */\n    tag_6:\n      tag_22\n      0x04\n      dup1\n      calldatasize\n      sub\n      dup2\n      add\n      swap1\n      tag_23\n      swap2\n      swap1\n      tag_20\n      jump\t// in\n    tag_23:\n      tag_24\n      jump\t// in\n    tag_22:\n      stop\n        /* \"6.11.Nested Mapping.sol\":535:594  mapping (address => mapping (uint => Movie)) public myMovie */\n    tag_10:\n      mstore(0x20, 0x01)\n      dup2\n      0x00\n      mstore\n      mstore(0x20, keccak256(0x00, 0x40))\n      dup1\n      0x00\n      mstore\n      keccak256(0x00, 0x40)\n      0x00\n      swap2\n      pop\n      swap2\n      pop\n      pop\n      dup1\n      0x00\n      add\n      dup1\n      sload\n      tag_25\n      swap1\n      tag_26\n      jump\t// in\n    tag_25:\n      dup1\n      0x1f\n      add\n      0x20\n      dup1\n      swap2\n      div\n      mul\n      0x20\n      add\n      mload(0x40)\n      swap1\n      dup2\n      add\n      0x40\n      mstore\n      dup1\n      swap3\n      swap2\n      swap1\n      dup2\n      dup2\n      mstore\n      0x20\n      add\n      dup3\n      dup1\n      sload\n      tag_27\n      swap1\n      tag_26\n      jump\t// in\n    tag_27:\n      dup1\n      iszero\n      tag_28\n      jumpi\n      dup1\n      0x1f\n      lt\n      tag_29\n      jumpi\n      0x0100\n      dup1\n      dup4\n      sload\n      div\n      mul\n      dup4\n      mstore\n      swap2\n      0x20\n      add\n      swap2\n      jump(tag_28)\n    tag_29:\n      dup3\n      add\n      swap2\n      swap1\n      0x00\n      mstore\n      keccak256(0x00, 0x20)\n      swap1\n    tag_30:\n      dup2\n      sload\n      dup2\n      mstore\n      swap1\n      0x01\n      add\n      swap1\n      0x20\n      add\n      dup1\n      dup4\n      gt\n      tag_30\n      jumpi\n      dup3\n      swap1\n      sub\n      0x1f\n      and\n      dup3\n      add\n      swap2\n    tag_28:\n      pop\n      pop\n      pop\n      pop\n      pop\n      swap1\n      dup1\n      0x01\n      add\n      dup1\n      sload\n      tag_31\n      swap1\n      tag_26\n      jump\t// in\n    tag_31:\n      dup1\n      0x1f\n      add\n      0x20\n      dup1\n      swap2\n      div\n      mul\n      0x20\n      add\n      mload(0x40)\n      swap1\n      dup2\n      add\n      0x40\n      mstore\n      dup1\n      swap3\n      swap2\n      swap1\n      dup2\n      dup2\n      mstore\n      0x20\n      add\n      dup3\n      dup1\n      sload\n      tag_32\n      swap1\n      tag_26\n      jump\t// in\n    tag_32:\n      dup1\n      iszero\n      tag_33\n      jumpi\n      dup1\n      0x1f\n      lt\n      tag_34\n      jumpi\n      0x0100\n      dup1\n      dup4\n      sload\n      div\n      mul\n      dup4\n      mstore\n      swap2\n      0x20\n      add\n      swap2\n      jump(tag_33)\n    tag_34:\n      dup3\n      add\n      swap2\n      swap1\n      0x00\n      mstore\n      keccak256(0x00, 0x20)\n      swap1\n    tag_35:\n      dup2\n      sload\n      dup2\n      mstore\n      swap1\n      0x01\n      add\n      swap1\n      0x20\n      add\n      dup1\n      dup4\n      gt\n      tag_35\n      jumpi\n      dup3\n      swap1\n      sub\n      0x1f\n      and\n      dup3\n      add\n      swap2\n    tag_33:\n      pop\n      pop\n      pop\n      pop\n      pop\n      swap1\n      pop\n      dup3\n      jump\t// out\n        /* \"6.11.Nested Mapping.sol\":492:528  mapping (uint => Movie) public movie */\n    tag_16:\n      mstore(0x20, 0x00)\n      dup1\n      0x00\n      mstore\n      keccak256(0x00, 0x40)\n      0x00\n      swap2\n      pop\n      swap1\n      pop\n      dup1\n      0x00\n      add\n      dup1\n      sload\n      tag_36\n      swap1\n      tag_26\n      jump\t// in\n    tag_36:\n      dup1\n      0x1f\n      add\n      0x20\n      dup1\n      swap2\n      div\n      mul\n      0x20\n      add\n      mload(0x40)\n      swap1\n      dup2\n      add\n      0x40\n      mstore\n      dup1\n      swap3\n      swap2\n      swap1\n      dup2\n      dup2\n      mstore\n      0x20\n      add\n      dup3\n      dup1\n      sload\n      tag_37\n      swap1\n      tag_26\n      jump\t// in\n    tag_37:\n      dup1\n      iszero\n      tag_38\n      jumpi\n      dup1\n      0x1f\n      lt\n      tag_39\n      jumpi\n      0x0100\n      dup1\n      dup4\n      sload\n      div\n      mul\n      dup4\n      mstore\n      swap2\n      0x20\n      add\n      swap2\n      jump(tag_38)\n    tag_39:\n      dup3\n      add\n      swap2\n      swap1\n      0x00\n      mstore\n      keccak256(0x00, 0x20)\n      swap1\n    tag_40:\n      dup2\n      sload\n      dup2\n      mstore\n      swap1\n      0x01\n      add\n      swap1\n      0x20\n      add\n      dup1\n      dup4\n      gt\n      tag_40\n      jumpi\n      dup3\n      swap1\n      sub\n      0x1f\n      and\n      dup3\n      add\n      swap2\n    tag_38:\n      pop\n      pop\n      pop\n      pop\n      pop\n      swap1\n      dup1\n      0x01\n      add\n      dup1\n      sload\n      tag_41\n      swap1\n      tag_26\n      jump\t// in\n    tag_41:\n      dup1\n      0x1f\n      add\n      0x20\n      dup1\n      swap2\n      div\n      mul\n      0x20\n      add\n      mload(0x40)\n      swap1\n      dup2\n      add\n      0x40\n      mstore\n      dup1\n      swap3\n      swap2\n      swap1\n      dup2\n      dup2\n      mstore\n      0x20\n      add\n      dup3\n      dup1\n      sload\n      tag_42\n      swap1\n      tag_26\n      jump\t// in\n    tag_42:\n      dup1\n      iszero\n      tag_43\n      jumpi\n      dup1\n      0x1f\n      lt\n      tag_44\n      jumpi\n      0x0100\n      dup1\n      dup4\n      sload\n      div\n      mul\n      dup4\n      mstore\n      swap2\n      0x20\n      add\n      swap2\n      jump(tag_43)\n    tag_44:\n      dup3\n      add\n      swap2\n      swap1\n      0x00\n      mstore\n      keccak256(0x00, 0x20)\n      swap1\n    tag_45:\n      dup2\n      sload\n      dup2\n      mstore\n      swap1\n      0x01\n      add\n      swap1\n      0x20\n      add\n      dup1\n      dup4\n      gt\n      tag_45\n      jumpi\n      dup3\n      swap1\n      sub\n      0x1f\n      and\n      dup3\n      add\n      swap2\n    tag_43:\n      pop\n      pop\n      pop\n      pop\n      pop\n      swap1\n      pop\n      dup3\n      jump\t// out\n        /* \"6.11.Nested Mapping.sol\":748:1038  function addMyMovie (string memory title, string memory director, uint id) public {... */\n    tag_21:\n        /* \"6.11.Nested Mapping.sol\":867:889  Movie(title, director) */\n      mload(0x40)\n      dup1\n      0x40\n      add\n      0x40\n      mstore\n      dup1\n        /* \"6.11.Nested Mapping.sol\":873:878  title */\n      dup5\n        /* \"6.11.Nested Mapping.sol\":867:889  Movie(title, director) */\n      dup2\n      mstore\n      0x20\n      add\n        /* \"6.11.Nested Mapping.sol\":880:888  director */\n      dup4\n        /* \"6.11.Nested Mapping.sol\":867:889  Movie(title, director) */\n      dup2\n      mstore\n      pop\n        /* \"6.11.Nested Mapping.sol\":841:848  myMovie */\n      0x01\n        /* \"6.11.Nested Mapping.sol\":841:860  myMovie[msg.sender] */\n      0x00\n        /* \"6.11.Nested Mapping.sol\":849:859  msg.sender */\n      caller\n        /* \"6.11.Nested Mapping.sol\":841:860  myMovie[msg.sender] */\n      0xffffffffffffffffffffffffffffffffffffffff\n      and\n      0xffffffffffffffffffffffffffffffffffffffff\n      and\n      dup2\n      mstore\n      0x20\n      add\n      swap1\n      dup2\n      mstore\n      0x20\n      add\n      0x00\n      keccak256\n        /* \"6.11.Nested Mapping.sol\":841:864  myMovie[msg.sender][id] */\n      0x00\n        /* \"6.11.Nested Mapping.sol\":861:863  id */\n      dup4\n        /* \"6.11.Nested Mapping.sol\":841:864  myMovie[msg.sender][id] */\n      dup2\n      mstore\n      0x20\n      add\n      swap1\n      dup2\n      mstore\n      0x20\n      add\n      0x00\n      keccak256\n        /* \"6.11.Nested Mapping.sol\":841:889  myMovie[msg.sender][id] = Movie(title, director) */\n      0x00\n      dup3\n      add\n      mload\n      dup2\n      0x00\n      add\n      swap1\n      dup2\n      tag_47\n      swap2\n      swap1\n      tag_48\n      jump\t// in\n    tag_47:\n      pop\n      0x20\n      dup3\n      add\n      mload\n      dup2\n      0x01\n      add\n      swap1\n      dup2\n      tag_49\n      swap2\n      swap1\n      tag_48\n      jump\t// in\n    tag_49:\n      pop\n      swap1\n      pop\n      pop\n        /* \"6.11.Nested Mapping.sol\":748:1038  function addMyMovie (string memory title, string memory director, uint id) public {... */\n      pop\n      pop\n      pop\n      jump\t// out\n        /* \"6.11.Nested Mapping.sol\":603:736  function addMovie (string memory title, string memory director, uint id) public {... */\n    tag_24:\n        /* \"6.11.Nested Mapping.sol\":706:728  Movie(title, director) */\n      mload(0x40)\n      dup1\n      0x40\n      add\n      0x40\n      mstore\n      dup1\n        /* \"6.11.Nested Mapping.sol\":712:717  title */\n      dup5\n        /* \"6.11.Nested Mapping.sol\":706:728  Movie(title, director) */\n      dup2\n      mstore\n      0x20\n      add\n        /* \"6.11.Nested Mapping.sol\":719:727  director */\n      dup4\n        /* \"6.11.Nested Mapping.sol\":706:728  Movie(title, director) */\n      dup2\n      mstore\n      pop\n        /* \"6.11.Nested Mapping.sol\":694:699  movie */\n      0x00\n        /* \"6.11.Nested Mapping.sol\":694:703  movie[id] */\n      0x00\n        /* \"6.11.Nested Mapping.sol\":700:702  id */\n      dup4\n        /* \"6.11.Nested Mapping.sol\":694:703  movie[id] */\n      dup2\n      mstore\n      0x20\n      add\n      swap1\n      dup2\n      mstore\n      0x20\n      add\n      0x00\n      keccak256\n        /* \"6.11.Nested Mapping.sol\":694:728  movie[id] = Movie(title, director) */\n      0x00\n      dup3\n      add\n      mload\n      dup2\n      0x00\n      add\n      swap1\n      dup2\n      tag_51\n      swap2\n      swap1\n      tag_48\n      jump\t// in\n    tag_51:\n      pop\n      0x20\n      dup3\n      add\n      mload\n      dup2\n      0x01\n      add\n      swap1\n      dup2\n      tag_52\n      swap2\n      swap1\n      tag_48\n      jump\t// in\n    tag_52:\n      pop\n      swap1\n      pop\n      pop\n        /* \"6.11.Nested Mapping.sol\":603:736  function addMovie (string memory title, string memory director, uint id) public {... */\n      pop\n      pop\n      pop\n      jump\t// out\n        /* \"#utility.yul\":7:82   */\n    tag_53:\n        /* \"#utility.yul\":40:46   */\n      0x00\n        /* \"#utility.yul\":73:75   */\n      0x40\n        /* \"#utility.yul\":67:76   */\n      mload\n        /* \"#utility.yul\":57:76   */\n      swap1\n      pop\n        /* \"#utility.yul\":7:82   */\n      swap1\n      jump\t// out\n        /* \"#utility.yul\":88:205   */\n    tag_54:\n        /* \"#utility.yul\":197:198   */\n      0x00\n        /* \"#utility.yul\":194:195   */\n      0x00\n        /* \"#utility.yul\":187:199   */\n      revert\n        /* \"#utility.yul\":211:328   */\n    tag_55:\n        /* \"#utility.yul\":320:321   */\n      0x00\n        /* \"#utility.yul\":317:318   */\n      0x00\n        /* \"#utility.yul\":310:322   */\n      revert\n        /* \"#utility.yul\":334:460   */\n    tag_56:\n        /* \"#utility.yul\":371:378   */\n      0x00\n        /* \"#utility.yul\":411:453   */\n      0xffffffffffffffffffffffffffffffffffffffff\n        /* \"#utility.yul\":404:409   */\n      dup3\n        /* \"#utility.yul\":400:454   */\n      and\n        /* \"#utility.yul\":389:454   */\n      swap1\n      pop\n        /* \"#utility.yul\":334:460   */\n      swap2\n      swap1\n      pop\n      jump\t// out\n        /* \"#utility.yul\":466:562   */\n    tag_57:\n        /* \"#utility.yul\":503:510   */\n      0x00\n        /* \"#utility.yul\":532:556   */\n      tag_99\n        /* \"#utility.yul\":550:555   */\n      dup3\n        /* \"#utility.yul\":532:556   */\n      tag_56\n      jump\t// in\n    tag_99:\n        /* \"#utility.yul\":521:556   */\n      swap1\n      pop\n        /* \"#utility.yul\":466:562   */\n      swap2\n      swap1\n      pop\n      jump\t// out\n        /* \"#utility.yul\":568:690   */\n    tag_58:\n        /* \"#utility.yul\":641:665   */\n      tag_101\n        /* \"#utility.yul\":659:664   */\n      dup2\n        /* \"#utility.yul\":641:665   */\n      tag_57\n      jump\t// in\n    tag_101:\n        /* \"#utility.yul\":634:639   */\n      dup2\n        /* \"#utility.yul\":631:666   */\n      eq\n        /* \"#utility.yul\":621:684   */\n      tag_102\n      jumpi\n        /* \"#utility.yul\":680:681   */\n      0x00\n        /* \"#utility.yul\":677:678   */\n      0x00\n        /* \"#utility.yul\":670:682   */\n      revert\n        /* \"#utility.yul\":621:684   */\n    tag_102:\n        /* \"#utility.yul\":568:690   */\n      pop\n      jump\t// out\n        /* \"#utility.yul\":696:835   */\n    tag_59:\n        /* \"#utility.yul\":742:747   */\n      0x00\n        /* \"#utility.yul\":780:786   */\n      dup2\n        /* \"#utility.yul\":767:787   */\n      calldataload\n        /* \"#utility.yul\":758:787   */\n      swap1\n      pop\n        /* \"#utility.yul\":796:829   */\n      tag_104\n        /* \"#utility.yul\":823:828   */\n      dup2\n        /* \"#utility.yul\":796:829   */\n      tag_58\n      jump\t// in\n    tag_104:\n        /* \"#utility.yul\":696:835   */\n      swap3\n      swap2\n      pop\n      pop\n      jump\t// out\n        /* \"#utility.yul\":841:918   */\n    tag_60:\n        /* \"#utility.yul\":878:885   */\n      0x00\n        /* \"#utility.yul\":907:912   */\n      dup2\n        /* \"#utility.yul\":896:912   */\n      swap1\n      pop\n        /* \"#utility.yul\":841:918   */\n      swap2\n      swap1\n      pop\n      jump\t// out\n        /* \"#utility.yul\":924:1046   */\n    tag_61:\n        /* \"#utility.yul\":997:1021   */\n      tag_107\n        /* \"#utility.yul\":1015:1020   */\n      dup2\n        /* \"#utility.yul\":997:1021   */\n      tag_60\n      jump\t// in\n    tag_107:\n        /* \"#utility.yul\":990:995   */\n      dup2\n        /* \"#utility.yul\":987:1022   */\n      eq\n        /* \"#utility.yul\":977:1040   */\n      tag_108\n      jumpi\n        /* \"#utility.yul\":1036:1037   */\n      0x00\n        /* \"#utility.yul\":1033:1034   */\n      0x00\n        /* \"#utility.yul\":1026:1038   */\n      revert\n        /* \"#utility.yul\":977:1040   */\n    tag_108:\n        /* \"#utility.yul\":924:1046   */\n      pop\n      jump\t// out\n        /* \"#utility.yul\":1052:1191   */\n    tag_62:\n        /* \"#utility.yul\":1098:1103   */\n      0x00\n        /* \"#utility.yul\":1136:1142   */\n      dup2\n        /* \"#utility.yul\":1123:1143   */\n      calldataload\n        /* \"#utility.yul\":1114:1143   */\n      swap1\n      pop\n        /* \"#utility.yul\":1152:1185   */\n      tag_110\n        /* \"#utility.yul\":1179:1184   */\n      dup2\n        /* \"#utility.yul\":1152:1185   */\n      tag_61\n      jump\t// in\n    tag_110:\n        /* \"#utility.yul\":1052:1191   */\n      swap3\n      swap2\n      pop\n      pop\n      jump\t// out\n        /* \"#utility.yul\":1197:1671   */\n    tag_9:\n        /* \"#utility.yul\":1265:1271   */\n      0x00\n        /* \"#utility.yul\":1273:1279   */\n      0x00\n        /* \"#utility.yul\":1322:1324   */\n      0x40\n        /* \"#utility.yul\":1310:1319   */\n      dup4\n        /* \"#utility.yul\":1301:1308   */\n      dup6\n        /* \"#utility.yul\":1297:1320   */\n      sub\n        /* \"#utility.yul\":1293:1325   */\n      slt\n        /* \"#utility.yul\":1290:1409   */\n      iszero\n      tag_112\n      jumpi\n        /* \"#utility.yul\":1328:1407   */\n      tag_113\n      tag_54\n      jump\t// in\n    tag_113:\n        /* \"#utility.yul\":1290:1409   */\n    tag_112:\n        /* \"#utility.yul\":1448:1449   */\n      0x00\n        /* \"#utility.yul\":1473:1526   */\n      tag_114\n        /* \"#utility.yul\":1518:1525   */\n      dup6\n        /* \"#utility.yul\":1509:1515   */\n      dup3\n        /* \"#utility.yul\":1498:1507   */\n      dup7\n        /* \"#utility.yul\":1494:1516   */\n      add\n        /* \"#utility.yul\":1473:1526   */\n      tag_59\n      jump\t// in\n    tag_114:\n        /* \"#utility.yul\":1463:1526   */\n      swap3\n      pop\n        /* \"#utility.yul\":1419:1536   */\n      pop\n        /* \"#utility.yul\":1575:1577   */\n      0x20\n        /* \"#utility.yul\":1601:1654   */\n      tag_115\n        /* \"#utility.yul\":1646:1653   */\n      dup6\n        /* \"#utility.yul\":1637:1643   */\n      dup3\n        /* \"#utility.yul\":1626:1635   */\n      dup7\n        /* \"#utility.yul\":1622:1644   */\n      add\n        /* \"#utility.yul\":1601:1654   */\n      tag_62\n      jump\t// in\n    tag_115:\n        /* \"#utility.yul\":1591:1654   */\n      swap2\n      pop\n        /* \"#utility.yul\":1546:1664   */\n      pop\n        /* \"#utility.yul\":1197:1671   */\n      swap3\n      pop\n      swap3\n      swap1\n      pop\n      jump\t// out\n        /* \"#utility.yul\":1677:1776   */\n    tag_63:\n        /* \"#utility.yul\":1729:1735   */\n      0x00\n        /* \"#utility.yul\":1763:1768   */\n      dup2\n        /* \"#utility.yul\":1757:1769   */\n      mload\n        /* \"#utility.yul\":1747:1769   */\n      swap1\n      pop\n        /* \"#utility.yul\":1677:1776   */\n      swap2\n      swap1\n      pop\n      jump\t// out\n        /* \"#utility.yul\":1782:1951   */\n    tag_64:\n        /* \"#utility.yul\":1866:1877   */\n      0x00\n        /* \"#utility.yul\":1900:1906   */\n      dup3\n        /* \"#utility.yul\":1895:1898   */\n      dup3\n        /* \"#utility.yul\":1888:1907   */\n      mstore\n        /* \"#utility.yul\":1940:1944   */\n      0x20\n        /* \"#utility.yul\":1935:1938   */\n      dup3\n        /* \"#utility.yul\":1931:1945   */\n      add\n        /* \"#utility.yul\":1916:1945   */\n      swap1\n      pop\n        /* \"#utility.yul\":1782:1951   */\n      swap3\n      swap2\n      pop\n      pop\n      jump\t// out\n        /* \"#utility.yul\":1957:2096   */\n    tag_65:\n        /* \"#utility.yul\":2046:2052   */\n      dup3\n        /* \"#utility.yul\":2041:2044   */\n      dup2\n        /* \"#utility.yul\":2036:2039   */\n      dup4\n        /* \"#utility.yul\":2030:2053   */\n      mcopy\n        /* \"#utility.yul\":2087:2088   */\n      0x00\n        /* \"#utility.yul\":2078:2084   */\n      dup4\n        /* \"#utility.yul\":2073:2076   */\n      dup4\n        /* \"#utility.yul\":2069:2085   */\n      add\n        /* \"#utility.yul\":2062:2089   */\n      mstore\n        /* \"#utility.yul\":1957:2096   */\n      pop\n      pop\n      pop\n      jump\t// out\n        /* \"#utility.yul\":2102:2204   */\n    tag_66:\n        /* \"#utility.yul\":2143:2149   */\n      0x00\n        /* \"#utility.yul\":2194:2196   */\n      0x1f\n        /* \"#utility.yul\":2190:2197   */\n      not\n        /* \"#utility.yul\":2185:2187   */\n      0x1f\n        /* \"#utility.yul\":2178:2183   */\n      dup4\n        /* \"#utility.yul\":2174:2188   */\n      add\n        /* \"#utility.yul\":2170:2198   */\n      and\n        /* \"#utility.yul\":2160:2198   */\n      swap1\n      pop\n        /* \"#utility.yul\":2102:2204   */\n      swap2\n      swap1\n      pop\n      jump\t// out\n        /* \"#utility.yul\":2210:2587   */\n    tag_67:\n        /* \"#utility.yul\":2298:2301   */\n      0x00\n        /* \"#utility.yul\":2326:2365   */\n      tag_121\n        /* \"#utility.yul\":2359:2364   */\n      dup3\n        /* \"#utility.yul\":2326:2365   */\n      tag_63\n      jump\t// in\n    tag_121:\n        /* \"#utility.yul\":2381:2452   */\n      tag_122\n        /* \"#utility.yul\":2445:2451   */\n      dup2\n        /* \"#utility.yul\":2440:2443   */\n      dup6\n        /* \"#utility.yul\":2381:2452   */\n      tag_64\n      jump\t// in\n    tag_122:\n        /* \"#utility.yul\":2374:2452   */\n      swap4\n      pop\n        /* \"#utility.yul\":2461:2526   */\n      tag_123\n        /* \"#utility.yul\":2519:2525   */\n      dup2\n        /* \"#utility.yul\":2514:2517   */\n      dup6\n        /* \"#utility.yul\":2507:2511   */\n      0x20\n        /* \"#utility.yul\":2500:2505   */\n      dup7\n        /* \"#utility.yul\":2496:2512   */\n      add\n        /* \"#utility.yul\":2461:2526   */\n      tag_65\n      jump\t// in\n    tag_123:\n        /* \"#utility.yul\":2551:2580   */\n      tag_124\n        /* \"#utility.yul\":2573:2579   */\n      dup2\n        /* \"#utility.yul\":2551:2580   */\n      tag_66\n      jump\t// in\n    tag_124:\n        /* \"#utility.yul\":2546:2549   */\n      dup5\n        /* \"#utility.yul\":2542:2581   */\n      add\n        /* \"#utility.yul\":2535:2581   */\n      swap2\n      pop\n        /* \"#utility.yul\":2302:2587   */\n      pop\n        /* \"#utility.yul\":2210:2587   */\n      swap3\n      swap2\n      pop\n      pop\n      jump\t// out\n        /* \"#utility.yul\":2593:3107   */\n    tag_12:\n        /* \"#utility.yul\":2754:2758   */\n      0x00\n        /* \"#utility.yul\":2792:2794   */\n      0x40\n        /* \"#utility.yul\":2781:2790   */\n      dup3\n        /* \"#utility.yul\":2777:2795   */\n      add\n        /* \"#utility.yul\":2769:2795   */\n      swap1\n      pop\n        /* \"#utility.yul\":2841:2850   */\n      dup2\n        /* \"#utility.yul\":2835:2839   */\n      dup2\n        /* \"#utility.yul\":2831:2851   */\n      sub\n        /* \"#utility.yul\":2827:2828   */\n      0x00\n        /* \"#utility.yul\":2816:2825   */\n      dup4\n        /* \"#utility.yul\":2812:2829   */\n      add\n        /* \"#utility.yul\":2805:2852   */\n      mstore\n        /* \"#utility.yul\":2869:2947   */\n      tag_126\n        /* \"#utility.yul\":2942:2946   */\n      dup2\n        /* \"#utility.yul\":2933:2939   */\n      dup6\n        /* \"#utility.yul\":2869:2947   */\n      tag_67\n      jump\t// in\n    tag_126:\n        /* \"#utility.yul\":2861:2947   */\n      swap1\n      pop\n        /* \"#utility.yul\":2994:3003   */\n      dup2\n        /* \"#utility.yul\":2988:2992   */\n      dup2\n        /* \"#utility.yul\":2984:3004   */\n      sub\n        /* \"#utility.yul\":2979:2981   */\n      0x20\n        /* \"#utility.yul\":2968:2977   */\n      dup4\n        /* \"#utility.yul\":2964:2982   */\n      add\n        /* \"#utility.yul\":2957:3005   */\n      mstore\n        /* \"#utility.yul\":3022:3100   */\n      tag_127\n        /* \"#utility.yul\":3095:3099   */\n      dup2\n        /* \"#utility.yul\":3086:3092   */\n      dup5\n        /* \"#utility.yul\":3022:3100   */\n      tag_67\n      jump\t// in\n    tag_127:\n        /* \"#utility.yul\":3014:3100   */\n      swap1\n      pop\n        /* \"#utility.yul\":2593:3107   */\n      swap4\n      swap3\n      pop\n      pop\n      pop\n      jump\t// out\n        /* \"#utility.yul\":3113:3442   */\n    tag_15:\n        /* \"#utility.yul\":3172:3178   */\n      0x00\n        /* \"#utility.yul\":3221:3223   */\n      0x20\n        /* \"#utility.yul\":3209:3218   */\n      dup3\n        /* \"#utility.yul\":3200:3207   */\n      dup5\n        /* \"#utility.yul\":3196:3219   */\n      sub\n        /* \"#utility.yul\":3192:3224   */\n      slt\n        /* \"#utility.yul\":3189:3308   */\n      iszero\n      tag_129\n      jumpi\n        /* \"#utility.yul\":3227:3306   */\n      tag_130\n      tag_54\n      jump\t// in\n    tag_130:\n        /* \"#utility.yul\":3189:3308   */\n    tag_129:\n        /* \"#utility.yul\":3347:3348   */\n      0x00\n        /* \"#utility.yul\":3372:3425   */\n      tag_131\n        /* \"#utility.yul\":3417:3424   */\n      dup5\n        /* \"#utility.yul\":3408:3414   */\n      dup3\n        /* \"#utility.yul\":3397:3406   */\n      dup6\n        /* \"#utility.yul\":3393:3415   */\n      add\n        /* \"#utility.yul\":3372:3425   */\n      tag_62\n      jump\t// in\n    tag_131:\n        /* \"#utility.yul\":3362:3425   */\n      swap2\n      pop\n        /* \"#utility.yul\":3318:3435   */\n      pop\n        /* \"#utility.yul\":3113:3442   */\n      swap3\n      swap2\n      pop\n      pop\n      jump\t// out\n        /* \"#utility.yul\":3448:3565   */\n    tag_68:\n        /* \"#utility.yul\":3557:3558   */\n      0x00\n        /* \"#utility.yul\":3554:3555   */\n      0x00\n        /* \"#utility.yul\":3547:3559   */\n      revert\n        /* \"#utility.yul\":3571:3688   */\n    tag_69:\n        /* \"#utility.yul\":3680:3681   */\n      0x00\n        /* \"#utility.yul\":3677:3678   */\n      0x00\n        /* \"#utility.yul\":3670:3682   */\n      revert\n        /* \"#utility.yul\":3694:3874   */\n    tag_70:\n        /* \"#utility.yul\":3742:3819   */\n      0x4e487b7100000000000000000000000000000000000000000000000000000000\n        /* \"#utility.yul\":3739:3740   */\n      0x00\n        /* \"#utility.yul\":3732:3820   */\n      mstore\n        /* \"#utility.yul\":3839:3843   */\n      0x41\n        /* \"#utility.yul\":3836:3837   */\n      0x04\n        /* \"#utility.yul\":3829:3844   */\n      mstore\n        /* \"#utility.yul\":3863:3867   */\n      0x24\n        /* \"#utility.yul\":3860:3861   */\n      0x00\n        /* \"#utility.yul\":3853:3868   */\n      revert\n        /* \"#utility.yul\":3880:4161   */\n    tag_71:\n        /* \"#utility.yul\":3963:3990   */\n      tag_136\n        /* \"#utility.yul\":3985:3989   */\n      dup3\n        /* \"#utility.yul\":3963:3990   */\n      tag_66\n      jump\t// in\n    tag_136:\n        /* \"#utility.yul\":3955:3961   */\n      dup2\n        /* \"#utility.yul\":3951:3991   */\n      add\n        /* \"#utility.yul\":4093:4099   */\n      dup2\n        /* \"#utility.yul\":4081:4091   */\n      dup2\n        /* \"#utility.yul\":4078:4100   */\n      lt\n        /* \"#utility.yul\":4057:4075   */\n      0xffffffffffffffff\n        /* \"#utility.yul\":4045:4055   */\n      dup3\n        /* \"#utility.yul\":4042:4076   */\n      gt\n        /* \"#utility.yul\":4039:4101   */\n      or\n        /* \"#utility.yul\":4036:4124   */\n      iszero\n      tag_137\n      jumpi\n        /* \"#utility.yul\":4104:4122   */\n      tag_138\n      tag_70\n      jump\t// in\n    tag_138:\n        /* \"#utility.yul\":4036:4124   */\n    tag_137:\n        /* \"#utility.yul\":4144:4154   */\n      dup1\n        /* \"#utility.yul\":4140:4142   */\n      0x40\n        /* \"#utility.yul\":4133:4155   */\n      mstore\n        /* \"#utility.yul\":3923:4161   */\n      pop\n        /* \"#utility.yul\":3880:4161   */\n      pop\n      pop\n      jump\t// out\n        /* \"#utility.yul\":4167:4296   */\n    tag_72:\n        /* \"#utility.yul\":4201:4207   */\n      0x00\n        /* \"#utility.yul\":4228:4248   */\n      tag_140\n      tag_53\n      jump\t// in\n    tag_140:\n        /* \"#utility.yul\":4218:4248   */\n      swap1\n      pop\n        /* \"#utility.yul\":4257:4290   */\n      tag_141\n        /* \"#utility.yul\":4285:4289   */\n      dup3\n        /* \"#utility.yul\":4277:4283   */\n      dup3\n        /* \"#utility.yul\":4257:4290   */\n      tag_71\n      jump\t// in\n    tag_141:\n        /* \"#utility.yul\":4167:4296   */\n      swap2\n      swap1\n      pop\n      jump\t// out\n        /* \"#utility.yul\":4302:4610   */\n    tag_73:\n        /* \"#utility.yul\":4364:4368   */\n      0x00\n        /* \"#utility.yul\":4454:4472   */\n      0xffffffffffffffff\n        /* \"#utility.yul\":4446:4452   */\n      dup3\n        /* \"#utility.yul\":4443:4473   */\n      gt\n        /* \"#utility.yul\":4440:4496   */\n      iszero\n      tag_143\n      jumpi\n        /* \"#utility.yul\":4476:4494   */\n      tag_144\n      tag_70\n      jump\t// in\n    tag_144:\n        /* \"#utility.yul\":4440:4496   */\n    tag_143:\n        /* \"#utility.yul\":4514:4543   */\n      tag_145\n        /* \"#utility.yul\":4536:4542   */\n      dup3\n        /* \"#utility.yul\":4514:4543   */\n      tag_66\n      jump\t// in\n    tag_145:\n        /* \"#utility.yul\":4506:4543   */\n      swap1\n      pop\n        /* \"#utility.yul\":4598:4602   */\n      0x20\n        /* \"#utility.yul\":4592:4596   */\n      dup2\n        /* \"#utility.yul\":4588:4603   */\n      add\n        /* \"#utility.yul\":4580:4603   */\n      swap1\n      pop\n        /* \"#utility.yul\":4302:4610   */\n      swap2\n      swap1\n      pop\n      jump\t// out\n        /* \"#utility.yul\":4616:4764   */\n    tag_74:\n        /* \"#utility.yul\":4714:4720   */\n      dup3\n        /* \"#utility.yul\":4709:4712   */\n      dup2\n        /* \"#utility.yul\":4704:4707   */\n      dup4\n        /* \"#utility.yul\":4691:4721   */\n      calldatacopy\n        /* \"#utility.yul\":4755:4756   */\n      0x00\n        /* \"#utility.yul\":4746:4752   */\n      dup4\n        /* \"#utility.yul\":4741:4744   */\n      dup4\n        /* \"#utility.yul\":4737:4753   */\n      add\n        /* \"#utility.yul\":4730:4757   */\n      mstore\n        /* \"#utility.yul\":4616:4764   */\n      pop\n      pop\n      pop\n      jump\t// out\n        /* \"#utility.yul\":4770:5195   */\n    tag_75:\n        /* \"#utility.yul\":4848:4853   */\n      0x00\n        /* \"#utility.yul\":4873:4939   */\n      tag_148\n        /* \"#utility.yul\":4889:4938   */\n      tag_149\n        /* \"#utility.yul\":4931:4937   */\n      dup5\n        /* \"#utility.yul\":4889:4938   */\n      tag_73\n      jump\t// in\n    tag_149:\n        /* \"#utility.yul\":4873:4939   */\n      tag_72\n      jump\t// in\n    tag_148:\n        /* \"#utility.yul\":4864:4939   */\n      swap1\n      pop\n        /* \"#utility.yul\":4962:4968   */\n      dup3\n        /* \"#utility.yul\":4955:4960   */\n      dup2\n        /* \"#utility.yul\":4948:4969   */\n      mstore\n        /* \"#utility.yul\":5000:5004   */\n      0x20\n        /* \"#utility.yul\":4993:4998   */\n      dup2\n        /* \"#utility.yul\":4989:5005   */\n      add\n        /* \"#utility.yul\":5038:5041   */\n      dup5\n        /* \"#utility.yul\":5029:5035   */\n      dup5\n        /* \"#utility.yul\":5024:5027   */\n      dup5\n        /* \"#utility.yul\":5020:5036   */\n      add\n        /* \"#utility.yul\":5017:5042   */\n      gt\n        /* \"#utility.yul\":5014:5126   */\n      iszero\n      tag_150\n      jumpi\n        /* \"#utility.yul\":5045:5124   */\n      tag_151\n      tag_69\n      jump\t// in\n    tag_151:\n        /* \"#utility.yul\":5014:5126   */\n    tag_150:\n        /* \"#utility.yul\":5135:5189   */\n      tag_152\n        /* \"#utility.yul\":5182:5188   */\n      dup5\n        /* \"#utility.yul\":5177:5180   */\n      dup3\n        /* \"#utility.yul\":5172:5175   */\n      dup6\n        /* \"#utility.yul\":5135:5189   */\n      tag_74\n      jump\t// in\n    tag_152:\n        /* \"#utility.yul\":4854:5195   */\n      pop\n        /* \"#utility.yul\":4770:5195   */\n      swap4\n      swap3\n      pop\n      pop\n      pop\n      jump\t// out\n        /* \"#utility.yul\":5215:5555   */\n    tag_76:\n        /* \"#utility.yul\":5271:5276   */\n      0x00\n        /* \"#utility.yul\":5320:5323   */\n      dup3\n        /* \"#utility.yul\":5313:5317   */\n      0x1f\n        /* \"#utility.yul\":5305:5311   */\n      dup4\n        /* \"#utility.yul\":5301:5318   */\n      add\n        /* \"#utility.yul\":5297:5324   */\n      slt\n        /* \"#utility.yul\":5287:5409   */\n      tag_154\n      jumpi\n        /* \"#utility.yul\":5328:5407   */\n      tag_155\n      tag_68\n      jump\t// in\n    tag_155:\n        /* \"#utility.yul\":5287:5409   */\n    tag_154:\n        /* \"#utility.yul\":5445:5451   */\n      dup2\n        /* \"#utility.yul\":5432:5452   */\n      calldataload\n        /* \"#utility.yul\":5470:5549   */\n      tag_156\n        /* \"#utility.yul\":5545:5548   */\n      dup5\n        /* \"#utility.yul\":5537:5543   */\n      dup3\n        /* \"#utility.yul\":5530:5534   */\n      0x20\n        /* \"#utility.yul\":5522:5528   */\n      dup7\n        /* \"#utility.yul\":5518:5535   */\n      add\n        /* \"#utility.yul\":5470:5549   */\n      tag_75\n      jump\t// in\n    tag_156:\n        /* \"#utility.yul\":5461:5549   */\n      swap2\n      pop\n        /* \"#utility.yul\":5277:5555   */\n      pop\n        /* \"#utility.yul\":5215:5555   */\n      swap3\n      swap2\n      pop\n      pop\n      jump\t// out\n        /* \"#utility.yul\":5561:6540   */\n    tag_20:\n        /* \"#utility.yul\":5658:5664   */\n      0x00\n        /* \"#utility.yul\":5666:5672   */\n      0x00\n        /* \"#utility.yul\":5674:5680   */\n      0x00\n        /* \"#utility.yul\":5723:5725   */\n      0x60\n        /* \"#utility.yul\":5711:5720   */\n      dup5\n        /* \"#utility.yul\":5702:5709   */\n      dup7\n        /* \"#utility.yul\":5698:5721   */\n      sub\n        /* \"#utility.yul\":5694:5726   */\n      slt\n        /* \"#utility.yul\":5691:5810   */\n      iszero\n      tag_158\n      jumpi\n        /* \"#utility.yul\":5729:5808   */\n      tag_159\n      tag_54\n      jump\t// in\n    tag_159:\n        /* \"#utility.yul\":5691:5810   */\n    tag_158:\n        /* \"#utility.yul\":5877:5878   */\n      0x00\n        /* \"#utility.yul\":5866:5875   */\n      dup5\n        /* \"#utility.yul\":5862:5879   */\n      add\n        /* \"#utility.yul\":5849:5880   */\n      calldataload\n        /* \"#utility.yul\":5907:5925   */\n      0xffffffffffffffff\n        /* \"#utility.yul\":5899:5905   */\n      dup2\n        /* \"#utility.yul\":5896:5926   */\n      gt\n        /* \"#utility.yul\":5893:6010   */\n      iszero\n      tag_160\n      jumpi\n        /* \"#utility.yul\":5929:6008   */\n      tag_161\n      tag_55\n      jump\t// in\n    tag_161:\n        /* \"#utility.yul\":5893:6010   */\n    tag_160:\n        /* \"#utility.yul\":6034:6097   */\n      tag_162\n        /* \"#utility.yul\":6089:6096   */\n      dup7\n        /* \"#utility.yul\":6080:6086   */\n      dup3\n        /* \"#utility.yul\":6069:6078   */\n      dup8\n        /* \"#utility.yul\":6065:6087   */\n      add\n        /* \"#utility.yul\":6034:6097   */\n      tag_76\n      jump\t// in\n    tag_162:\n        /* \"#utility.yul\":6024:6097   */\n      swap4\n      pop\n        /* \"#utility.yul\":5820:6107   */\n      pop\n        /* \"#utility.yul\":6174:6176   */\n      0x20\n        /* \"#utility.yul\":6163:6172   */\n      dup5\n        /* \"#utility.yul\":6159:6177   */\n      add\n        /* \"#utility.yul\":6146:6178   */\n      calldataload\n        /* \"#utility.yul\":6205:6223   */\n      0xffffffffffffffff\n        /* \"#utility.yul\":6197:6203   */\n      dup2\n        /* \"#utility.yul\":6194:6224   */\n      gt\n        /* \"#utility.yul\":6191:6308   */\n      iszero\n      tag_163\n      jumpi\n        /* \"#utility.yul\":6227:6306   */\n      tag_164\n      tag_55\n      jump\t// in\n    tag_164:\n        /* \"#utility.yul\":6191:6308   */\n    tag_163:\n        /* \"#utility.yul\":6332:6395   */\n      tag_165\n        /* \"#utility.yul\":6387:6394   */\n      dup7\n        /* \"#utility.yul\":6378:6384   */\n      dup3\n        /* \"#utility.yul\":6367:6376   */\n      dup8\n        /* \"#utility.yul\":6363:6385   */\n      add\n        /* \"#utility.yul\":6332:6395   */\n      tag_76\n      jump\t// in\n    tag_165:\n        /* \"#utility.yul\":6322:6395   */\n      swap3\n      pop\n        /* \"#utility.yul\":6117:6405   */\n      pop\n        /* \"#utility.yul\":6444:6446   */\n      0x40\n        /* \"#utility.yul\":6470:6523   */\n      tag_166\n        /* \"#utility.yul\":6515:6522   */\n      dup7\n        /* \"#utility.yul\":6506:6512   */\n      dup3\n        /* \"#utility.yul\":6495:6504   */\n      dup8\n        /* \"#utility.yul\":6491:6513   */\n      add\n        /* \"#utility.yul\":6470:6523   */\n      tag_62\n      jump\t// in\n    tag_166:\n        /* \"#utility.yul\":6460:6523   */\n      swap2\n      pop\n        /* \"#utility.yul\":6415:6533   */\n      pop\n        /* \"#utility.yul\":5561:6540   */\n      swap3\n      pop\n      swap3\n      pop\n      swap3\n      jump\t// out\n        /* \"#utility.yul\":6546:6726   */\n    tag_77:\n        /* \"#utility.yul\":6594:6671   */\n      0x4e487b7100000000000000000000000000000000000000000000000000000000\n        /* \"#utility.yul\":6591:6592   */\n      0x00\n        /* \"#utility.yul\":6584:6672   */\n      mstore\n        /* \"#utility.yul\":6691:6695   */\n      0x22\n        /* \"#utility.yul\":6688:6689   */\n      0x04\n        /* \"#utility.yul\":6681:6696   */\n      mstore\n        /* \"#utility.yul\":6715:6719   */\n      0x24\n        /* \"#utility.yul\":6712:6713   */\n      0x00\n        /* \"#utility.yul\":6705:6720   */\n      revert\n        /* \"#utility.yul\":6732:7052   */\n    tag_26:\n        /* \"#utility.yul\":6776:6782   */\n      0x00\n        /* \"#utility.yul\":6813:6814   */\n      0x02\n        /* \"#utility.yul\":6807:6811   */\n      dup3\n        /* \"#utility.yul\":6803:6815   */\n      div\n        /* \"#utility.yul\":6793:6815   */\n      swap1\n      pop\n        /* \"#utility.yul\":6860:6861   */\n      0x01\n        /* \"#utility.yul\":6854:6858   */\n      dup3\n        /* \"#utility.yul\":6850:6862   */\n      and\n        /* \"#utility.yul\":6881:6899   */\n      dup1\n        /* \"#utility.yul\":6871:6952   */\n      tag_169\n      jumpi\n        /* \"#utility.yul\":6937:6941   */\n      0x7f\n        /* \"#utility.yul\":6929:6935   */\n      dup3\n        /* \"#utility.yul\":6925:6942   */\n      and\n        /* \"#utility.yul\":6915:6942   */\n      swap2\n      pop\n        /* \"#utility.yul\":6871:6952   */\n    tag_169:\n        /* \"#utility.yul\":6999:7001   */\n      0x20\n        /* \"#utility.yul\":6991:6997   */\n      dup3\n        /* \"#utility.yul\":6988:7002   */\n      lt\n        /* \"#utility.yul\":6968:6986   */\n      dup2\n        /* \"#utility.yul\":6965:7003   */\n      sub\n        /* \"#utility.yul\":6962:7046   */\n      tag_170\n      jumpi\n        /* \"#utility.yul\":7018:7036   */\n      tag_171\n      tag_77\n      jump\t// in\n    tag_171:\n        /* \"#utility.yul\":6962:7046   */\n    tag_170:\n        /* \"#utility.yul\":6783:7052   */\n      pop\n        /* \"#utility.yul\":6732:7052   */\n      swap2\n      swap1\n      pop\n      jump\t// out\n        /* \"#utility.yul\":7058:7199   */\n    tag_78:\n        /* \"#utility.yul\":7107:7111   */\n      0x00\n        /* \"#utility.yul\":7130:7133   */\n      dup2\n        /* \"#utility.yul\":7122:7133   */\n      swap1\n      pop\n        /* \"#utility.yul\":7153:7156   */\n      dup2\n        /* \"#utility.yul\":7150:7151   */\n      0x00\n        /* \"#utility.yul\":7143:7157   */\n      mstore\n        /* \"#utility.yul\":7187:7191   */\n      0x20\n        /* \"#utility.yul\":7184:7185   */\n      0x00\n        /* \"#utility.yul\":7174:7192   */\n      keccak256\n        /* \"#utility.yul\":7166:7192   */\n      swap1\n      pop\n        /* \"#utility.yul\":7058:7199   */\n      swap2\n      swap1\n      pop\n      jump\t// out\n        /* \"#utility.yul\":7205:7298   */\n    tag_79:\n        /* \"#utility.yul\":7242:7248   */\n      0x00\n        /* \"#utility.yul\":7289:7291   */\n      0x20\n        /* \"#utility.yul\":7284:7286   */\n      0x1f\n        /* \"#utility.yul\":7277:7282   */\n      dup4\n        /* \"#utility.yul\":7273:7287   */\n      add\n        /* \"#utility.yul\":7269:7292   */\n      div\n        /* \"#utility.yul\":7259:7292   */\n      swap1\n      pop\n        /* \"#utility.yul\":7205:7298   */\n      swap2\n      swap1\n      pop\n      jump\t// out\n        /* \"#utility.yul\":7304:7411   */\n    tag_80:\n        /* \"#utility.yul\":7348:7356   */\n      0x00\n        /* \"#utility.yul\":7398:7403   */\n      dup3\n        /* \"#utility.yul\":7392:7396   */\n      dup3\n        /* \"#utility.yul\":7388:7404   */\n      shl\n        /* \"#utility.yul\":7367:7404   */\n      swap1\n      pop\n        /* \"#utility.yul\":7304:7411   */\n      swap3\n      swap2\n      pop\n      pop\n      jump\t// out\n        /* \"#utility.yul\":7417:7810   */\n    tag_81:\n        /* \"#utility.yul\":7486:7492   */\n      0x00\n        /* \"#utility.yul\":7536:7537   */\n      0x08\n        /* \"#utility.yul\":7524:7534   */\n      dup4\n        /* \"#utility.yul\":7520:7538   */\n      mul\n        /* \"#utility.yul\":7559:7656   */\n      tag_176\n        /* \"#utility.yul\":7589:7655   */\n      0xffffffffffffffffffffffffffffffffffffffffffffffffffffffffffffffff\n        /* \"#utility.yul\":7578:7587   */\n      dup3\n        /* \"#utility.yul\":7559:7656   */\n      tag_80\n      jump\t// in\n    tag_176:\n        /* \"#utility.yul\":7677:7716   */\n      tag_177\n        /* \"#utility.yul\":7707:7715   */\n      dup7\n        /* \"#utility.yul\":7696:7705   */\n      dup4\n        /* \"#utility.yul\":7677:7716   */\n      tag_80\n      jump\t// in\n    tag_177:\n        /* \"#utility.yul\":7665:7716   */\n      swap6\n      pop\n        /* \"#utility.yul\":7749:7753   */\n      dup1\n        /* \"#utility.yul\":7745:7754   */\n      not\n        /* \"#utility.yul\":7738:7743   */\n      dup5\n        /* \"#utility.yul\":7734:7755   */\n      and\n        /* \"#utility.yul\":7725:7755   */\n      swap4\n      pop\n        /* \"#utility.yul\":7798:7802   */\n      dup1\n        /* \"#utility.yul\":7788:7796   */\n      dup7\n        /* \"#utility.yul\":7784:7803   */\n      and\n        /* \"#utility.yul\":7777:7782   */\n      dup5\n        /* \"#utility.yul\":7774:7804   */\n      or\n        /* \"#utility.yul\":7764:7804   */\n      swap3\n      pop\n        /* \"#utility.yul\":7493:7810   */\n      pop\n      pop\n        /* \"#utility.yul\":7417:7810   */\n      swap4\n      swap3\n      pop\n      pop\n      pop\n      jump\t// out\n        /* \"#utility.yul\":7816:7876   */\n    tag_82:\n        /* \"#utility.yul\":7844:7847   */\n      0x00\n        /* \"#utility.yul\":7865:7870   */\n      dup2\n        /* \"#utility.yul\":7858:7870   */\n      swap1\n      pop\n        /* \"#utility.yul\":7816:7876   */\n      swap2\n      swap1\n      pop\n      jump\t// out\n        /* \"#utility.yul\":7882:8024   */\n    tag_83:\n        /* \"#utility.yul\":7932:7941   */\n      0x00\n        /* \"#utility.yul\":7965:8018   */\n      tag_180\n        /* \"#utility.yul\":7983:8017   */\n      tag_181\n        /* \"#utility.yul\":7992:8016   */\n      tag_182\n        /* \"#utility.yul\":8010:8015   */\n      dup5\n        /* \"#utility.yul\":7992:8016   */\n      tag_60\n      jump\t// in\n    tag_182:\n        /* \"#utility.yul\":7983:8017   */\n      tag_82\n      jump\t// in\n    tag_181:\n        /* \"#utility.yul\":7965:8018   */\n      tag_60\n      jump\t// in\n    tag_180:\n        /* \"#utility.yul\":7952:8018   */\n      swap1\n      pop\n        /* \"#utility.yul\":7882:8024   */\n      swap2\n      swap1\n      pop\n      jump\t// out\n        /* \"#utility.yul\":8030:8105   */\n    tag_84:\n        /* \"#utility.yul\":8073:8076   */\n      0x00\n        /* \"#utility.yul\":8094:8099   */\n      dup2\n        /* \"#utility.yul\":8087:8099   */\n      swap1\n      pop\n        /* \"#utility.yul\":8030:8105   */\n      swap2\n      swap1\n      pop\n      jump\t// out\n        /* \"#utility.yul\":8111:8380   */\n    tag_85:\n        /* \"#utility.yul\":8221:8260   */\n      tag_185\n        /* \"#utility.yul\":8252:8259   */\n      dup4\n        /* \"#utility.yul\":8221:8260   */\n      tag_83\n      jump\t// in\n    tag_185:\n        /* \"#utility.yul\":8282:8373   */\n      tag_186\n        /* \"#utility.yul\":8331:8372   */\n      tag_187\n        /* \"#utility.yul\":8355:8371   */\n      dup3\n        /* \"#utility.yul\":8331:8372   */\n      tag_84\n      jump\t// in\n    tag_187:\n        /* \"#utility.yul\":8323:8329   */\n      dup5\n        /* \"#utility.yul\":8316:8320   */\n      dup5\n        /* \"#utility.yul\":8310:8321   */\n      sload\n        /* \"#utility.yul\":8282:8373   */\n      tag_81\n      jump\t// in\n    tag_186:\n        /* \"#utility.yul\":8276:8280   */\n      dup3\n        /* \"#utility.yul\":8269:8374   */\n      sstore\n        /* \"#utility.yul\":8187:8380   */\n      pop\n        /* \"#utility.yul\":8111:8380   */\n      pop\n      pop\n      pop\n      jump\t// out\n        /* \"#utility.yul\":8386:8459   */\n    tag_86:\n        /* \"#utility.yul\":8431:8434   */\n      0x00\n        /* \"#utility.yul\":8452:8453   */\n      0x00\n        /* \"#utility.yul\":8445:8453   */\n      swap1\n      pop\n        /* \"#utility.yul\":8386:8459   */\n      swap1\n      jump\t// out\n        /* \"#utility.yul\":8465:8654   */\n    tag_87:\n        /* \"#utility.yul\":8542:8574   */\n      tag_190\n      tag_86\n      jump\t// in\n    tag_190:\n        /* \"#utility.yul\":8583:8648   */\n      tag_191\n        /* \"#utility.yul\":8641:8647   */\n      dup2\n        /* \"#utility.yul\":8633:8639   */\n      dup5\n        /* \"#utility.yul\":8627:8631   */\n      dup5\n        /* \"#utility.yul\":8583:8648   */\n      tag_85\n      jump\t// in\n    tag_191:\n        /* \"#utility.yul\":8518:8654   */\n      pop\n        /* \"#utility.yul\":8465:8654   */\n      pop\n      pop\n      jump\t// out\n        /* \"#utility.yul\":8660:8846   */\n    tag_88:\n        /* \"#utility.yul\":8720:8840   */\n    tag_193:\n        /* \"#utility.yul\":8737:8740   */\n      dup2\n        /* \"#utility.yul\":8730:8735   */\n      dup2\n        /* \"#utility.yul\":8727:8741   */\n      lt\n        /* \"#utility.yul\":8720:8840   */\n      iszero\n      tag_195\n      jumpi\n        /* \"#utility.yul\":8791:8830   */\n      tag_196\n        /* \"#utility.yul\":8828:8829   */\n      0x00\n        /* \"#utility.yul\":8821:8826   */\n      dup3\n        /* \"#utility.yul\":8791:8830   */\n      tag_87\n      jump\t// in\n    tag_196:\n        /* \"#utility.yul\":8764:8765   */\n      0x01\n        /* \"#utility.yul\":8757:8762   */\n      dup2\n        /* \"#utility.yul\":8753:8766   */\n      add\n        /* \"#utility.yul\":8744:8766   */\n      swap1\n      pop\n        /* \"#utility.yul\":8720:8840   */\n      jump(tag_193)\n    tag_195:\n        /* \"#utility.yul\":8660:8846   */\n      pop\n      pop\n      jump\t// out\n        /* \"#utility.yul\":8852:9395   */\n    tag_89:\n        /* \"#utility.yul\":8953:8955   */\n      0x1f\n        /* \"#utility.yul\":8948:8951   */\n      dup3\n        /* \"#utility.yul\":8945:8956   */\n      gt\n        /* \"#utility.yul\":8942:9388   */\n      iszero\n      tag_198\n      jumpi\n        /* \"#utility.yul\":8987:9025   */\n      tag_199\n        /* \"#utility.yul\":9019:9024   */\n      dup2\n        /* \"#utility.yul\":8987:9025   */\n      tag_78\n      jump\t// in\n    tag_199:\n        /* \"#utility.yul\":9071:9100   */\n      tag_200\n        /* \"#utility.yul\":9089:9099   */\n      dup5\n        /* \"#utility.yul\":9071:9100   */\n      tag_79\n      jump\t// in\n    tag_200:\n        /* \"#utility.yul\":9061:9069   */\n      dup2\n        /* \"#utility.yul\":9057:9101   */\n      add\n        /* \"#utility.yul\":9254:9256   */\n      0x20\n        /* \"#utility.yul\":9242:9252   */\n      dup6\n        /* \"#utility.yul\":9239:9257   */\n      lt\n        /* \"#utility.yul\":9236:9285   */\n      iszero\n      tag_201\n      jumpi\n        /* \"#utility.yul\":9275:9283   */\n      dup2\n        /* \"#utility.yul\":9260:9283   */\n      swap1\n      pop\n        /* \"#utility.yul\":9236:9285   */\n    tag_201:\n        /* \"#utility.yul\":9298:9378   */\n      tag_202\n        /* \"#utility.yul\":9354:9376   */\n      tag_203\n        /* \"#utility.yul\":9372:9375   */\n      dup6\n        /* \"#utility.yul\":9354:9376   */\n      tag_79\n      jump\t// in\n    tag_203:\n        /* \"#utility.yul\":9344:9352   */\n      dup4\n        /* \"#utility.yul\":9340:9377   */\n      add\n        /* \"#utility.yul\":9327:9338   */\n      dup3\n        /* \"#utility.yul\":9298:9378   */\n      tag_88\n      jump\t// in\n    tag_202:\n        /* \"#utility.yul\":8957:9388   */\n      pop\n      pop\n        /* \"#utility.yul\":8942:9388   */\n    tag_198:\n        /* \"#utility.yul\":8852:9395   */\n      pop\n      pop\n      pop\n      jump\t// out\n        /* \"#utility.yul\":9401:9518   */\n    tag_90:\n        /* \"#utility.yul\":9455:9463   */\n      0x00\n        /* \"#utility.yul\":9505:9510   */\n      dup3\n        /* \"#utility.yul\":9499:9503   */\n      dup3\n        /* \"#utility.yul\":9495:9511   */\n      shr\n        /* \"#utility.yul\":9474:9511   */\n      swap1\n      pop\n        /* \"#utility.yul\":9401:9518   */\n      swap3\n      swap2\n      pop\n      pop\n      jump\t// out\n        /* \"#utility.yul\":9524:9693   */\n    tag_91:\n        /* \"#utility.yul\":9568:9574   */\n      0x00\n        /* \"#utility.yul\":9601:9652   */\n      tag_206\n        /* \"#utility.yul\":9649:9650   */\n      0x00\n        /* \"#utility.yul\":9645:9651   */\n      not\n        /* \"#utility.yul\":9637:9642   */\n      dup5\n        /* \"#utility.yul\":9634:9635   */\n      0x08\n        /* \"#utility.yul\":9630:9643   */\n      mul\n        /* \"#utility.yul\":9601:9652   */\n      tag_90\n      jump\t// in\n    tag_206:\n        /* \"#utility.yul\":9597:9653   */\n      not\n        /* \"#utility.yul\":9682:9686   */\n      dup1\n        /* \"#utility.yul\":9676:9680   */\n      dup4\n        /* \"#utility.yul\":9672:9687   */\n      and\n        /* \"#utility.yul\":9662:9687   */\n      swap2\n      pop\n        /* \"#utility.yul\":9575:9693   */\n      pop\n        /* \"#utility.yul\":9524:9693   */\n      swap3\n      swap2\n      pop\n      pop\n      jump\t// out\n        /* \"#utility.yul\":9698:9993   */\n    tag_92:\n        /* \"#utility.yul\":9774:9778   */\n      0x00\n        /* \"#utility.yul\":9920:9949   */\n      tag_208\n        /* \"#utility.yul\":9945:9948   */\n      dup4\n        /* \"#utility.yul\":9939:9943   */\n      dup4\n        /* \"#utility.yul\":9920:9949   */\n      tag_91\n      jump\t// in\n    tag_208:\n        /* \"#utility.yul\":9912:9949   */\n      swap2\n      pop\n        /* \"#utility.yul\":9982:9985   */\n      dup3\n        /* \"#utility.yul\":9979:9980   */\n      0x02\n        /* \"#utility.yul\":9975:9986   */\n      mul\n        /* \"#utility.yul\":9969:9973   */\n      dup3\n        /* \"#utility.yul\":9966:9987   */\n      or\n        /* \"#utility.yul\":9958:9987   */\n      swap1\n      pop\n        /* \"#utility.yul\":9698:9993   */\n      swap3\n      swap2\n      pop\n      pop\n      jump\t// out\n        /* \"#utility.yul\":9998:11393   */\n    tag_48:\n        /* \"#utility.yul\":10115:10152   */\n      tag_210\n        /* \"#utility.yul\":10148:10151   */\n      dup3\n        /* \"#utility.yul\":10115:10152   */\n      tag_63\n      jump\t// in\n    tag_210:\n        /* \"#utility.yul\":10217:10235   */\n      0xffffffffffffffff\n        /* \"#utility.yul\":10209:10215   */\n      dup2\n        /* \"#utility.yul\":10206:10236   */\n      gt\n        /* \"#utility.yul\":10203:10259   */\n      iszero\n      tag_211\n      jumpi\n        /* \"#utility.yul\":10239:10257   */\n      tag_212\n      tag_70\n      jump\t// in\n    tag_212:\n        /* \"#utility.yul\":10203:10259   */\n    tag_211:\n        /* \"#utility.yul\":10283:10321   */\n      tag_213\n        /* \"#utility.yul\":10315:10319   */\n      dup3\n        /* \"#utility.yul\":10309:10320   */\n      sload\n        /* \"#utility.yul\":10283:10321   */\n      tag_26\n      jump\t// in\n    tag_213:\n        /* \"#utility.yul\":10368:10435   */\n      tag_214\n        /* \"#utility.yul\":10428:10434   */\n      dup3\n        /* \"#utility.yul\":10420:10426   */\n      dup3\n        /* \"#utility.yul\":10414:10418   */\n      dup6\n        /* \"#utility.yul\":10368:10435   */\n      tag_89\n      jump\t// in\n    tag_214:\n        /* \"#utility.yul\":10462:10463   */\n      0x00\n        /* \"#utility.yul\":10486:10490   */\n      0x20\n        /* \"#utility.yul\":10473:10490   */\n      swap1\n      pop\n        /* \"#utility.yul\":10518:10520   */\n      0x1f\n        /* \"#utility.yul\":10510:10516   */\n      dup4\n        /* \"#utility.yul\":10507:10521   */\n      gt\n        /* \"#utility.yul\":10535:10536   */\n      0x01\n        /* \"#utility.yul\":10530:11148   */\n      dup2\n      eq\n      tag_216\n      jumpi\n        /* \"#utility.yul\":11192:11193   */\n      0x00\n        /* \"#utility.yul\":11209:11215   */\n      dup5\n        /* \"#utility.yul\":11206:11283   */\n      iszero\n      tag_217\n      jumpi\n        /* \"#utility.yul\":11258:11267   */\n      dup3\n        /* \"#utility.yul\":11253:11256   */\n      dup8\n        /* \"#utility.yul\":11249:11268   */\n      add\n        /* \"#utility.yul\":11243:11269   */\n      mload\n        /* \"#utility.yul\":11234:11269   */\n      swap1\n      pop\n        /* \"#utility.yul\":11206:11283   */\n    tag_217:\n        /* \"#utility.yul\":11309:11376   */\n      tag_218\n        /* \"#utility.yul\":11369:11375   */\n      dup6\n        /* \"#utility.yul\":11362:11367   */\n      dup3\n        /* \"#utility.yul\":11309:11376   */\n      tag_92\n      jump\t// in\n    tag_218:\n        /* \"#utility.yul\":11303:11307   */\n      dup7\n        /* \"#utility.yul\":11296:11377   */\n      sstore\n        /* \"#utility.yul\":11165:11387   */\n      pop\n        /* \"#utility.yul\":10500:11387   */\n      jump(tag_215)\n        /* \"#utility.yul\":10530:11148   */\n    tag_216:\n        /* \"#utility.yul\":10582:10586   */\n      0x1f\n        /* \"#utility.yul\":10578:10587   */\n      not\n        /* \"#utility.yul\":10570:10576   */\n      dup5\n        /* \"#utility.yul\":10566:10588   */\n      and\n        /* \"#utility.yul\":10616:10653   */\n      tag_219\n        /* \"#utility.yul\":10648:10652   */\n      dup7\n        /* \"#utility.yul\":10616:10653   */\n      tag_78\n      jump\t// in\n    tag_219:\n        /* \"#utility.yul\":10675:10676   */\n      0x00\n        /* \"#utility.yul\":10689:10897   */\n    tag_220:\n        /* \"#utility.yul\":10703:10710   */\n      dup3\n        /* \"#utility.yul\":10700:10701   */\n      dup2\n        /* \"#utility.yul\":10697:10711   */\n      lt\n        /* \"#utility.yul\":10689:10897   */\n      iszero\n      tag_222\n      jumpi\n        /* \"#utility.yul\":10782:10791   */\n      dup5\n        /* \"#utility.yul\":10777:10780   */\n      dup10\n        /* \"#utility.yul\":10773:10792   */\n      add\n        /* \"#utility.yul\":10767:10793   */\n      mload\n        /* \"#utility.yul\":10759:10765   */\n      dup3\n        /* \"#utility.yul\":10752:10794   */\n      sstore\n        /* \"#utility.yul\":10833:10834   */\n      0x01\n        /* \"#utility.yul\":10825:10831   */\n      dup3\n        /* \"#utility.yul\":10821:10835   */\n      add\n        /* \"#utility.yul\":10811:10835   */\n      swap2\n      pop\n        /* \"#utility.yul\":10880:10882   */\n      0x20\n        /* \"#utility.yul\":10869:10878   */\n      dup6\n        /* \"#utility.yul\":10865:10883   */\n      add\n        /* \"#utility.yul\":10852:10883   */\n      swap5\n      pop\n        /* \"#utility.yul\":10726:10730   */\n      0x20\n        /* \"#utility.yul\":10723:10724   */\n      dup2\n        /* \"#utility.yul\":10719:10731   */\n      add\n        /* \"#utility.yul\":10714:10731   */\n      swap1\n      pop\n        /* \"#utility.yul\":10689:10897   */\n      jump(tag_220)\n    tag_222:\n        /* \"#utility.yul\":10925:10931   */\n      dup7\n        /* \"#utility.yul\":10916:10923   */\n      dup4\n        /* \"#utility.yul\":10913:10932   */\n      lt\n        /* \"#utility.yul\":10910:11089   */\n      iszero\n      tag_223\n      jumpi\n        /* \"#utility.yul\":10983:10992   */\n      dup5\n        /* \"#utility.yul\":10978:10981   */\n      dup10\n        /* \"#utility.yul\":10974:10993   */\n      add\n        /* \"#utility.yul\":10968:10994   */\n      mload\n        /* \"#utility.yul\":11026:11074   */\n      tag_224\n        /* \"#utility.yul\":11068:11072   */\n      0x1f\n        /* \"#utility.yul\":11060:11066   */\n      dup10\n        /* \"#utility.yul\":11056:11073   */\n      and\n        /* \"#utility.yul\":11045:11054   */\n      dup3\n        /* \"#utility.yul\":11026:11074   */\n      tag_91\n      jump\t// in\n    tag_224:\n        /* \"#utility.yul\":11018:11024   */\n      dup4\n        /* \"#utility.yul\":11011:11075   */\n      sstore\n        /* \"#utility.yul\":10933:11089   */\n      pop\n        /* \"#utility.yul\":10910:11089   */\n    tag_223:\n        /* \"#utility.yul\":11135:11136   */\n      0x01\n        /* \"#utility.yul\":11131:11132   */\n      0x02\n        /* \"#utility.yul\":11123:11129   */\n      dup9\n        /* \"#utility.yul\":11119:11133   */\n      mul\n        /* \"#utility.yul\":11115:11137   */\n      add\n        /* \"#utility.yul\":11109:11113   */\n      dup9\n        /* \"#utility.yul\":11102:11138   */\n      sstore\n        /* \"#utility.yul\":10537:11148   */\n      pop\n      pop\n      pop\n        /* \"#utility.yul\":10500:11387   */\n    tag_215:\n      pop\n        /* \"#utility.yul\":10090:11393   */\n      pop\n      pop\n      pop\n        /* \"#utility.yul\":9998:11393   */\n      pop\n      pop\n      jump\t// out\n\n    auxdata: 0xa26469706673582212206906532f07818b59eb00f152fe9da004f7d1c7b5da4207f0c90ed3fd521893bd64736f6c634300081e0033\n}\n",
				"bytecode": {
					"linkReferences": {},
					"object": "6080604052348015600e575f5ffd5b50610a968061001c5f395ff3fe608060405234801561000f575f5ffd5b506004361061004a575f3560e01c806311f729901461004e578063d87ec4171461007f578063dad9909f146100b0578063f012666e146100cc575b5f5ffd5b610068600480360381019061006391906104d2565b6100e8565b604051610076929190610580565b60405180910390f35b610099600480360381019061009491906105b5565b61021f565b6040516100a7929190610580565b60405180910390f35b6100ca60048036038101906100c5919061070c565b61034a565b005b6100e660048036038101906100e1919061070c565b6103dd565b005b6001602052815f5260405f20602052805f5260405f205f9150915050805f018054610112906107c1565b80601f016020809104026020016040519081016040528092919081815260200182805461013e906107c1565b80156101895780601f1061016057610100808354040283529160200191610189565b820191905f5260205f20905b81548152906001019060200180831161016c57829003601f168201915b50505050509080600101805461019e906107c1565b80601f01602080910402602001604051908101604052809291908181526020018280546101ca906107c1565b80156102155780601f106101ec57610100808354040283529160200191610215565b820191905f5260205f20905b8154815290600101906020018083116101f857829003601f168201915b5050505050905082565b5f602052805f5260405f205f91509050805f01805461023d906107c1565b80601f0160208091040260200160405190810160405280929190818152602001828054610269906107c1565b80156102b45780601f1061028b576101008083540402835291602001916102b4565b820191905f5260205f20905b81548152906001019060200180831161029757829003601f168201915b5050505050908060010180546102c9906107c1565b80601f01602080910402602001604051908101604052809291908181526020018280546102f5906107c1565b80156103405780601f1061031757610100808354040283529160200191610340565b820191905f5260205f20905b81548152906001019060200180831161032357829003601f168201915b5050505050905082565b60405180604001604052808481526020018381525060015f3373ffffffffffffffffffffffffffffffffffffffff1673ffffffffffffffffffffffffffffffffffffffff1681526020019081526020015f205f8381526020019081526020015f205f820151815f0190816103be9190610991565b5060208201518160010190816103d49190610991565b50905050505050565b6040518060400160405280848152602001838152505f5f8381526020019081526020015f205f820151815f0190816104159190610991565b50602082015181600101908161042b9190610991565b50905050505050565b5f604051905090565b5f5ffd5b5f5ffd5b5f73ffffffffffffffffffffffffffffffffffffffff82169050919050565b5f61046e82610445565b9050919050565b61047e81610464565b8114610488575f5ffd5b50565b5f8135905061049981610475565b92915050565b5f819050919050565b6104b18161049f565b81146104bb575f5ffd5b50565b5f813590506104cc816104a8565b92915050565b5f5f604083850312156104e8576104e761043d565b5b5f6104f58582860161048b565b9250506020610506858286016104be565b9150509250929050565b5f81519050919050565b5f82825260208201905092915050565b8281835e5f83830152505050565b5f601f19601f8301169050919050565b5f61055282610510565b61055c818561051a565b935061056c81856020860161052a565b61057581610538565b840191505092915050565b5f6040820190508181035f8301526105988185610548565b905081810360208301526105ac8184610548565b90509392505050565b5f602082840312156105ca576105c961043d565b5b5f6105d7848285016104be565b91505092915050565b5f5ffd5b5f5ffd5b7f4e487b71000000000000000000000000000000000000000000000000000000005f52604160045260245ffd5b61061e82610538565b810181811067ffffffffffffffff8211171561063d5761063c6105e8565b5b80604052505050565b5f61064f610434565b905061065b8282610615565b919050565b5f67ffffffffffffffff82111561067a576106796105e8565b5b61068382610538565b9050602081019050919050565b828183375f83830152505050565b5f6106b06106ab84610660565b610646565b9050828152602081018484840111156106cc576106cb6105e4565b5b6106d7848285610690565b509392505050565b5f82601f8301126106f3576106f26105e0565b5b813561070384826020860161069e565b91505092915050565b5f5f5f606084860312156107235761072261043d565b5b5f84013567ffffffffffffffff8111156107405761073f610441565b5b61074c868287016106df565b935050602084013567ffffffffffffffff81111561076d5761076c610441565b5b610779868287016106df565b925050604061078a868287016104be565b9150509250925092565b7f4e487b71000000000000000000000000000000000000000000000000000000005f52602260045260245ffd5b5f60028204905060018216806107d857607f821691505b6020821081036107eb576107ea610794565b5b50919050565b5f819050815f5260205f209050919050565b5f6020601f8301049050919050565b5f82821b905092915050565b5f6008830261084d7fffffffffffffffffffffffffffffffffffffffffffffffffffffffffffffffff82610812565b6108578683610812565b95508019841693508086168417925050509392505050565b5f819050919050565b5f61089261088d6108888461049f565b61086f565b61049f565b9050919050565b5f819050919050565b6108ab83610878565b6108bf6108b782610899565b84845461081e565b825550505050565b5f5f905090565b6108d66108c7565b6108e18184846108a2565b505050565b5b81811015610904576108f95f826108ce565b6001810190506108e7565b5050565b601f8211156109495761091a816107f1565b61092384610803565b81016020851015610932578190505b61094661093e85610803565b8301826108e6565b50505b505050565b5f82821c905092915050565b5f6109695f198460080261094e565b1980831691505092915050565b5f610981838361095a565b9150826002028217905092915050565b61099a82610510565b67ffffffffffffffff8111156109b3576109b26105e8565b5b6109bd82546107c1565b6109c8828285610908565b5f60209050601f8311600181146109f9575f84156109e7578287015190505b6109f18582610976565b865550610a58565b601f198416610a07866107f1565b5f5b82811015610a2e57848901518255600182019150602085019450602081019050610a09565b86831015610a4b5784890151610a47601f89168261095a565b8355505b6001600288020188555050505b50505050505056fea26469706673582212206906532f07818b59eb00f152fe9da004f7d1c7b5da4207f0c90ed3fd521893bd64736f6c634300081e0033",
					"opcodes": "PUSH1 0x80 PUSH1 0x40 MSTORE CALLVALUE DUP1 ISZERO PUSH1 0xE JUMPI PUSH0 PUSH0 REVERT JUMPDEST POP PUSH2 0xA96 DUP1 PUSH2 0x1C PUSH0 CODECOPY PUSH0 RETURN INVALID PUSH1 0x80 PUSH1 0x40 MSTORE CALLVALUE DUP1 ISZERO PUSH2 0xF JUMPI PUSH0 PUSH0 REVERT JUMPDEST POP PUSH1 0x4 CALLDATASIZE LT PUSH2 0x4A JUMPI PUSH0 CALLDATALOAD PUSH1 0xE0 SHR DUP1 PUSH4 0x11F72990 EQ PUSH2 0x4E JUMPI DUP1 PUSH4 0xD87EC417 EQ PUSH2 0x7F JUMPI DUP1 PUSH4 0xDAD9909F EQ PUSH2 0xB0 JUMPI DUP1 PUSH4 0xF012666E EQ PUSH2 0xCC JUMPI JUMPDEST PUSH0 PUSH0 REVERT JUMPDEST PUSH2 0x68 PUSH1 0x4 DUP1 CALLDATASIZE SUB DUP2 ADD SWAP1 PUSH2 0x63 SWAP2 SWAP1 PUSH2 0x4D2 JUMP JUMPDEST PUSH2 0xE8 JUMP JUMPDEST PUSH1 0x40 MLOAD PUSH2 0x76 SWAP3 SWAP2 SWAP1 PUSH2 0x580 JUMP JUMPDEST PUSH1 0x40 MLOAD DUP1 SWAP2 SUB SWAP1 RETURN JUMPDEST PUSH2 0x99 PUSH1 0x4 DUP1 CALLDATASIZE SUB DUP2 ADD SWAP1 PUSH2 0x94 SWAP2 SWAP1 PUSH2 0x5B5 JUMP JUMPDEST PUSH2 0x21F JUMP JUMPDEST PUSH1 0x40 MLOAD PUSH2 0xA7 SWAP3 SWAP2 SWAP1 PUSH2 0x580 JUMP JUMPDEST PUSH1 0x40 MLOAD DUP1 SWAP2 SUB SWAP1 RETURN JUMPDEST PUSH2 0xCA PUSH1 0x4 DUP1 CALLDATASIZE SUB DUP2 ADD SWAP1 PUSH2 0xC5 SWAP2 SWAP1 PUSH2 0x70C JUMP JUMPDEST PUSH2 0x34A JUMP JUMPDEST STOP JUMPDEST PUSH2 0xE6 PUSH1 0x4 DUP1 CALLDATASIZE SUB DUP2 ADD SWAP1 PUSH2 0xE1 SWAP2 SWAP1 PUSH2 0x70C JUMP JUMPDEST PUSH2 0x3DD JUMP JUMPDEST STOP JUMPDEST PUSH1 0x1 PUSH1 0x20 MSTORE DUP2 PUSH0 MSTORE PUSH1 0x40 PUSH0 KECCAK256 PUSH1 0x20 MSTORE DUP1 PUSH0 MSTORE PUSH1 0x40 PUSH0 KECCAK256 PUSH0 SWAP2 POP SWAP2 POP POP DUP1 PUSH0 ADD DUP1 SLOAD PUSH2 0x112 SWAP1 PUSH2 0x7C1 JUMP JUMPDEST DUP1 PUSH1 0x1F ADD PUSH1 0x20 DUP1 SWAP2 DIV MUL PUSH1 0x20 ADD PUSH1 0x40 MLOAD SWAP1 DUP2 ADD PUSH1 0x40 MSTORE DUP1 SWAP3 SWAP2 SWAP1 DUP2 DUP2 MSTORE PUSH1 0x20 ADD DUP3 DUP1 SLOAD PUSH2 0x13E SWAP1 PUSH2 0x7C1 JUMP JUMPDEST DUP1 ISZERO PUSH2 0x189 JUMPI DUP1 PUSH1 0x1F LT PUSH2 0x160 JUMPI PUSH2 0x100 DUP1 DUP4 SLOAD DIV MUL DUP4 MSTORE SWAP2 PUSH1 0x20 ADD SWAP2 PUSH2 0x189 JUMP JUMPDEST DUP3 ADD SWAP2 SWAP1 PUSH0 MSTORE PUSH1 0x20 PUSH0 KECCAK256 SWAP1 JUMPDEST DUP2 SLOAD DUP2 MSTORE SWAP1 PUSH1 0x1 ADD SWAP1 PUSH1 0x20 ADD DUP1 DUP4 GT PUSH2 0x16C JUMPI DUP3 SWAP1 SUB PUSH1 0x1F AND DUP3 ADD SWAP2 JUMPDEST POP POP POP POP POP SWAP1 DUP1 PUSH1 0x1 ADD DUP1 SLOAD PUSH2 0x19E SWAP1 PUSH2 0x7C1 JUMP JUMPDEST DUP1 PUSH1 0x1F ADD PUSH1 0x20 DUP1 SWAP2 DIV MUL PUSH1 0x20 ADD PUSH1 0x40 MLOAD SWAP1 DUP2 ADD PUSH1 0x40 MSTORE DUP1 SWAP3 SWAP2 SWAP1 DUP2 DUP2 MSTORE PUSH1 0x20 ADD DUP3 DUP1 SLOAD PUSH2 0x1CA SWAP1 PUSH2 0x7C1 JUMP JUMPDEST DUP1 ISZERO PUSH2 0x215 JUMPI DUP1 PUSH1 0x1F LT PUSH2 0x1EC JUMPI PUSH2 0x100 DUP1 DUP4 SLOAD DIV MUL DUP4 MSTORE SWAP2 PUSH1 0x20 ADD SWAP2 PUSH2 0x215 JUMP JUMPDEST DUP3 ADD SWAP2 SWAP1 PUSH0 MSTORE PUSH1 0x20 PUSH0 KECCAK256 SWAP1 JUMPDEST DUP2 SLOAD DUP2 MSTORE SWAP1 PUSH1 0x1 ADD SWAP1 PUSH1 0x20 ADD DUP1 DUP4 GT PUSH2 0x1F8 JUMPI DUP3 SWAP1 SUB PUSH1 0x1F AND DUP3 ADD SWAP2 JUMPDEST POP POP POP POP POP SWAP1 POP DUP3 JUMP JUMPDEST PUSH0 PUSH1 0x20 MSTORE DUP1 PUSH0 MSTORE PUSH1 0x40 PUSH0 KECCAK256 PUSH0 SWAP2 POP SWAP1 POP DUP1 PUSH0 ADD DUP1 SLOAD PUSH2 0x23D SWAP1 PUSH2 0x7C1 JUMP JUMPDEST DUP1 PUSH1 0x1F ADD PUSH1 0x20 DUP1 SWAP2 DIV MUL PUSH1 0x20 ADD PUSH1 0x40 MLOAD SWAP1 DUP2 ADD PUSH1 0x40 MSTORE DUP1 SWAP3 SWAP2 SWAP1 DUP2 DUP2 MSTORE PUSH1 0x20 ADD DUP3 DUP1 SLOAD PUSH2 0x269 SWAP1 PUSH2 0x7C1 JUMP JUMPDEST DUP1 ISZERO PUSH2 0x2B4 JUMPI DUP1 PUSH1 0x1F LT PUSH2 0x28B JUMPI PUSH2 0x100 DUP1 DUP4 SLOAD DIV MUL DUP4 MSTORE SWAP2 PUSH1 0x20 ADD SWAP2 PUSH2 0x2B4 JUMP JUMPDEST DUP3 ADD SWAP2 SWAP1 PUSH0 MSTORE PUSH1 0x20 PUSH0 KECCAK256 SWAP1 JUMPDEST DUP2 SLOAD DUP2 MSTORE SWAP1 PUSH1 0x1 ADD SWAP1 PUSH1 0x20 ADD DUP1 DUP4 GT PUSH2 0x297 JUMPI DUP3 SWAP1 SUB PUSH1 0x1F AND DUP3 ADD SWAP2 JUMPDEST POP POP POP POP POP SWAP1 DUP1 PUSH1 0x1 ADD DUP1 SLOAD PUSH2 0x2C9 SWAP1 PUSH2 0x7C1 JUMP JUMPDEST DUP1 PUSH1 0x1F ADD PUSH1 0x20 DUP1 SWAP2 DIV MUL PUSH1 0x20 ADD PUSH1 0x40 MLOAD SWAP1 DUP2 ADD PUSH1 0x40 MSTORE DUP1 SWAP3 SWAP2 SWAP1 DUP2 DUP2 MSTORE PUSH1 0x20 ADD DUP3 DUP1 SLOAD PUSH2 0x2F5 SWAP1 PUSH2 0x7C1 JUMP JUMPDEST DUP1 ISZERO PUSH2 0x340 JUMPI DUP1 PUSH1 0x1F LT PUSH2 0x317 JUMPI PUSH2 0x100 DUP1 DUP4 SLOAD DIV MUL DUP4 MSTORE SWAP2 PUSH1 0x20 ADD SWAP2 PUSH2 0x340 JUMP JUMPDEST DUP3 ADD SWAP2 SWAP1 PUSH0 MSTORE PUSH1 0x20 PUSH0 KECCAK256 SWAP1 JUMPDEST DUP2 SLOAD DUP2 MSTORE SWAP1 PUSH1 0x1 ADD SWAP1 PUSH1 0x20 ADD DUP1 DUP4 GT PUSH2 0x323 JUMPI DUP3 SWAP1 SUB PUSH1 0x1F AND DUP3 ADD SWAP2 JUMPDEST POP POP POP POP POP SWAP1 POP DUP3 JUMP JUMPDEST PUSH1 0x40 MLOAD DUP1 PUSH1 0x40 ADD PUSH1 0x40 MSTORE DUP1 DUP5 DUP2 MSTORE PUSH1 0x20 ADD DUP4 DUP2 MSTORE POP PUSH1 0x1 PUSH0 CALLER PUSH20 0xFFFFFFFFFFFFFFFFFFFFFFFFFFFFFFFFFFFFFFFF AND PUSH20 0xFFFFFFFFFFFFFFFFFFFFFFFFFFFFFFFFFFFFFFFF AND DUP2 MSTORE PUSH1 0x20 ADD SWAP1 DUP2 MSTORE PUSH1 0x20 ADD PUSH0 KECCAK256 PUSH0 DUP4 DUP2 MSTORE PUSH1 0x20 ADD SWAP1 DUP2 MSTORE PUSH1 0x20 ADD PUSH0 KECCAK256 PUSH0 DUP3 ADD MLOAD DUP2 PUSH0 ADD SWAP1 DUP2 PUSH2 0x3BE SWAP2 SWAP1 PUSH2 0x991 JUMP JUMPDEST POP PUSH1 0x20 DUP3 ADD MLOAD DUP2 PUSH1 0x1 ADD SWAP1 DUP2 PUSH2 0x3D4 SWAP2 SWAP1 PUSH2 0x991 JUMP JUMPDEST POP SWAP1 POP POP POP POP POP JUMP JUMPDEST PUSH1 0x40 MLOAD DUP1 PUSH1 0x40 ADD PUSH1 0x40 MSTORE DUP1 DUP5 DUP2 MSTORE PUSH1 0x20 ADD DUP4 DUP2 MSTORE POP PUSH0 PUSH0 DUP4 DUP2 MSTORE PUSH1 0x20 ADD SWAP1 DUP2 MSTORE PUSH1 0x20 ADD PUSH0 KECCAK256 PUSH0 DUP3 ADD MLOAD DUP2 PUSH0 ADD SWAP1 DUP2 PUSH2 0x415 SWAP2 SWAP1 PUSH2 0x991 JUMP JUMPDEST POP PUSH1 0x20 DUP3 ADD MLOAD DUP2 PUSH1 0x1 ADD SWAP1 DUP2 PUSH2 0x42B SWAP2 SWAP1 PUSH2 0x991 JUMP JUMPDEST POP SWAP1 POP POP POP POP POP JUMP JUMPDEST PUSH0 PUSH1 0x40 MLOAD SWAP1 POP SWAP1 JUMP JUMPDEST PUSH0 PUSH0 REVERT JUMPDEST PUSH0 PUSH0 REVERT JUMPDEST PUSH0 PUSH20 0xFFFFFFFFFFFFFFFFFFFFFFFFFFFFFFFFFFFFFFFF DUP3 AND SWAP1 POP SWAP2 SWAP1 POP JUMP JUMPDEST PUSH0 PUSH2 0x46E DUP3 PUSH2 0x445 JUMP JUMPDEST SWAP1 POP SWAP2 SWAP1 POP JUMP JUMPDEST PUSH2 0x47E DUP2 PUSH2 0x464 JUMP JUMPDEST DUP2 EQ PUSH2 0x488 JUMPI PUSH0 PUSH0 REVERT JUMPDEST POP JUMP JUMPDEST PUSH0 DUP2 CALLDATALOAD SWAP1 POP PUSH2 0x499 DUP2 PUSH2 0x475 JUMP JUMPDEST SWAP3 SWAP2 POP POP JUMP JUMPDEST PUSH0 DUP2 SWAP1 POP SWAP2 SWAP1 POP JUMP JUMPDEST PUSH2 0x4B1 DUP2 PUSH2 0x49F JUMP JUMPDEST DUP2 EQ PUSH2 0x4BB JUMPI PUSH0 PUSH0 REVERT JUMPDEST POP JUMP JUMPDEST PUSH0 DUP2 CALLDATALOAD SWAP1 POP PUSH2 0x4CC DUP2 PUSH2 0x4A8 JUMP JUMPDEST SWAP3 SWAP2 POP POP JUMP JUMPDEST PUSH0 PUSH0 PUSH1 0x40 DUP4 DUP6 SUB SLT ISZERO PUSH2 0x4E8 JUMPI PUSH2 0x4E7 PUSH2 0x43D JUMP JUMPDEST JUMPDEST PUSH0 PUSH2 0x4F5 DUP6 DUP3 DUP7 ADD PUSH2 0x48B JUMP JUMPDEST SWAP3 POP POP PUSH1 0x20 PUSH2 0x506 DUP6 DUP3 DUP7 ADD PUSH2 0x4BE JUMP JUMPDEST SWAP2 POP POP SWAP3 POP SWAP3 SWAP1 POP JUMP JUMPDEST PUSH0 DUP2 MLOAD SWAP1 POP SWAP2 SWAP1 POP JUMP JUMPDEST PUSH0 DUP3 DUP3 MSTORE PUSH1 0x20 DUP3 ADD SWAP1 POP SWAP3 SWAP2 POP POP JUMP JUMPDEST DUP3 DUP2 DUP4 MCOPY PUSH0 DUP4 DUP4 ADD MSTORE POP POP POP JUMP JUMPDEST PUSH0 PUSH1 0x1F NOT PUSH1 0x1F DUP4 ADD AND SWAP1 POP SWAP2 SWAP1 POP JUMP JUMPDEST PUSH0 PUSH2 0x552 DUP3 PUSH2 0x510 JUMP JUMPDEST PUSH2 0x55C DUP2 DUP6 PUSH2 0x51A JUMP JUMPDEST SWAP4 POP PUSH2 0x56C DUP2 DUP6 PUSH1 0x20 DUP7 ADD PUSH2 0x52A JUMP JUMPDEST PUSH2 0x575 DUP2 PUSH2 0x538 JUMP JUMPDEST DUP5 ADD SWAP2 POP POP SWAP3 SWAP2 POP POP JUMP JUMPDEST PUSH0 PUSH1 0x40 DUP3 ADD SWAP1 POP DUP2 DUP2 SUB PUSH0 DUP4 ADD MSTORE PUSH2 0x598 DUP2 DUP6 PUSH2 0x548 JUMP JUMPDEST SWAP1 POP DUP2 DUP2 SUB PUSH1 0x20 DUP4 ADD MSTORE PUSH2 0x5AC DUP2 DUP5 PUSH2 0x548 JUMP JUMPDEST SWAP1 POP SWAP4 SWAP3 POP POP POP JUMP JUMPDEST PUSH0 PUSH1 0x20 DUP3 DUP5 SUB SLT ISZERO PUSH2 0x5CA JUMPI PUSH2 0x5C9 PUSH2 0x43D JUMP JUMPDEST JUMPDEST PUSH0 PUSH2 0x5D7 DUP5 DUP3 DUP6 ADD PUSH2 0x4BE JUMP JUMPDEST SWAP2 POP POP SWAP3 SWAP2 POP POP JUMP JUMPDEST PUSH0 PUSH0 REVERT JUMPDEST PUSH0 PUSH0 REVERT JUMPDEST PUSH32 0x4E487B7100000000000000000000000000000000000000000000000000000000 PUSH0 MSTORE PUSH1 0x41 PUSH1 0x4 MSTORE PUSH1 0x24 PUSH0 REVERT JUMPDEST PUSH2 0x61E DUP3 PUSH2 0x538 JUMP JUMPDEST DUP2 ADD DUP2 DUP2 LT PUSH8 0xFFFFFFFFFFFFFFFF DUP3 GT OR ISZERO PUSH2 0x63D JUMPI PUSH2 0x63C PUSH2 0x5E8 JUMP JUMPDEST JUMPDEST DUP1 PUSH1 0x40 MSTORE POP POP POP JUMP JUMPDEST PUSH0 PUSH2 0x64F PUSH2 0x434 JUMP JUMPDEST SWAP1 POP PUSH2 0x65B DUP3 DUP3 PUSH2 0x615 JUMP JUMPDEST SWAP2 SWAP1 POP JUMP JUMPDEST PUSH0 PUSH8 0xFFFFFFFFFFFFFFFF DUP3 GT ISZERO PUSH2 0x67A JUMPI PUSH2 0x679 PUSH2 0x5E8 JUMP JUMPDEST JUMPDEST PUSH2 0x683 DUP3 PUSH2 0x538 JUMP JUMPDEST SWAP1 POP PUSH1 0x20 DUP2 ADD SWAP1 POP SWAP2 SWAP1 POP JUMP JUMPDEST DUP3 DUP2 DUP4 CALLDATACOPY PUSH0 DUP4 DUP4 ADD MSTORE POP POP POP JUMP JUMPDEST PUSH0 PUSH2 0x6B0 PUSH2 0x6AB DUP5 PUSH2 0x660 JUMP JUMPDEST PUSH2 0x646 JUMP JUMPDEST SWAP1 POP DUP3 DUP2 MSTORE PUSH1 0x20 DUP2 ADD DUP5 DUP5 DUP5 ADD GT ISZERO PUSH2 0x6CC JUMPI PUSH2 0x6CB PUSH2 0x5E4 JUMP JUMPDEST JUMPDEST PUSH2 0x6D7 DUP5 DUP3 DUP6 PUSH2 0x690 JUMP JUMPDEST POP SWAP4 SWAP3 POP POP POP JUMP JUMPDEST PUSH0 DUP3 PUSH1 0x1F DUP4 ADD SLT PUSH2 0x6F3 JUMPI PUSH2 0x6F2 PUSH2 0x5E0 JUMP JUMPDEST JUMPDEST DUP2 CALLDATALOAD PUSH2 0x703 DUP5 DUP3 PUSH1 0x20 DUP7 ADD PUSH2 0x69E JUMP JUMPDEST SWAP2 POP POP SWAP3 SWAP2 POP POP JUMP JUMPDEST PUSH0 PUSH0 PUSH0 PUSH1 0x60 DUP5 DUP7 SUB SLT ISZERO PUSH2 0x723 JUMPI PUSH2 0x722 PUSH2 0x43D JUMP JUMPDEST JUMPDEST PUSH0 DUP5 ADD CALLDATALOAD PUSH8 0xFFFFFFFFFFFFFFFF DUP2 GT ISZERO PUSH2 0x740 JUMPI PUSH2 0x73F PUSH2 0x441 JUMP JUMPDEST JUMPDEST PUSH2 0x74C DUP7 DUP3 DUP8 ADD PUSH2 0x6DF JUMP JUMPDEST SWAP4 POP POP PUSH1 0x20 DUP5 ADD CALLDATALOAD PUSH8 0xFFFFFFFFFFFFFFFF DUP2 GT ISZERO PUSH2 0x76D JUMPI PUSH2 0x76C PUSH2 0x441 JUMP JUMPDEST JUMPDEST PUSH2 0x779 DUP7 DUP3 DUP8 ADD PUSH2 0x6DF JUMP JUMPDEST SWAP3 POP POP PUSH1 0x40 PUSH2 0x78A DUP7 DUP3 DUP8 ADD PUSH2 0x4BE JUMP JUMPDEST SWAP2 POP POP SWAP3 POP SWAP3 POP SWAP3 JUMP JUMPDEST PUSH32 0x4E487B7100000000000000000000000000000000000000000000000000000000 PUSH0 MSTORE PUSH1 0x22 PUSH1 0x4 MSTORE PUSH1 0x24 PUSH0 REVERT JUMPDEST PUSH0 PUSH1 0x2 DUP3 DIV SWAP1 POP PUSH1 0x1 DUP3 AND DUP1 PUSH2 0x7D8 JUMPI PUSH1 0x7F DUP3 AND SWAP2 POP JUMPDEST PUSH1 0x20 DUP3 LT DUP2 SUB PUSH2 0x7EB JUMPI PUSH2 0x7EA PUSH2 0x794 JUMP JUMPDEST JUMPDEST POP SWAP2 SWAP1 POP JUMP JUMPDEST PUSH0 DUP2 SWAP1 POP DUP2 PUSH0 MSTORE PUSH1 0x20 PUSH0 KECCAK256 SWAP1 POP SWAP2 SWAP1 POP JUMP JUMPDEST PUSH0 PUSH1 0x20 PUSH1 0x1F DUP4 ADD DIV SWAP1 POP SWAP2 SWAP1 POP JUMP JUMPDEST PUSH0 DUP3 DUP3 SHL SWAP1 POP SWAP3 SWAP2 POP POP JUMP JUMPDEST PUSH0 PUSH1 0x8 DUP4 MUL PUSH2 0x84D PUSH32 0xFFFFFFFFFFFFFFFFFFFFFFFFFFFFFFFFFFFFFFFFFFFFFFFFFFFFFFFFFFFFFFFF DUP3 PUSH2 0x812 JUMP JUMPDEST PUSH2 0x857 DUP7 DUP4 PUSH2 0x812 JUMP JUMPDEST SWAP6 POP DUP1 NOT DUP5 AND SWAP4 POP DUP1 DUP7 AND DUP5 OR SWAP3 POP POP POP SWAP4 SWAP3 POP POP POP JUMP JUMPDEST PUSH0 DUP2 SWAP1 POP SWAP2 SWAP1 POP JUMP JUMPDEST PUSH0 PUSH2 0x892 PUSH2 0x88D PUSH2 0x888 DUP5 PUSH2 0x49F JUMP JUMPDEST PUSH2 0x86F JUMP JUMPDEST PUSH2 0x49F JUMP JUMPDEST SWAP1 POP SWAP2 SWAP1 POP JUMP JUMPDEST PUSH0 DUP2 SWAP1 POP SWAP2 SWAP1 POP JUMP JUMPDEST PUSH2 0x8AB DUP4 PUSH2 0x878 JUMP JUMPDEST PUSH2 0x8BF PUSH2 0x8B7 DUP3 PUSH2 0x899 JUMP JUMPDEST DUP5 DUP5 SLOAD PUSH2 0x81E JUMP JUMPDEST DUP3 SSTORE POP POP POP POP JUMP JUMPDEST PUSH0 PUSH0 SWAP1 POP SWAP1 JUMP JUMPDEST PUSH2 0x8D6 PUSH2 0x8C7 JUMP JUMPDEST PUSH2 0x8E1 DUP2 DUP5 DUP5 PUSH2 0x8A2 JUMP JUMPDEST POP POP POP JUMP JUMPDEST JUMPDEST DUP2 DUP2 LT ISZERO PUSH2 0x904 JUMPI PUSH2 0x8F9 PUSH0 DUP3 PUSH2 0x8CE JUMP JUMPDEST PUSH1 0x1 DUP2 ADD SWAP1 POP PUSH2 0x8E7 JUMP JUMPDEST POP POP JUMP JUMPDEST PUSH1 0x1F DUP3 GT ISZERO PUSH2 0x949 JUMPI PUSH2 0x91A DUP2 PUSH2 0x7F1 JUMP JUMPDEST PUSH2 0x923 DUP5 PUSH2 0x803 JUMP JUMPDEST DUP2 ADD PUSH1 0x20 DUP6 LT ISZERO PUSH2 0x932 JUMPI DUP2 SWAP1 POP JUMPDEST PUSH2 0x946 PUSH2 0x93E DUP6 PUSH2 0x803 JUMP JUMPDEST DUP4 ADD DUP3 PUSH2 0x8E6 JUMP JUMPDEST POP POP JUMPDEST POP POP POP JUMP JUMPDEST PUSH0 DUP3 DUP3 SHR SWAP1 POP SWAP3 SWAP2 POP POP JUMP JUMPDEST PUSH0 PUSH2 0x969 PUSH0 NOT DUP5 PUSH1 0x8 MUL PUSH2 0x94E JUMP JUMPDEST NOT DUP1 DUP4 AND SWAP2 POP POP SWAP3 SWAP2 POP POP JUMP JUMPDEST PUSH0 PUSH2 0x981 DUP4 DUP4 PUSH2 0x95A JUMP JUMPDEST SWAP2 POP DUP3 PUSH1 0x2 MUL DUP3 OR SWAP1 POP SWAP3 SWAP2 POP POP JUMP JUMPDEST PUSH2 0x99A DUP3 PUSH2 0x510 JUMP JUMPDEST PUSH8 0xFFFFFFFFFFFFFFFF DUP2 GT ISZERO PUSH2 0x9B3 JUMPI PUSH2 0x9B2 PUSH2 0x5E8 JUMP JUMPDEST JUMPDEST PUSH2 0x9BD DUP3 SLOAD PUSH2 0x7C1 JUMP JUMPDEST PUSH2 0x9C8 DUP3 DUP3 DUP6 PUSH2 0x908 JUMP JUMPDEST PUSH0 PUSH1 0x20 SWAP1 POP PUSH1 0x1F DUP4 GT PUSH1 0x1 DUP2 EQ PUSH2 0x9F9 JUMPI PUSH0 DUP5 ISZERO PUSH2 0x9E7 JUMPI DUP3 DUP8 ADD MLOAD SWAP1 POP JUMPDEST PUSH2 0x9F1 DUP6 DUP3 PUSH2 0x976 JUMP JUMPDEST DUP7 SSTORE POP PUSH2 0xA58 JUMP JUMPDEST PUSH1 0x1F NOT DUP5 AND PUSH2 0xA07 DUP7 PUSH2 0x7F1 JUMP JUMPDEST PUSH0 JUMPDEST DUP3 DUP2 LT ISZERO PUSH2 0xA2E JUMPI DUP5 DUP10 ADD MLOAD DUP3 SSTORE PUSH1 0x1 DUP3 ADD SWAP2 POP PUSH1 0x20 DUP6 ADD SWAP5 POP PUSH1 0x20 DUP2 ADD SWAP1 POP PUSH2 0xA09 JUMP JUMPDEST DUP7 DUP4 LT ISZERO PUSH2 0xA4B JUMPI DUP5 DUP10 ADD MLOAD PUSH2 0xA47 PUSH1 0x1F DUP10 AND DUP3 PUSH2 0x95A JUMP JUMPDEST DUP4 SSTORE POP JUMPDEST PUSH1 0x1 PUSH1 0x2 DUP9 MUL ADD DUP9 SSTORE POP POP POP JUMPDEST POP POP POP POP POP POP JUMP INVALID LOG2 PUSH5 0x6970667358 0x22 SLT KECCAK256 PUSH10 0x6532F07818B59EB00F1 MSTORE INVALID SWAP14 LOG0 DIV 0xF7 DATALOADN 0xC7B5 0xDA TIMESTAMP SMOD CREATE 0xC9 0xE 0xD3 REVERT MSTORE XOR SWAP4 0xBD PUSH5 0x736F6C6343 STOP ADDMOD 0x1E STOP CALLER "
				},
				"gasEstimates": {
					"creation": {
						"codeDepositCost": "542000",
						"executionCost": "573",
						"totalCost": "542573"
					},
					"external": {
						"addMovie(string,string,uint256)": "infinite",
						"addMyMovie(string,string,uint256)": "infinite",
						"movie(uint256)": "infinite",
						"myMovie(address,uint256)": "infinite"
					}
				},
				"methodIdentifiers": {
					"addMovie(string,string,uint256)": "f012666e",
					"addMyMovie(string,string,uint256)": "dad9909f",
					"movie(uint256)": "d87ec417",
					"myMovie(address,uint256)": "11f72990"
				}
			},
			"storageLayout": {
				"storage": [
					{
						"astId": 11,
						"contract": "6.11.Nested Mapping.sol:exerciseMappping",
						"label": "movie",
						"offset": 0,
						"slot": "0",
						"type": "t_mapping(t_uint256,t_struct(Movie)6_storage)"
					},
					{
						"astId": 18,
						"contract": "6.11.Nested Mapping.sol:exerciseMappping",
						"label": "myMovie",
						"offset": 0,
						"slot": "1",
						"type": "t_mapping(t_address,t_mapping(t_uint256,t_struct(Movie)6_storage))"
					}
				],
				"types": {
					"t_address": {
						"encoding": "inplace",
						"label": "address",
						"numberOfBytes": "20"
					},
					"t_mapping(t_address,t_mapping(t_uint256,t_struct(Movie)6_storage))": {
						"encoding": "mapping",
						"key": "t_address",
						"label": "mapping(address => mapping(uint256 => struct exerciseMappping.Movie))",
						"numberOfBytes": "32",
						"value": "t_mapping(t_uint256,t_struct(Movie)6_storage)"
					},
					"t_mapping(t_uint256,t_struct(Movie)6_storage)": {
						"encoding": "mapping",
						"key": "t_uint256",
						"label": "mapping(uint256 => struct exerciseMappping.Movie)",
						"numberOfBytes": "32",
						"value": "t_struct(Movie)6_storage"
					},
					"t_string_storage": {
						"encoding": "bytes",
						"label": "string",
						"numberOfBytes": "32"
					},
					"t_struct(Movie)6_storage": {
						"encoding": "inplace",
						"label": "struct exerciseMappping.Movie",
						"members": [
							{
								"astId": 3,
								"contract": "6.11.Nested Mapping.sol:exerciseMappping",
								"label": "title",
								"offset": 0,
								"slot": "0",
								"type": "t_string_storage"
							},
							{
								"astId": 5,
								"contract": "6.11.Nested Mapping.sol:exerciseMappping",
								"label": "director",
								"offset": 0,
								"slot": "1",
								"type": "t_string_storage"
							}
						],
						"numberOfBytes": "64"
					},
					"t_uint256": {
						"encoding": "inplace",
						"label": "uint256",
						"numberOfBytes": "32"
					}
				}
			},
			"userdoc": {
				"kind": "user",
				"methods": {},
				"version": 1
			}
		}
	}
}