{
	"functions.sol": {
		"learnFunctions": {
			"abi": [
				{
					"inputs": [],
					"name": "addValues",
					"outputs": [
						{
							"internalType": "uint256",
							"name": "",
							"type": "uint256"
						}
					],
					"stateMutability": "view",
					"type": "function"
				},
				{
					"inputs": [
						{
							"internalType": "uint256",
							"name": "a",
							"type": "uint256"
						}
					],
					"name": "multiplyCalculator",
					"outputs": [
						{
							"internalType": "uint256",
							"name": "",
							"type": "uint256"
						}
					],
					"stateMutability": "view",
					"type": "function"
				},
				{
					"inputs": [
						{
							"internalType": "bool",
							"name": "closedDoor",
							"type": "bool"
						}
					],
					"name": "remoteControlOpen",
					"outputs": [
						{
							"internalType": "bool",
							"name": "",
							"type": "bool"
						}
					],
					"stateMutability": "nonpayable",
					"type": "function"
				}
			],
			"devdoc": {
				"kind": "dev",
				"methods": {},
				"version": 1
			},
			"evm": {
				"assembly": "    /* \"functions.sol\":37:718  contract learnFunctions {... */\n  mstore(0x40, 0x80)\n    /* \"functions.sol\":584:585  4 */\n  0x04\n    /* \"functions.sol\":575:585  uint b = 4 */\n  0x00\n  sstore\n    /* \"functions.sol\":37:718  contract learnFunctions {... */\n  callvalue\n  dup1\n  iszero\n  tag_1\n  jumpi\n  revert(0x00, 0x00)\ntag_1:\n  pop\n  dataSize(sub_0)\n  dup1\n  dataOffset(sub_0)\n  0x00\n  codecopy\n  0x00\n  return\nstop\n\nsub_0: assembly {\n        /* \"functions.sol\":37:718  contract learnFunctions {... */\n      mstore(0x40, 0x80)\n      callvalue\n      dup1\n      iszero\n      tag_1\n      jumpi\n      revert(0x00, 0x00)\n    tag_1:\n      pop\n      jumpi(tag_2, lt(calldatasize, 0x04))\n      shr(0xe0, calldataload(0x00))\n      dup1\n      0x166e7bdd\n      eq\n      tag_3\n      jumpi\n      dup1\n      0x273d1a3e\n      eq\n      tag_4\n      jumpi\n      dup1\n      0xeae4156a\n      eq\n      tag_5\n      jumpi\n    tag_2:\n      revert(0x00, 0x00)\n        /* \"functions.sol\":422:573  function addValues() public view returns(uint) {... */\n    tag_3:\n      tag_6\n      tag_7\n      jump\t// in\n    tag_6:\n      mload(0x40)\n      tag_8\n      swap2\n      swap1\n      tag_9\n      jump\t// in\n    tag_8:\n      mload(0x40)\n      dup1\n      swap2\n      sub\n      swap1\n      return\n        /* \"functions.sol\":208:356  function remoteControlOpen(bool closedDoor) public returns (bool)... */\n    tag_4:\n      tag_10\n      0x04\n      dup1\n      calldatasize\n      sub\n      dup2\n      add\n      swap1\n      tag_11\n      swap2\n      swap1\n      tag_12\n      jump\t// in\n    tag_11:\n      tag_13\n      jump\t// in\n    tag_10:\n      mload(0x40)\n      tag_14\n      swap2\n      swap1\n      tag_15\n      jump\t// in\n    tag_14:\n      mload(0x40)\n      dup1\n      swap2\n      sub\n      swap1\n      return\n        /* \"functions.sol\":592:715  function multiplyCalculator(uint a) public view returns(uint){... */\n    tag_5:\n      tag_16\n      0x04\n      dup1\n      calldatasize\n      sub\n      dup2\n      add\n      swap1\n      tag_17\n      swap2\n      swap1\n      tag_18\n      jump\t// in\n    tag_17:\n      tag_19\n      jump\t// in\n    tag_16:\n      mload(0x40)\n      tag_20\n      swap2\n      swap1\n      tag_9\n      jump\t// in\n    tag_20:\n      mload(0x40)\n      dup1\n      swap2\n      sub\n      swap1\n      return\n        /* \"functions.sol\":422:573  function addValues() public view returns(uint) {... */\n    tag_7:\n        /* \"functions.sol\":463:467  uint */\n      0x00\n        /* \"functions.sol\":480:486  uint a */\n      0x00\n        /* \"functions.sol\":489:490  2 */\n      0x02\n        /* \"functions.sol\":480:490  uint a = 2 */\n      swap1\n      pop\n        /* \"functions.sol\":501:507  uint b */\n      0x00\n        /* \"functions.sol\":510:511  4 */\n      0x04\n        /* \"functions.sol\":501:511  uint b = 4 */\n      swap1\n      pop\n        /* \"functions.sol\":522:533  uint result */\n      0x00\n        /* \"functions.sol\":540:541  b */\n      dup2\n        /* \"functions.sol\":536:537  a */\n      dup4\n        /* \"functions.sol\":536:541  a + b */\n      tag_22\n      swap2\n      swap1\n      tag_23\n      jump\t// in\n    tag_22:\n        /* \"functions.sol\":522:541  uint result = a + b */\n      swap1\n      pop\n        /* \"functions.sol\":559:565  result */\n      dup1\n        /* \"functions.sol\":552:565  return result */\n      swap4\n      pop\n      pop\n      pop\n      pop\n        /* \"functions.sol\":422:573  function addValues() public view returns(uint) {... */\n      swap1\n      jump\t// out\n        /* \"functions.sol\":208:356  function remoteControlOpen(bool closedDoor) public returns (bool)... */\n    tag_13:\n        /* \"functions.sol\":268:272  bool */\n      0x00\n        /* \"functions.sol\":208:356  function remoteControlOpen(bool closedDoor) public returns (bool)... */\n      swap2\n      swap1\n      pop\n      jump\t// out\n        /* \"functions.sol\":592:715  function multiplyCalculator(uint a) public view returns(uint){... */\n    tag_19:\n        /* \"functions.sol\":648:652  uint */\n      0x00\n        /* \"functions.sol\":664:675  uint result */\n      0x00\n        /* \"functions.sol\":682:683  b */\n      sload(0x00)\n        /* \"functions.sol\":678:679  a */\n      dup4\n        /* \"functions.sol\":678:683  a * b */\n      tag_26\n      swap2\n      swap1\n      tag_27\n      jump\t// in\n    tag_26:\n        /* \"functions.sol\":664:683  uint result = a * b */\n      swap1\n      pop\n        /* \"functions.sol\":701:707  result */\n      dup1\n        /* \"functions.sol\":694:707  return result */\n      swap2\n      pop\n      pop\n        /* \"functions.sol\":592:715  function multiplyCalculator(uint a) public view returns(uint){... */\n      swap2\n      swap1\n      pop\n      jump\t// out\n        /* \"#utility.yul\":7:84   */\n    tag_28:\n        /* \"#utility.yul\":44:51   */\n      0x00\n        /* \"#utility.yul\":73:78   */\n      dup2\n        /* \"#utility.yul\":62:78   */\n      swap1\n      pop\n        /* \"#utility.yul\":7:84   */\n      swap2\n      swap1\n      pop\n      jump\t// out\n        /* \"#utility.yul\":90:208   */\n    tag_29:\n        /* \"#utility.yul\":177:201   */\n      tag_43\n        /* \"#utility.yul\":195:200   */\n      dup2\n        /* \"#utility.yul\":177:201   */\n      tag_28\n      jump\t// in\n    tag_43:\n        /* \"#utility.yul\":172:175   */\n      dup3\n        /* \"#utility.yul\":165:202   */\n      mstore\n        /* \"#utility.yul\":90:208   */\n      pop\n      pop\n      jump\t// out\n        /* \"#utility.yul\":214:436   */\n    tag_9:\n        /* \"#utility.yul\":307:311   */\n      0x00\n        /* \"#utility.yul\":345:347   */\n      0x20\n        /* \"#utility.yul\":334:343   */\n      dup3\n        /* \"#utility.yul\":330:348   */\n      add\n        /* \"#utility.yul\":322:348   */\n      swap1\n      pop\n        /* \"#utility.yul\":358:429   */\n      tag_45\n        /* \"#utility.yul\":426:427   */\n      0x00\n        /* \"#utility.yul\":415:424   */\n      dup4\n        /* \"#utility.yul\":411:428   */\n      add\n        /* \"#utility.yul\":402:408   */\n      dup5\n        /* \"#utility.yul\":358:429   */\n      tag_29\n      jump\t// in\n    tag_45:\n        /* \"#utility.yul\":214:436   */\n      swap3\n      swap2\n      pop\n      pop\n      jump\t// out\n        /* \"#utility.yul\":523:640   */\n    tag_31:\n        /* \"#utility.yul\":632:633   */\n      0x00\n        /* \"#utility.yul\":629:630   */\n      0x00\n        /* \"#utility.yul\":622:634   */\n      revert\n        /* \"#utility.yul\":769:859   */\n    tag_33:\n        /* \"#utility.yul\":803:810   */\n      0x00\n        /* \"#utility.yul\":846:851   */\n      dup2\n        /* \"#utility.yul\":839:852   */\n      iszero\n        /* \"#utility.yul\":832:853   */\n      iszero\n        /* \"#utility.yul\":821:853   */\n      swap1\n      pop\n        /* \"#utility.yul\":769:859   */\n      swap2\n      swap1\n      pop\n      jump\t// out\n        /* \"#utility.yul\":865:981   */\n    tag_34:\n        /* \"#utility.yul\":935:956   */\n      tag_51\n        /* \"#utility.yul\":950:955   */\n      dup2\n        /* \"#utility.yul\":935:956   */\n      tag_33\n      jump\t// in\n    tag_51:\n        /* \"#utility.yul\":928:933   */\n      dup2\n        /* \"#utility.yul\":925:957   */\n      eq\n        /* \"#utility.yul\":915:975   */\n      tag_52\n      jumpi\n        /* \"#utility.yul\":971:972   */\n      0x00\n        /* \"#utility.yul\":968:969   */\n      0x00\n        /* \"#utility.yul\":961:973   */\n      revert\n        /* \"#utility.yul\":915:975   */\n    tag_52:\n        /* \"#utility.yul\":865:981   */\n      pop\n      jump\t// out\n        /* \"#utility.yul\":987:1120   */\n    tag_35:\n        /* \"#utility.yul\":1030:1035   */\n      0x00\n        /* \"#utility.yul\":1068:1074   */\n      dup2\n        /* \"#utility.yul\":1055:1075   */\n      calldataload\n        /* \"#utility.yul\":1046:1075   */\n      swap1\n      pop\n        /* \"#utility.yul\":1084:1114   */\n      tag_54\n        /* \"#utility.yul\":1108:1113   */\n      dup2\n        /* \"#utility.yul\":1084:1114   */\n      tag_34\n      jump\t// in\n    tag_54:\n        /* \"#utility.yul\":987:1120   */\n      swap3\n      swap2\n      pop\n      pop\n      jump\t// out\n        /* \"#utility.yul\":1126:1449   */\n    tag_12:\n        /* \"#utility.yul\":1182:1188   */\n      0x00\n        /* \"#utility.yul\":1231:1233   */\n      0x20\n        /* \"#utility.yul\":1219:1228   */\n      dup3\n        /* \"#utility.yul\":1210:1217   */\n      dup5\n        /* \"#utility.yul\":1206:1229   */\n      sub\n        /* \"#utility.yul\":1202:1234   */\n      slt\n        /* \"#utility.yul\":1199:1318   */\n      iszero\n      tag_56\n      jumpi\n        /* \"#utility.yul\":1237:1316   */\n      tag_57\n      tag_31\n      jump\t// in\n    tag_57:\n        /* \"#utility.yul\":1199:1318   */\n    tag_56:\n        /* \"#utility.yul\":1357:1358   */\n      0x00\n        /* \"#utility.yul\":1382:1432   */\n      tag_58\n        /* \"#utility.yul\":1424:1431   */\n      dup5\n        /* \"#utility.yul\":1415:1421   */\n      dup3\n        /* \"#utility.yul\":1404:1413   */\n      dup6\n        /* \"#utility.yul\":1400:1422   */\n      add\n        /* \"#utility.yul\":1382:1432   */\n      tag_35\n      jump\t// in\n    tag_58:\n        /* \"#utility.yul\":1372:1432   */\n      swap2\n      pop\n        /* \"#utility.yul\":1328:1442   */\n      pop\n        /* \"#utility.yul\":1126:1449   */\n      swap3\n      swap2\n      pop\n      pop\n      jump\t// out\n        /* \"#utility.yul\":1455:1564   */\n    tag_36:\n        /* \"#utility.yul\":1536:1557   */\n      tag_60\n        /* \"#utility.yul\":1551:1556   */\n      dup2\n        /* \"#utility.yul\":1536:1557   */\n      tag_33\n      jump\t// in\n    tag_60:\n        /* \"#utility.yul\":1531:1534   */\n      dup3\n        /* \"#utility.yul\":1524:1558   */\n      mstore\n        /* \"#utility.yul\":1455:1564   */\n      pop\n      pop\n      jump\t// out\n        /* \"#utility.yul\":1570:1780   */\n    tag_15:\n        /* \"#utility.yul\":1657:1661   */\n      0x00\n        /* \"#utility.yul\":1695:1697   */\n      0x20\n        /* \"#utility.yul\":1684:1693   */\n      dup3\n        /* \"#utility.yul\":1680:1698   */\n      add\n        /* \"#utility.yul\":1672:1698   */\n      swap1\n      pop\n        /* \"#utility.yul\":1708:1773   */\n      tag_62\n        /* \"#utility.yul\":1770:1771   */\n      0x00\n        /* \"#utility.yul\":1759:1768   */\n      dup4\n        /* \"#utility.yul\":1755:1772   */\n      add\n        /* \"#utility.yul\":1746:1752   */\n      dup5\n        /* \"#utility.yul\":1708:1773   */\n      tag_36\n      jump\t// in\n    tag_62:\n        /* \"#utility.yul\":1570:1780   */\n      swap3\n      swap2\n      pop\n      pop\n      jump\t// out\n        /* \"#utility.yul\":1786:1908   */\n    tag_37:\n        /* \"#utility.yul\":1859:1883   */\n      tag_64\n        /* \"#utility.yul\":1877:1882   */\n      dup2\n        /* \"#utility.yul\":1859:1883   */\n      tag_28\n      jump\t// in\n    tag_64:\n        /* \"#utility.yul\":1852:1857   */\n      dup2\n        /* \"#utility.yul\":1849:1884   */\n      eq\n        /* \"#utility.yul\":1839:1902   */\n      tag_65\n      jumpi\n        /* \"#utility.yul\":1898:1899   */\n      0x00\n        /* \"#utility.yul\":1895:1896   */\n      0x00\n        /* \"#utility.yul\":1888:1900   */\n      revert\n        /* \"#utility.yul\":1839:1902   */\n    tag_65:\n        /* \"#utility.yul\":1786:1908   */\n      pop\n      jump\t// out\n        /* \"#utility.yul\":1914:2053   */\n    tag_38:\n        /* \"#utility.yul\":1960:1965   */\n      0x00\n        /* \"#utility.yul\":1998:2004   */\n      dup2\n        /* \"#utility.yul\":1985:2005   */\n      calldataload\n        /* \"#utility.yul\":1976:2005   */\n      swap1\n      pop\n        /* \"#utility.yul\":2014:2047   */\n      tag_67\n        /* \"#utility.yul\":2041:2046   */\n      dup2\n        /* \"#utility.yul\":2014:2047   */\n      tag_37\n      jump\t// in\n    tag_67:\n        /* \"#utility.yul\":1914:2053   */\n      swap3\n      swap2\n      pop\n      pop\n      jump\t// out\n        /* \"#utility.yul\":2059:2388   */\n    tag_18:\n        /* \"#utility.yul\":2118:2124   */\n      0x00\n        /* \"#utility.yul\":2167:2169   */\n      0x20\n        /* \"#utility.yul\":2155:2164   */\n      dup3\n        /* \"#utility.yul\":2146:2153   */\n      dup5\n        /* \"#utility.yul\":2142:2165   */\n      sub\n        /* \"#utility.yul\":2138:2170   */\n      slt\n        /* \"#utility.yul\":2135:2254   */\n      iszero\n      tag_69\n      jumpi\n        /* \"#utility.yul\":2173:2252   */\n      tag_70\n      tag_31\n      jump\t// in\n    tag_70:\n        /* \"#utility.yul\":2135:2254   */\n    tag_69:\n        /* \"#utility.yul\":2293:2294   */\n      0x00\n        /* \"#utility.yul\":2318:2371   */\n      tag_71\n        /* \"#utility.yul\":2363:2370   */\n      dup5\n        /* \"#utility.yul\":2354:2360   */\n      dup3\n        /* \"#utility.yul\":2343:2352   */\n      dup6\n        /* \"#utility.yul\":2339:2361   */\n      add\n        /* \"#utility.yul\":2318:2371   */\n      tag_38\n      jump\t// in\n    tag_71:\n        /* \"#utility.yul\":2308:2371   */\n      swap2\n      pop\n        /* \"#utility.yul\":2264:2381   */\n      pop\n        /* \"#utility.yul\":2059:2388   */\n      swap3\n      swap2\n      pop\n      pop\n      jump\t// out\n        /* \"#utility.yul\":2394:2574   */\n    tag_39:\n        /* \"#utility.yul\":2442:2519   */\n      0x4e487b7100000000000000000000000000000000000000000000000000000000\n        /* \"#utility.yul\":2439:2440   */\n      0x00\n        /* \"#utility.yul\":2432:2520   */\n      mstore\n        /* \"#utility.yul\":2539:2543   */\n      0x11\n        /* \"#utility.yul\":2536:2537   */\n      0x04\n        /* \"#utility.yul\":2529:2544   */\n      mstore\n        /* \"#utility.yul\":2563:2567   */\n      0x24\n        /* \"#utility.yul\":2560:2561   */\n      0x00\n        /* \"#utility.yul\":2553:2568   */\n      revert\n        /* \"#utility.yul\":2580:2771   */\n    tag_23:\n        /* \"#utility.yul\":2620:2623   */\n      0x00\n        /* \"#utility.yul\":2639:2659   */\n      tag_74\n        /* \"#utility.yul\":2657:2658   */\n      dup3\n        /* \"#utility.yul\":2639:2659   */\n      tag_28\n      jump\t// in\n    tag_74:\n        /* \"#utility.yul\":2634:2659   */\n      swap2\n      pop\n        /* \"#utility.yul\":2673:2693   */\n      tag_75\n        /* \"#utility.yul\":2691:2692   */\n      dup4\n        /* \"#utility.yul\":2673:2693   */\n      tag_28\n      jump\t// in\n    tag_75:\n        /* \"#utility.yul\":2668:2693   */\n      swap3\n      pop\n        /* \"#utility.yul\":2716:2717   */\n      dup3\n        /* \"#utility.yul\":2713:2714   */\n      dup3\n        /* \"#utility.yul\":2709:2718   */\n      add\n        /* \"#utility.yul\":2702:2718   */\n      swap1\n      pop\n        /* \"#utility.yul\":2737:2740   */\n      dup1\n        /* \"#utility.yul\":2734:2735   */\n      dup3\n        /* \"#utility.yul\":2731:2741   */\n      gt\n        /* \"#utility.yul\":2728:2764   */\n      iszero\n      tag_76\n      jumpi\n        /* \"#utility.yul\":2744:2762   */\n      tag_77\n      tag_39\n      jump\t// in\n    tag_77:\n        /* \"#utility.yul\":2728:2764   */\n    tag_76:\n        /* \"#utility.yul\":2580:2771   */\n      swap3\n      swap2\n      pop\n      pop\n      jump\t// out\n        /* \"#utility.yul\":2777:3187   */\n    tag_27:\n        /* \"#utility.yul\":2817:2824   */\n      0x00\n        /* \"#utility.yul\":2840:2860   */\n      tag_79\n        /* \"#utility.yul\":2858:2859   */\n      dup3\n        /* \"#utility.yul\":2840:2860   */\n      tag_28\n      jump\t// in\n    tag_79:\n        /* \"#utility.yul\":2835:2860   */\n      swap2\n      pop\n        /* \"#utility.yul\":2874:2894   */\n      tag_80\n        /* \"#utility.yul\":2892:2893   */\n      dup4\n        /* \"#utility.yul\":2874:2894   */\n      tag_28\n      jump\t// in\n    tag_80:\n        /* \"#utility.yul\":2869:2894   */\n      swap3\n      pop\n        /* \"#utility.yul\":2929:2930   */\n      dup3\n        /* \"#utility.yul\":2926:2927   */\n      dup3\n        /* \"#utility.yul\":2922:2931   */\n      mul\n        /* \"#utility.yul\":2951:2981   */\n      tag_81\n        /* \"#utility.yul\":2969:2980   */\n      dup2\n        /* \"#utility.yul\":2951:2981   */\n      tag_28\n      jump\t// in\n    tag_81:\n        /* \"#utility.yul\":2940:2981   */\n      swap2\n      pop\n        /* \"#utility.yul\":3130:3131   */\n      dup3\n        /* \"#utility.yul\":3121:3128   */\n      dup3\n        /* \"#utility.yul\":3117:3132   */\n      div\n        /* \"#utility.yul\":3114:3115   */\n      dup5\n        /* \"#utility.yul\":3111:3133   */\n      eq\n        /* \"#utility.yul\":3091:3092   */\n      dup4\n        /* \"#utility.yul\":3084:3093   */\n      iszero\n        /* \"#utility.yul\":3064:3147   */\n      or\n        /* \"#utility.yul\":3041:3180   */\n      tag_82\n      jumpi\n        /* \"#utility.yul\":3160:3178   */\n      tag_83\n      tag_39\n      jump\t// in\n    tag_83:\n        /* \"#utility.yul\":3041:3180   */\n    tag_82:\n        /* \"#utility.yul\":2825:3187   */\n      pop\n        /* \"#utility.yul\":2777:3187   */\n      swap3\n      swap2\n      pop\n      pop\n      jump\t// out\n\n    auxdata: 0xa264697066735822122061397dd6e7feca5c52fb9aeb96ffb682320c06db164e28a68c5ee18806bce77a64736f6c634300081e0033\n}\n",
				"bytecode": {
					"linkReferences": {},
					"object": "608060405260045f553480156012575f5ffd5b506102ed806100205f395ff3fe608060405234801561000f575f5ffd5b506004361061003f575f3560e01c8063166e7bdd14610043578063273d1a3e14610061578063eae4156a14610091575b5f5ffd5b61004b6100c1565b604051610058919061011c565b60405180910390f35b61007b6004803603810190610076919061016e565b6100e4565b60405161008891906101a8565b60405180910390f35b6100ab60048036038101906100a691906101eb565b6100ea565b6040516100b8919061011c565b60405180910390f35b5f5f600290505f600490505f81836100d99190610243565b905080935050505090565b5f919050565b5f5f5f54836100f99190610276565b905080915050919050565b5f819050919050565b61011681610104565b82525050565b5f60208201905061012f5f83018461010d565b92915050565b5f5ffd5b5f8115159050919050565b61014d81610139565b8114610157575f5ffd5b50565b5f8135905061016881610144565b92915050565b5f6020828403121561018357610182610135565b5b5f6101908482850161015a565b91505092915050565b6101a281610139565b82525050565b5f6020820190506101bb5f830184610199565b92915050565b6101ca81610104565b81146101d4575f5ffd5b50565b5f813590506101e5816101c1565b92915050565b5f60208284031215610200576101ff610135565b5b5f61020d848285016101d7565b91505092915050565b7f4e487b71000000000000000000000000000000000000000000000000000000005f52601160045260245ffd5b5f61024d82610104565b915061025883610104565b92508282019050808211156102705761026f610216565b5b92915050565b5f61028082610104565b915061028b83610104565b925082820261029981610104565b915082820484148315176102b0576102af610216565b5b509291505056fea264697066735822122061397dd6e7feca5c52fb9aeb96ffb682320c06db164e28a68c5ee18806bce77a64736f6c634300081e0033",
					"opcodes": "PUSH1 0x80 PUSH1 0x40 MSTORE PUSH1 0x4 PUSH0 SSTORE CALLVALUE DUP1 ISZERO PUSH1 0x12 JUMPI PUSH0 PUSH0 REVERT JUMPDEST POP PUSH2 0x2ED DUP1 PUSH2 0x20 PUSH0 CODECOPY PUSH0 RETURN INVALID PUSH1 0x80 PUSH1 0x40 MSTORE CALLVALUE DUP1 ISZERO PUSH2 0xF JUMPI PUSH0 PUSH0 REVERT JUMPDEST POP PUSH1 0x4 CALLDATASIZE LT PUSH2 0x3F JUMPI PUSH0 CALLDATALOAD PUSH1 0xE0 SHR DUP1 PUSH4 0x166E7BDD EQ PUSH2 0x43 JUMPI DUP1 PUSH4 0x273D1A3E EQ PUSH2 0x61 JUMPI DUP1 PUSH4 0xEAE4156A EQ PUSH2 0x91 JUMPI JUMPDEST PUSH0 PUSH0 REVERT JUMPDEST PUSH2 0x4B PUSH2 0xC1 JUMP JUMPDEST PUSH1 0x40 MLOAD PUSH2 0x58 SWAP2 SWAP1 PUSH2 0x11C JUMP JUMPDEST PUSH1 0x40 MLOAD DUP1 SWAP2 SUB SWAP1 RETURN JUMPDEST PUSH2 0x7B PUSH1 0x4 DUP1 CALLDATASIZE SUB DUP2 ADD SWAP1 PUSH2 0x76 SWAP2 SWAP1 PUSH2 0x16E JUMP JUMPDEST PUSH2 0xE4 JUMP JUMPDEST PUSH1 0x40 MLOAD PUSH2 0x88 SWAP2 SWAP1 PUSH2 0x1A8 JUMP JUMPDEST PUSH1 0x40 MLOAD DUP1 SWAP2 SUB SWAP1 RETURN JUMPDEST PUSH2 0xAB PUSH1 0x4 DUP1 CALLDATASIZE SUB DUP2 ADD SWAP1 PUSH2 0xA6 SWAP2 SWAP1 PUSH2 0x1EB JUMP JUMPDEST PUSH2 0xEA JUMP JUMPDEST PUSH1 0x40 MLOAD PUSH2 0xB8 SWAP2 SWAP1 PUSH2 0x11C JUMP JUMPDEST PUSH1 0x40 MLOAD DUP1 SWAP2 SUB SWAP1 RETURN JUMPDEST PUSH0 PUSH0 PUSH1 0x2 SWAP1 POP PUSH0 PUSH1 0x4 SWAP1 POP PUSH0 DUP2 DUP4 PUSH2 0xD9 SWAP2 SWAP1 PUSH2 0x243 JUMP JUMPDEST SWAP1 POP DUP1 SWAP4 POP POP POP POP SWAP1 JUMP JUMPDEST PUSH0 SWAP2 SWAP1 POP JUMP JUMPDEST PUSH0 PUSH0 PUSH0 SLOAD DUP4 PUSH2 0xF9 SWAP2 SWAP1 PUSH2 0x276 JUMP JUMPDEST SWAP1 POP DUP1 SWAP2 POP POP SWAP2 SWAP1 POP JUMP JUMPDEST PUSH0 DUP2 SWAP1 POP SWAP2 SWAP1 POP JUMP JUMPDEST PUSH2 0x116 DUP2 PUSH2 0x104 JUMP JUMPDEST DUP3 MSTORE POP POP JUMP JUMPDEST PUSH0 PUSH1 0x20 DUP3 ADD SWAP1 POP PUSH2 0x12F PUSH0 DUP4 ADD DUP5 PUSH2 0x10D JUMP JUMPDEST SWAP3 SWAP2 POP POP JUMP JUMPDEST PUSH0 PUSH0 REVERT JUMPDEST PUSH0 DUP2 ISZERO ISZERO SWAP1 POP SWAP2 SWAP1 POP JUMP JUMPDEST PUSH2 0x14D DUP2 PUSH2 0x139 JUMP JUMPDEST DUP2 EQ PUSH2 0x157 JUMPI PUSH0 PUSH0 REVERT JUMPDEST POP JUMP JUMPDEST PUSH0 DUP2 CALLDATALOAD SWAP1 POP PUSH2 0x168 DUP2 PUSH2 0x144 JUMP JUMPDEST SWAP3 SWAP2 POP POP JUMP JUMPDEST PUSH0 PUSH1 0x20 DUP3 DUP5 SUB SLT ISZERO PUSH2 0x183 JUMPI PUSH2 0x182 PUSH2 0x135 JUMP JUMPDEST JUMPDEST PUSH0 PUSH2 0x190 DUP5 DUP3 DUP6 ADD PUSH2 0x15A JUMP JUMPDEST SWAP2 POP POP SWAP3 SWAP2 POP POP JUMP JUMPDEST PUSH2 0x1A2 DUP2 PUSH2 0x139 JUMP JUMPDEST DUP3 MSTORE POP POP JUMP JUMPDEST PUSH0 PUSH1 0x20 DUP3 ADD SWAP1 POP PUSH2 0x1BB PUSH0 DUP4 ADD DUP5 PUSH2 0x199 JUMP JUMPDEST SWAP3 SWAP2 POP POP JUMP JUMPDEST PUSH2 0x1CA DUP2 PUSH2 0x104 JUMP JUMPDEST DUP2 EQ PUSH2 0x1D4 JUMPI PUSH0 PUSH0 REVERT JUMPDEST POP JUMP JUMPDEST PUSH0 DUP2 CALLDATALOAD SWAP1 POP PUSH2 0x1E5 DUP2 PUSH2 0x1C1 JUMP JUMPDEST SWAP3 SWAP2 POP POP JUMP JUMPDEST PUSH0 PUSH1 0x20 DUP3 DUP5 SUB SLT ISZERO PUSH2 0x200 JUMPI PUSH2 0x1FF PUSH2 0x135 JUMP JUMPDEST JUMPDEST PUSH0 PUSH2 0x20D DUP5 DUP3 DUP6 ADD PUSH2 0x1D7 JUMP JUMPDEST SWAP2 POP POP SWAP3 SWAP2 POP POP JUMP JUMPDEST PUSH32 0x4E487B7100000000000000000000000000000000000000000000000000000000 PUSH0 MSTORE PUSH1 0x11 PUSH1 0x4 MSTORE PUSH1 0x24 PUSH0 REVERT JUMPDEST PUSH0 PUSH2 0x24D DUP3 PUSH2 0x104 JUMP JUMPDEST SWAP2 POP PUSH2 0x258 DUP4 PUSH2 0x104 JUMP JUMPDEST SWAP3 POP DUP3 DUP3 ADD SWAP1 POP DUP1 DUP3 GT ISZERO PUSH2 0x270 JUMPI PUSH2 0x26F PUSH2 0x216 JUMP JUMPDEST JUMPDEST SWAP3 SWAP2 POP POP JUMP JUMPDEST PUSH0 PUSH2 0x280 DUP3 PUSH2 0x104 JUMP JUMPDEST SWAP2 POP PUSH2 0x28B DUP4 PUSH2 0x104 JUMP JUMPDEST SWAP3 POP DUP3 DUP3 MUL PUSH2 0x299 DUP2 PUSH2 0x104 JUMP JUMPDEST SWAP2 POP DUP3 DUP3 DIV DUP5 EQ DUP4 ISZERO OR PUSH2 0x2B0 JUMPI PUSH2 0x2AF PUSH2 0x216 JUMP JUMPDEST JUMPDEST POP SWAP3 SWAP2 POP POP JUMP INVALID LOG2 PUSH5 0x6970667358 0x22 SLT KECCAK256 PUSH2 0x397D 0xD6 SWAPN 0xFE 0xCA TLOAD MSTORE EXTSTATICCALL SWAP11 0xEB SWAP7 SELFDESTRUCT 0xB6 DUP3 ORIGIN 0xC MOD 0xDB AND 0x4E 0x28 0xA6 DUP13 MCOPY RJUMPI 0x8806 0xBC SWAPN 0x7A PUSH5 0x736F6C6343 STOP ADDMOD 0x1E STOP CALLER "
				},
				"gasEstimates": {
					"creation": {
						"codeDepositCost": "149800",
						"executionCost": "22299",
						"totalCost": "172099"
					},
					"external": {
						"addValues()": "infinite",
						"multiplyCalculator(uint256)": "infinite",
						"remoteControlOpen(bool)": "infinite"
					}
				},
				"methodIdentifiers": {
					"addValues()": "166e7bdd",
					"multiplyCalculator(uint256)": "eae4156a",
					"remoteControlOpen(bool)": "273d1a3e"
				}
			},
			"storageLayout": {
				"storage": [
					{
						"astId": 34,
						"contract": "functions.sol:learnFunctions",
						"label": "b",
						"offset": 0,
						"slot": "0",
						"type": "t_uint256"
					}
				],
				"types": {
					"t_uint256": {
						"encoding": "inplace",
						"label": "uint256",
						"numberOfBytes": "32"
					}
				}
			},
			"userdoc": {
				"kind": "user",
				"methods": {},
				"version": 1
			}
		}
	}
}