{
	"6.5.Enums.sol": {
		"enumsLearn": {
			"abi": [
				{
					"inputs": [],
					"name": "getChoice",
					"outputs": [
						{
							"internalType": "enum enumsLearn.frenchFriesSize",
							"name": "",
							"type": "uint8"
						}
					],
					"stateMutability": "view",
					"type": "function"
				},
				{
					"inputs": [],
					"name": "getDefaultChoice",
					"outputs": [
						{
							"internalType": "uint256",
							"name": "",
							"type": "uint256"
						}
					],
					"stateMutability": "view",
					"type": "function"
				},
				{
					"inputs": [],
					"name": "setLarge",
					"outputs": [],
					"stateMutability": "nonpayable",
					"type": "function"
				},
				{
					"inputs": [],
					"name": "setMedium",
					"outputs": [],
					"stateMutability": "nonpayable",
					"type": "function"
				},
				{
					"inputs": [],
					"name": "setSmall",
					"outputs": [],
					"stateMutability": "nonpayable",
					"type": "function"
				}
			],
			"devdoc": {
				"kind": "dev",
				"methods": {},
				"version": 1
			},
			"evm": {
				"assembly": "    /* \"6.5.Enums.sol\":330:961  contract enumsLearn {... */\n  mstore(0x40, 0x80)\n  callvalue\n  dup1\n  iszero\n  tag_1\n  jumpi\n  revert(0x00, 0x00)\ntag_1:\n  pop\n  dataSize(sub_0)\n  dup1\n  dataOffset(sub_0)\n  0x00\n  codecopy\n  0x00\n  return\nstop\n\nsub_0: assembly {\n        /* \"6.5.Enums.sol\":330:961  contract enumsLearn {... */\n      mstore(0x40, 0x80)\n      callvalue\n      dup1\n      iszero\n      tag_1\n      jumpi\n      revert(0x00, 0x00)\n    tag_1:\n      pop\n      jumpi(tag_2, lt(calldatasize, 0x04))\n      shr(0xe0, calldataload(0x00))\n      dup1\n      0x67cb61b6\n      eq\n      tag_3\n      jumpi\n      dup1\n      0x694ebe4f\n      eq\n      tag_4\n      jumpi\n      dup1\n      0x843f7258\n      eq\n      tag_5\n      jumpi\n      dup1\n      0x91ff2c86\n      eq\n      tag_6\n      jumpi\n      dup1\n      0xdb39b915\n      eq\n      tag_7\n      jumpi\n    tag_2:\n      revert(0x00, 0x00)\n        /* \"6.5.Enums.sol\":761:851  function getChoice() public view returns(frenchFriesSize) {... */\n    tag_3:\n      tag_8\n      tag_9\n      jump\t// in\n    tag_8:\n      mload(0x40)\n      tag_10\n      swap2\n      swap1\n      tag_11\n      jump\t// in\n    tag_10:\n      mload(0x40)\n      dup1\n      swap2\n      sub\n      swap1\n      return\n        /* \"6.5.Enums.sol\":677:753  function setLarge() public {... */\n    tag_4:\n      tag_12\n      tag_13\n      jump\t// in\n    tag_12:\n      stop\n        /* \"6.5.Enums.sol\":859:958  function getDefaultChoice() public view returns(uint) {... */\n    tag_5:\n      tag_14\n      tag_15\n      jump\t// in\n    tag_14:\n      mload(0x40)\n      tag_16\n      swap2\n      swap1\n      tag_17\n      jump\t// in\n    tag_16:\n      mload(0x40)\n      dup1\n      swap2\n      sub\n      swap1\n      return\n        /* \"6.5.Enums.sol\":506:582  function setSmall() public {... */\n    tag_6:\n      tag_18\n      tag_19\n      jump\t// in\n    tag_18:\n      stop\n        /* \"6.5.Enums.sol\":591:669  function setMedium() public {... */\n    tag_7:\n      tag_20\n      tag_21\n      jump\t// in\n    tag_20:\n      stop\n        /* \"6.5.Enums.sol\":761:851  function getChoice() public view returns(frenchFriesSize) {... */\n    tag_9:\n        /* \"6.5.Enums.sol\":802:817  frenchFriesSize */\n      0x00\n        /* \"6.5.Enums.sol\":837:843  choice */\n      0x00\n      0x00\n      swap1\n      sload\n      swap1\n      0x0100\n      exp\n      swap1\n      div\n      0xff\n      and\n        /* \"6.5.Enums.sol\":830:843  return choice */\n      swap1\n      pop\n        /* \"6.5.Enums.sol\":761:851  function getChoice() public view returns(frenchFriesSize) {... */\n      swap1\n      jump\t// out\n        /* \"6.5.Enums.sol\":677:753  function setLarge() public {... */\n    tag_13:\n        /* \"6.5.Enums.sol\":724:745  frenchFriesSize.LARGE */\n      0x00\n        /* \"6.5.Enums.sol\":715:721  choice */\n      0x00\n      0x00\n        /* \"6.5.Enums.sol\":715:745  choice = frenchFriesSize.LARGE */\n      0x0100\n      exp\n      dup2\n      sload\n      dup2\n      0xff\n      mul\n      not\n      and\n      swap1\n      dup4\n      0x02\n      dup2\n      gt\n      iszero\n      tag_24\n      jumpi\n      tag_25\n      tag_26\n      jump\t// in\n    tag_25:\n    tag_24:\n      mul\n      or\n      swap1\n      sstore\n      pop\n        /* \"6.5.Enums.sol\":677:753  function setLarge() public {... */\n      jump\t// out\n        /* \"6.5.Enums.sol\":859:958  function getDefaultChoice() public view returns(uint) {... */\n    tag_15:\n        /* \"6.5.Enums.sol\":907:911  uint */\n      0x00\n        /* \"6.5.Enums.sol\":476:497  frenchFriesSize.LARGE */\n      0x00\n        /* \"6.5.Enums.sol\":931:950  uint(defaultChoice) */\n      0x02\n      dup2\n      gt\n      iszero\n      tag_28\n      jumpi\n      tag_29\n      tag_26\n      jump\t// in\n    tag_29:\n    tag_28:\n        /* \"6.5.Enums.sol\":924:950  return uint(defaultChoice) */\n      swap1\n      pop\n        /* \"6.5.Enums.sol\":859:958  function getDefaultChoice() public view returns(uint) {... */\n      swap1\n      jump\t// out\n        /* \"6.5.Enums.sol\":506:582  function setSmall() public {... */\n    tag_19:\n        /* \"6.5.Enums.sol\":553:574  frenchFriesSize.SMALL */\n      0x02\n        /* \"6.5.Enums.sol\":544:550  choice */\n      0x00\n      0x00\n        /* \"6.5.Enums.sol\":544:574  choice = frenchFriesSize.SMALL */\n      0x0100\n      exp\n      dup2\n      sload\n      dup2\n      0xff\n      mul\n      not\n      and\n      swap1\n      dup4\n      0x02\n      dup2\n      gt\n      iszero\n      tag_31\n      jumpi\n      tag_32\n      tag_26\n      jump\t// in\n    tag_32:\n    tag_31:\n      mul\n      or\n      swap1\n      sstore\n      pop\n        /* \"6.5.Enums.sol\":506:582  function setSmall() public {... */\n      jump\t// out\n        /* \"6.5.Enums.sol\":591:669  function setMedium() public {... */\n    tag_21:\n        /* \"6.5.Enums.sol\":639:661  frenchFriesSize.MEDIUM */\n      0x01\n        /* \"6.5.Enums.sol\":630:636  choice */\n      0x00\n      0x00\n        /* \"6.5.Enums.sol\":630:661  choice = frenchFriesSize.MEDIUM */\n      0x0100\n      exp\n      dup2\n      sload\n      dup2\n      0xff\n      mul\n      not\n      and\n      swap1\n      dup4\n      0x02\n      dup2\n      gt\n      iszero\n      tag_34\n      jumpi\n      tag_35\n      tag_26\n      jump\t// in\n    tag_35:\n    tag_34:\n      mul\n      or\n      swap1\n      sstore\n      pop\n        /* \"6.5.Enums.sol\":591:669  function setMedium() public {... */\n      jump\t// out\n        /* \"#utility.yul\":7:187   */\n    tag_26:\n        /* \"#utility.yul\":55:132   */\n      0x4e487b7100000000000000000000000000000000000000000000000000000000\n        /* \"#utility.yul\":52:53   */\n      0x00\n        /* \"#utility.yul\":45:133   */\n      mstore\n        /* \"#utility.yul\":152:156   */\n      0x21\n        /* \"#utility.yul\":149:150   */\n      0x04\n        /* \"#utility.yul\":142:157   */\n      mstore\n        /* \"#utility.yul\":176:180   */\n      0x24\n        /* \"#utility.yul\":173:174   */\n      0x00\n        /* \"#utility.yul\":166:181   */\n      revert\n        /* \"#utility.yul\":193:315   */\n    tag_36:\n        /* \"#utility.yul\":283:284   */\n      0x03\n        /* \"#utility.yul\":276:281   */\n      dup2\n        /* \"#utility.yul\":273:285   */\n      lt\n        /* \"#utility.yul\":263:309   */\n      tag_45\n      jumpi\n        /* \"#utility.yul\":289:307   */\n      tag_46\n      tag_26\n      jump\t// in\n    tag_46:\n        /* \"#utility.yul\":263:309   */\n    tag_45:\n        /* \"#utility.yul\":193:315   */\n      pop\n      jump\t// out\n        /* \"#utility.yul\":321:466   */\n    tag_37:\n        /* \"#utility.yul\":375:382   */\n      0x00\n        /* \"#utility.yul\":404:409   */\n      dup2\n        /* \"#utility.yul\":393:409   */\n      swap1\n      pop\n        /* \"#utility.yul\":410:460   */\n      tag_48\n        /* \"#utility.yul\":454:459   */\n      dup3\n        /* \"#utility.yul\":410:460   */\n      tag_36\n      jump\t// in\n    tag_48:\n        /* \"#utility.yul\":321:466   */\n      swap2\n      swap1\n      pop\n      jump\t// out\n        /* \"#utility.yul\":472:617   */\n    tag_38:\n        /* \"#utility.yul\":537:546   */\n      0x00\n        /* \"#utility.yul\":570:611   */\n      tag_50\n        /* \"#utility.yul\":605:610   */\n      dup3\n        /* \"#utility.yul\":570:611   */\n      tag_37\n      jump\t// in\n    tag_50:\n        /* \"#utility.yul\":557:611   */\n      swap1\n      pop\n        /* \"#utility.yul\":472:617   */\n      swap2\n      swap1\n      pop\n      jump\t// out\n        /* \"#utility.yul\":623:784   */\n    tag_39:\n        /* \"#utility.yul\":725:777   */\n      tag_52\n        /* \"#utility.yul\":771:776   */\n      dup2\n        /* \"#utility.yul\":725:777   */\n      tag_38\n      jump\t// in\n    tag_52:\n        /* \"#utility.yul\":720:723   */\n      dup3\n        /* \"#utility.yul\":713:778   */\n      mstore\n        /* \"#utility.yul\":623:784   */\n      pop\n      pop\n      jump\t// out\n        /* \"#utility.yul\":790:1042   */\n    tag_11:\n        /* \"#utility.yul\":898:902   */\n      0x00\n        /* \"#utility.yul\":936:938   */\n      0x20\n        /* \"#utility.yul\":925:934   */\n      dup3\n        /* \"#utility.yul\":921:939   */\n      add\n        /* \"#utility.yul\":913:939   */\n      swap1\n      pop\n        /* \"#utility.yul\":949:1035   */\n      tag_54\n        /* \"#utility.yul\":1032:1033   */\n      0x00\n        /* \"#utility.yul\":1021:1030   */\n      dup4\n        /* \"#utility.yul\":1017:1034   */\n      add\n        /* \"#utility.yul\":1008:1014   */\n      dup5\n        /* \"#utility.yul\":949:1035   */\n      tag_39\n      jump\t// in\n    tag_54:\n        /* \"#utility.yul\":790:1042   */\n      swap3\n      swap2\n      pop\n      pop\n      jump\t// out\n        /* \"#utility.yul\":1048:1125   */\n    tag_40:\n        /* \"#utility.yul\":1085:1092   */\n      0x00\n        /* \"#utility.yul\":1114:1119   */\n      dup2\n        /* \"#utility.yul\":1103:1119   */\n      swap1\n      pop\n        /* \"#utility.yul\":1048:1125   */\n      swap2\n      swap1\n      pop\n      jump\t// out\n        /* \"#utility.yul\":1131:1249   */\n    tag_41:\n        /* \"#utility.yul\":1218:1242   */\n      tag_57\n        /* \"#utility.yul\":1236:1241   */\n      dup2\n        /* \"#utility.yul\":1218:1242   */\n      tag_40\n      jump\t// in\n    tag_57:\n        /* \"#utility.yul\":1213:1216   */\n      dup3\n        /* \"#utility.yul\":1206:1243   */\n      mstore\n        /* \"#utility.yul\":1131:1249   */\n      pop\n      pop\n      jump\t// out\n        /* \"#utility.yul\":1255:1477   */\n    tag_17:\n        /* \"#utility.yul\":1348:1352   */\n      0x00\n        /* \"#utility.yul\":1386:1388   */\n      0x20\n        /* \"#utility.yul\":1375:1384   */\n      dup3\n        /* \"#utility.yul\":1371:1389   */\n      add\n        /* \"#utility.yul\":1363:1389   */\n      swap1\n      pop\n        /* \"#utility.yul\":1399:1470   */\n      tag_59\n        /* \"#utility.yul\":1467:1468   */\n      0x00\n        /* \"#utility.yul\":1456:1465   */\n      dup4\n        /* \"#utility.yul\":1452:1469   */\n      add\n        /* \"#utility.yul\":1443:1449   */\n      dup5\n        /* \"#utility.yul\":1399:1470   */\n      tag_41\n      jump\t// in\n    tag_59:\n        /* \"#utility.yul\":1255:1477   */\n      swap3\n      swap2\n      pop\n      pop\n      jump\t// out\n\n    auxdata: 0xa26469706673582212204cc72bff51d8f6a06bb1d89bb904303e569ddfb14cc77a3805a6f8a9fe2e1a7a64736f6c634300081e0033\n}\n",
				"bytecode": {
					"linkReferences": {},
					"object": "6080604052348015600e575f5ffd5b506102538061001c5f395ff3fe608060405234801561000f575f5ffd5b5060043610610055575f3560e01c806367cb61b614610059578063694ebe4f14610077578063843f72581461008157806391ff2c861461009f578063db39b915146100a9575b5f5ffd5b6100616100b3565b60405161006e91906101d3565b60405180910390f35b61007f6100c7565b005b6100896100f1565b6040516100969190610204565b60405180910390f35b6100a761010a565b005b6100b1610135565b005b5f5f5f9054906101000a900460ff16905090565b5f5f5f6101000a81548160ff021916908360028111156100ea576100e9610160565b5b0217905550565b5f5f600281111561010557610104610160565b5b905090565b60025f5f6101000a81548160ff0219169083600281111561012e5761012d610160565b5b0217905550565b60015f5f6101000a81548160ff0219169083600281111561015957610158610160565b5b0217905550565b7f4e487b71000000000000000000000000000000000000000000000000000000005f52602160045260245ffd5b6003811061019e5761019d610160565b5b50565b5f8190506101ae8261018d565b919050565b5f6101bd826101a1565b9050919050565b6101cd816101b3565b82525050565b5f6020820190506101e65f8301846101c4565b92915050565b5f819050919050565b6101fe816101ec565b82525050565b5f6020820190506102175f8301846101f5565b9291505056fea26469706673582212204cc72bff51d8f6a06bb1d89bb904303e569ddfb14cc77a3805a6f8a9fe2e1a7a64736f6c634300081e0033",
					"opcodes": "PUSH1 0x80 PUSH1 0x40 MSTORE CALLVALUE DUP1 ISZERO PUSH1 0xE JUMPI PUSH0 PUSH0 REVERT JUMPDEST POP PUSH2 0x253 DUP1 PUSH2 0x1C PUSH0 CODECOPY PUSH0 RETURN INVALID PUSH1 0x80 PUSH1 0x40 MSTORE CALLVALUE DUP1 ISZERO PUSH2 0xF JUMPI PUSH0 PUSH0 REVERT JUMPDEST POP PUSH1 0x4 CALLDATASIZE LT PUSH2 0x55 JUMPI PUSH0 CALLDATALOAD PUSH1 0xE0 SHR DUP1 PUSH4 0x67CB61B6 EQ PUSH2 0x59 JUMPI DUP1 PUSH4 0x694EBE4F EQ PUSH2 0x77 JUMPI DUP1 PUSH4 0x843F7258 EQ PUSH2 0x81 JUMPI DUP1 PUSH4 0x91FF2C86 EQ PUSH2 0x9F JUMPI DUP1 PUSH4 0xDB39B915 EQ PUSH2 0xA9 JUMPI JUMPDEST PUSH0 PUSH0 REVERT JUMPDEST PUSH2 0x61 PUSH2 0xB3 JUMP JUMPDEST PUSH1 0x40 MLOAD PUSH2 0x6E SWAP2 SWAP1 PUSH2 0x1D3 JUMP JUMPDEST PUSH1 0x40 MLOAD DUP1 SWAP2 SUB SWAP1 RETURN JUMPDEST PUSH2 0x7F PUSH2 0xC7 JUMP JUMPDEST STOP JUMPDEST PUSH2 0x89 PUSH2 0xF1 JUMP JUMPDEST PUSH1 0x40 MLOAD PUSH2 0x96 SWAP2 SWAP1 PUSH2 0x204 JUMP JUMPDEST PUSH1 0x40 MLOAD DUP1 SWAP2 SUB SWAP1 RETURN JUMPDEST PUSH2 0xA7 PUSH2 0x10A JUMP JUMPDEST STOP JUMPDEST PUSH2 0xB1 PUSH2 0x135 JUMP JUMPDEST STOP JUMPDEST PUSH0 PUSH0 PUSH0 SWAP1 SLOAD SWAP1 PUSH2 0x100 EXP SWAP1 DIV PUSH1 0xFF AND SWAP1 POP SWAP1 JUMP JUMPDEST PUSH0 PUSH0 PUSH0 PUSH2 0x100 EXP DUP2 SLOAD DUP2 PUSH1 0xFF MUL NOT AND SWAP1 DUP4 PUSH1 0x2 DUP2 GT ISZERO PUSH2 0xEA JUMPI PUSH2 0xE9 PUSH2 0x160 JUMP JUMPDEST JUMPDEST MUL OR SWAP1 SSTORE POP JUMP JUMPDEST PUSH0 PUSH0 PUSH1 0x2 DUP2 GT ISZERO PUSH2 0x105 JUMPI PUSH2 0x104 PUSH2 0x160 JUMP JUMPDEST JUMPDEST SWAP1 POP SWAP1 JUMP JUMPDEST PUSH1 0x2 PUSH0 PUSH0 PUSH2 0x100 EXP DUP2 SLOAD DUP2 PUSH1 0xFF MUL NOT AND SWAP1 DUP4 PUSH1 0x2 DUP2 GT ISZERO PUSH2 0x12E JUMPI PUSH2 0x12D PUSH2 0x160 JUMP JUMPDEST JUMPDEST MUL OR SWAP1 SSTORE POP JUMP JUMPDEST PUSH1 0x1 PUSH0 PUSH0 PUSH2 0x100 EXP DUP2 SLOAD DUP2 PUSH1 0xFF MUL NOT AND SWAP1 DUP4 PUSH1 0x2 DUP2 GT ISZERO PUSH2 0x159 JUMPI PUSH2 0x158 PUSH2 0x160 JUMP JUMPDEST JUMPDEST MUL OR SWAP1 SSTORE POP JUMP JUMPDEST PUSH32 0x4E487B7100000000000000000000000000000000000000000000000000000000 PUSH0 MSTORE PUSH1 0x21 PUSH1 0x4 MSTORE PUSH1 0x24 PUSH0 REVERT JUMPDEST PUSH1 0x3 DUP2 LT PUSH2 0x19E JUMPI PUSH2 0x19D PUSH2 0x160 JUMP JUMPDEST JUMPDEST POP JUMP JUMPDEST PUSH0 DUP2 SWAP1 POP PUSH2 0x1AE DUP3 PUSH2 0x18D JUMP JUMPDEST SWAP2 SWAP1 POP JUMP JUMPDEST PUSH0 PUSH2 0x1BD DUP3 PUSH2 0x1A1 JUMP JUMPDEST SWAP1 POP SWAP2 SWAP1 POP JUMP JUMPDEST PUSH2 0x1CD DUP2 PUSH2 0x1B3 JUMP JUMPDEST DUP3 MSTORE POP POP JUMP JUMPDEST PUSH0 PUSH1 0x20 DUP3 ADD SWAP1 POP PUSH2 0x1E6 PUSH0 DUP4 ADD DUP5 PUSH2 0x1C4 JUMP JUMPDEST SWAP3 SWAP2 POP POP JUMP JUMPDEST PUSH0 DUP2 SWAP1 POP SWAP2 SWAP1 POP JUMP JUMPDEST PUSH2 0x1FE DUP2 PUSH2 0x1EC JUMP JUMPDEST DUP3 MSTORE POP POP JUMP JUMPDEST PUSH0 PUSH1 0x20 DUP3 ADD SWAP1 POP PUSH2 0x217 PUSH0 DUP4 ADD DUP5 PUSH2 0x1F5 JUMP JUMPDEST SWAP3 SWAP2 POP POP JUMP INVALID LOG2 PUSH5 0x6970667358 0x22 SLT KECCAK256 0x4C 0xC7 0x2B SELFDESTRUCT MLOAD 0xD8 0xF6 LOG0 PUSH12 0xB1D89BB904303E569DDFB14C 0xC7 PUSH27 0x3805A6F8A9FE2E1A7A64736F6C634300081E003300000000000000 "
				},
				"gasEstimates": {
					"creation": {
						"codeDepositCost": "119000",
						"executionCost": "163",
						"totalCost": "119163"
					},
					"external": {
						"getChoice()": "2538",
						"getDefaultChoice()": "379",
						"setLarge()": "24427",
						"setMedium()": "24494",
						"setSmall()": "24472"
					}
				},
				"methodIdentifiers": {
					"getChoice()": "67cb61b6",
					"getDefaultChoice()": "843f7258",
					"setLarge()": "694ebe4f",
					"setMedium()": "db39b915",
					"setSmall()": "91ff2c86"
				}
			},
			"storageLayout": {
				"storage": [
					{
						"astId": 8,
						"contract": "6.5.Enums.sol:enumsLearn",
						"label": "choice",
						"offset": 0,
						"slot": "0",
						"type": "t_enum(frenchFriesSize)5"
					}
				],
				"types": {
					"t_enum(frenchFriesSize)5": {
						"encoding": "inplace",
						"label": "enum enumsLearn.frenchFriesSize",
						"numberOfBytes": "1"
					}
				}
			},
			"userdoc": {
				"kind": "user",
				"methods": {},
				"version": 1
			}
		}
	}
}