{
	"4.8.Assignment-Operator.sol": {
		"FinalExercise": {
			"abi": [
				{
					"inputs": [],
					"name": "finalize",
					"outputs": [
						{
							"internalType": "uint256",
							"name": "",
							"type": "uint256"
						}
					],
					"stateMutability": "view",
					"type": "function"
				}
			],
			"devdoc": {
				"kind": "dev",
				"methods": {},
				"version": 1
			},
			"evm": {
				"assembly": "    /* \"4.8.Assignment-Operator.sol\":841:1102  contract FinalExercise {... */\n  mstore(0x40, 0x80)\n    /* \"4.8.Assignment-Operator.sol\":880:883  300 */\n  0x012c\n    /* \"4.8.Assignment-Operator.sol\":871:883  uint a = 300 */\n  0x00\n  sstore\n    /* \"4.8.Assignment-Operator.sol\":899:901  12 */\n  0x0c\n    /* \"4.8.Assignment-Operator.sol\":890:901  uint b = 12 */\n  0x01\n  sstore\n    /* \"4.8.Assignment-Operator.sol\":917:919  47 */\n  0x2f\n    /* \"4.8.Assignment-Operator.sol\":908:919  uint f = 47 */\n  0x02\n  sstore\n    /* \"4.8.Assignment-Operator.sol\":841:1102  contract FinalExercise {... */\n  callvalue\n  dup1\n  iszero\n  tag_1\n  jumpi\n  revert(0x00, 0x00)\ntag_1:\n  pop\n  dataSize(sub_0)\n  dup1\n  dataOffset(sub_0)\n  0x00\n  codecopy\n  0x00\n  return\nstop\n\nsub_0: assembly {\n        /* \"4.8.Assignment-Operator.sol\":841:1102  contract FinalExercise {... */\n      mstore(0x40, 0x80)\n      callvalue\n      dup1\n      iszero\n      tag_1\n      jumpi\n      revert(0x00, 0x00)\n    tag_1:\n      pop\n      jumpi(tag_2, lt(calldatasize, 0x04))\n      shr(0xe0, calldataload(0x00))\n      dup1\n      0x4bb278f3\n      eq\n      tag_3\n      jumpi\n    tag_2:\n      revert(0x00, 0x00)\n        /* \"4.8.Assignment-Operator.sol\":928:1099  function finalize() public view returns(uint) {... */\n    tag_3:\n      tag_4\n      tag_5\n      jump\t// in\n    tag_4:\n      mload(0x40)\n      tag_6\n      swap2\n      swap1\n      tag_7\n      jump\t// in\n    tag_6:\n      mload(0x40)\n      dup1\n      swap2\n      sub\n      swap1\n      return\n    tag_5:\n        /* \"4.8.Assignment-Operator.sol\":968:972  uint */\n      0x00\n        /* \"4.8.Assignment-Operator.sol\":985:991  uint d */\n      0x00\n        /* \"4.8.Assignment-Operator.sol\":994:996  23 */\n      0x17\n        /* \"4.8.Assignment-Operator.sol\":985:996  uint d = 23 */\n      swap1\n      pop\n        /* \"4.8.Assignment-Operator.sol\":1016:1017  a */\n      sload(0x00)\n        /* \"4.8.Assignment-Operator.sol\":1011:1012  a */\n      sload(0x00)\n        /* \"4.8.Assignment-Operator.sol\":1011:1017  a >= a */\n      lt\n      iszero\n        /* \"4.8.Assignment-Operator.sol\":1011:1026  a >= a && b < f */\n      dup1\n      iszero\n      tag_9\n      jumpi\n      pop\n        /* \"4.8.Assignment-Operator.sol\":1025:1026  f */\n      sload(0x02)\n        /* \"4.8.Assignment-Operator.sol\":1021:1022  b */\n      sload(0x01)\n        /* \"4.8.Assignment-Operator.sol\":1021:1026  b < f */\n      lt\n        /* \"4.8.Assignment-Operator.sol\":1011:1026  a >= a && b < f */\n    tag_9:\n        /* \"4.8.Assignment-Operator.sol\":1007:1073  if (a >= a && b < f){... */\n      iszero\n      tag_10\n      jumpi\n        /* \"4.8.Assignment-Operator.sol\":1043:1044  d */\n      dup1\n        /* \"4.8.Assignment-Operator.sol\":1038:1044  d *= d */\n      dup2\n      tag_11\n      swap2\n      swap1\n      tag_12\n      jump\t// in\n    tag_11:\n      swap1\n      pop\n        /* \"4.8.Assignment-Operator.sol\":1060:1061  b */\n      sload(0x01)\n        /* \"4.8.Assignment-Operator.sol\":1055:1061  d -= b */\n      dup2\n      tag_13\n      swap2\n      swap1\n      tag_14\n      jump\t// in\n    tag_13:\n      swap1\n      pop\n        /* \"4.8.Assignment-Operator.sol\":1007:1073  if (a >= a && b < f){... */\n    tag_10:\n        /* \"4.8.Assignment-Operator.sol\":1090:1091  d */\n      dup1\n        /* \"4.8.Assignment-Operator.sol\":1083:1091  return d */\n      swap2\n      pop\n      pop\n        /* \"4.8.Assignment-Operator.sol\":928:1099  function finalize() public view returns(uint) {... */\n      swap1\n      jump\t// out\n        /* \"#utility.yul\":7:84   */\n    tag_15:\n        /* \"#utility.yul\":44:51   */\n      0x00\n        /* \"#utility.yul\":73:78   */\n      dup2\n        /* \"#utility.yul\":62:78   */\n      swap1\n      pop\n        /* \"#utility.yul\":7:84   */\n      swap2\n      swap1\n      pop\n      jump\t// out\n        /* \"#utility.yul\":90:208   */\n    tag_16:\n        /* \"#utility.yul\":177:201   */\n      tag_21\n        /* \"#utility.yul\":195:200   */\n      dup2\n        /* \"#utility.yul\":177:201   */\n      tag_15\n      jump\t// in\n    tag_21:\n        /* \"#utility.yul\":172:175   */\n      dup3\n        /* \"#utility.yul\":165:202   */\n      mstore\n        /* \"#utility.yul\":90:208   */\n      pop\n      pop\n      jump\t// out\n        /* \"#utility.yul\":214:436   */\n    tag_7:\n        /* \"#utility.yul\":307:311   */\n      0x00\n        /* \"#utility.yul\":345:347   */\n      0x20\n        /* \"#utility.yul\":334:343   */\n      dup3\n        /* \"#utility.yul\":330:348   */\n      add\n        /* \"#utility.yul\":322:348   */\n      swap1\n      pop\n        /* \"#utility.yul\":358:429   */\n      tag_23\n        /* \"#utility.yul\":426:427   */\n      0x00\n        /* \"#utility.yul\":415:424   */\n      dup4\n        /* \"#utility.yul\":411:428   */\n      add\n        /* \"#utility.yul\":402:408   */\n      dup5\n        /* \"#utility.yul\":358:429   */\n      tag_16\n      jump\t// in\n    tag_23:\n        /* \"#utility.yul\":214:436   */\n      swap3\n      swap2\n      pop\n      pop\n      jump\t// out\n        /* \"#utility.yul\":442:622   */\n    tag_17:\n        /* \"#utility.yul\":490:567   */\n      0x4e487b7100000000000000000000000000000000000000000000000000000000\n        /* \"#utility.yul\":487:488   */\n      0x00\n        /* \"#utility.yul\":480:568   */\n      mstore\n        /* \"#utility.yul\":587:591   */\n      0x11\n        /* \"#utility.yul\":584:585   */\n      0x04\n        /* \"#utility.yul\":577:592   */\n      mstore\n        /* \"#utility.yul\":611:615   */\n      0x24\n        /* \"#utility.yul\":608:609   */\n      0x00\n        /* \"#utility.yul\":601:616   */\n      revert\n        /* \"#utility.yul\":628:1038   */\n    tag_12:\n        /* \"#utility.yul\":668:675   */\n      0x00\n        /* \"#utility.yul\":691:711   */\n      tag_26\n        /* \"#utility.yul\":709:710   */\n      dup3\n        /* \"#utility.yul\":691:711   */\n      tag_15\n      jump\t// in\n    tag_26:\n        /* \"#utility.yul\":686:711   */\n      swap2\n      pop\n        /* \"#utility.yul\":725:745   */\n      tag_27\n        /* \"#utility.yul\":743:744   */\n      dup4\n        /* \"#utility.yul\":725:745   */\n      tag_15\n      jump\t// in\n    tag_27:\n        /* \"#utility.yul\":720:745   */\n      swap3\n      pop\n        /* \"#utility.yul\":780:781   */\n      dup3\n        /* \"#utility.yul\":777:778   */\n      dup3\n        /* \"#utility.yul\":773:782   */\n      mul\n        /* \"#utility.yul\":802:832   */\n      tag_28\n        /* \"#utility.yul\":820:831   */\n      dup2\n        /* \"#utility.yul\":802:832   */\n      tag_15\n      jump\t// in\n    tag_28:\n        /* \"#utility.yul\":791:832   */\n      swap2\n      pop\n        /* \"#utility.yul\":981:982   */\n      dup3\n        /* \"#utility.yul\":972:979   */\n      dup3\n        /* \"#utility.yul\":968:983   */\n      div\n        /* \"#utility.yul\":965:966   */\n      dup5\n        /* \"#utility.yul\":962:984   */\n      eq\n        /* \"#utility.yul\":942:943   */\n      dup4\n        /* \"#utility.yul\":935:944   */\n      iszero\n        /* \"#utility.yul\":915:998   */\n      or\n        /* \"#utility.yul\":892:1031   */\n      tag_29\n      jumpi\n        /* \"#utility.yul\":1011:1029   */\n      tag_30\n      tag_17\n      jump\t// in\n    tag_30:\n        /* \"#utility.yul\":892:1031   */\n    tag_29:\n        /* \"#utility.yul\":676:1038   */\n      pop\n        /* \"#utility.yul\":628:1038   */\n      swap3\n      swap2\n      pop\n      pop\n      jump\t// out\n        /* \"#utility.yul\":1044:1238   */\n    tag_14:\n        /* \"#utility.yul\":1084:1088   */\n      0x00\n        /* \"#utility.yul\":1104:1124   */\n      tag_32\n        /* \"#utility.yul\":1122:1123   */\n      dup3\n        /* \"#utility.yul\":1104:1124   */\n      tag_15\n      jump\t// in\n    tag_32:\n        /* \"#utility.yul\":1099:1124   */\n      swap2\n      pop\n        /* \"#utility.yul\":1138:1158   */\n      tag_33\n        /* \"#utility.yul\":1156:1157   */\n      dup4\n        /* \"#utility.yul\":1138:1158   */\n      tag_15\n      jump\t// in\n    tag_33:\n        /* \"#utility.yul\":1133:1158   */\n      swap3\n      pop\n        /* \"#utility.yul\":1182:1183   */\n      dup3\n        /* \"#utility.yul\":1179:1180   */\n      dup3\n        /* \"#utility.yul\":1175:1184   */\n      sub\n        /* \"#utility.yul\":1167:1184   */\n      swap1\n      pop\n        /* \"#utility.yul\":1206:1207   */\n      dup2\n        /* \"#utility.yul\":1200:1204   */\n      dup2\n        /* \"#utility.yul\":1197:1208   */\n      gt\n        /* \"#utility.yul\":1194:1231   */\n      iszero\n      tag_34\n      jumpi\n        /* \"#utility.yul\":1211:1229   */\n      tag_35\n      tag_17\n      jump\t// in\n    tag_35:\n        /* \"#utility.yul\":1194:1231   */\n    tag_34:\n        /* \"#utility.yul\":1044:1238   */\n      swap3\n      swap2\n      pop\n      pop\n      jump\t// out\n\n    auxdata: 0xa2646970667358221220fe5d1757d71fe8ab14742d9daf107742681d635dd5a7c5ef740802eec18faa6b64736f6c634300081e0033\n}\n",
				"bytecode": {
					"linkReferences": {},
					"object": "608060405261012c5f55600c600155602f600255348015601d575f5ffd5b506101998061002b5f395ff3fe608060405234801561000f575f5ffd5b5060043610610029575f3560e01c80634bb278f31461002d575b5f5ffd5b61003561004b565b60405161004291906100a9565b60405180910390f35b5f5f601790505f545f54101580156100665750600254600154105b1561008a57808161007791906100ef565b9050600154816100879190610130565b90505b8091505090565b5f819050919050565b6100a381610091565b82525050565b5f6020820190506100bc5f83018461009a565b92915050565b7f4e487b71000000000000000000000000000000000000000000000000000000005f52601160045260245ffd5b5f6100f982610091565b915061010483610091565b925082820261011281610091565b91508282048414831517610129576101286100c2565b5b5092915050565b5f61013a82610091565b915061014583610091565b925082820390508181111561015d5761015c6100c2565b5b9291505056fea2646970667358221220fe5d1757d71fe8ab14742d9daf107742681d635dd5a7c5ef740802eec18faa6b64736f6c634300081e0033",
					"opcodes": "PUSH1 0x80 PUSH1 0x40 MSTORE PUSH2 0x12C PUSH0 SSTORE PUSH1 0xC PUSH1 0x1 SSTORE PUSH1 0x2F PUSH1 0x2 SSTORE CALLVALUE DUP1 ISZERO PUSH1 0x1D JUMPI PUSH0 PUSH0 REVERT JUMPDEST POP PUSH2 0x199 DUP1 PUSH2 0x2B PUSH0 CODECOPY PUSH0 RETURN INVALID PUSH1 0x80 PUSH1 0x40 MSTORE CALLVALUE DUP1 ISZERO PUSH2 0xF JUMPI PUSH0 PUSH0 REVERT JUMPDEST POP PUSH1 0x4 CALLDATASIZE LT PUSH2 0x29 JUMPI PUSH0 CALLDATALOAD PUSH1 0xE0 SHR DUP1 PUSH4 0x4BB278F3 EQ PUSH2 0x2D JUMPI JUMPDEST PUSH0 PUSH0 REVERT JUMPDEST PUSH2 0x35 PUSH2 0x4B JUMP JUMPDEST PUSH1 0x40 MLOAD PUSH2 0x42 SWAP2 SWAP1 PUSH2 0xA9 JUMP JUMPDEST PUSH1 0x40 MLOAD DUP1 SWAP2 SUB SWAP1 RETURN JUMPDEST PUSH0 PUSH0 PUSH1 0x17 SWAP1 POP PUSH0 SLOAD PUSH0 SLOAD LT ISZERO DUP1 ISZERO PUSH2 0x66 JUMPI POP PUSH1 0x2 SLOAD PUSH1 0x1 SLOAD LT JUMPDEST ISZERO PUSH2 0x8A JUMPI DUP1 DUP2 PUSH2 0x77 SWAP2 SWAP1 PUSH2 0xEF JUMP JUMPDEST SWAP1 POP PUSH1 0x1 SLOAD DUP2 PUSH2 0x87 SWAP2 SWAP1 PUSH2 0x130 JUMP JUMPDEST SWAP1 POP JUMPDEST DUP1 SWAP2 POP POP SWAP1 JUMP JUMPDEST PUSH0 DUP2 SWAP1 POP SWAP2 SWAP1 POP JUMP JUMPDEST PUSH2 0xA3 DUP2 PUSH2 0x91 JUMP JUMPDEST DUP3 MSTORE POP POP JUMP JUMPDEST PUSH0 PUSH1 0x20 DUP3 ADD SWAP1 POP PUSH2 0xBC PUSH0 DUP4 ADD DUP5 PUSH2 0x9A JUMP JUMPDEST SWAP3 SWAP2 POP POP JUMP JUMPDEST PUSH32 0x4E487B7100000000000000000000000000000000000000000000000000000000 PUSH0 MSTORE PUSH1 0x11 PUSH1 0x4 MSTORE PUSH1 0x24 PUSH0 REVERT JUMPDEST PUSH0 PUSH2 0xF9 DUP3 PUSH2 0x91 JUMP JUMPDEST SWAP2 POP PUSH2 0x104 DUP4 PUSH2 0x91 JUMP JUMPDEST SWAP3 POP DUP3 DUP3 MUL PUSH2 0x112 DUP2 PUSH2 0x91 JUMP JUMPDEST SWAP2 POP DUP3 DUP3 DIV DUP5 EQ DUP4 ISZERO OR PUSH2 0x129 JUMPI PUSH2 0x128 PUSH2 0xC2 JUMP JUMPDEST JUMPDEST POP SWAP3 SWAP2 POP POP JUMP JUMPDEST PUSH0 PUSH2 0x13A DUP3 PUSH2 0x91 JUMP JUMPDEST SWAP2 POP PUSH2 0x145 DUP4 PUSH2 0x91 JUMP JUMPDEST SWAP3 POP DUP3 DUP3 SUB SWAP1 POP DUP2 DUP2 GT ISZERO PUSH2 0x15D JUMPI PUSH2 0x15C PUSH2 0xC2 JUMP JUMPDEST JUMPDEST SWAP3 SWAP2 POP POP JUMP INVALID LOG2 PUSH5 0x6970667358 0x22 SLT KECCAK256 INVALID TSTORE OR JUMPI 0xD7 0x1F 0xE8 0xAB EQ PUSH21 0x2D9DAF107742681D635DD5A7C5EF740802EEC18FAA PUSH12 0x64736F6C634300081E003300 "
				},
				"gasEstimates": {
					"creation": {
						"codeDepositCost": "81800",
						"executionCost": "66444",
						"totalCost": "148244"
					},
					"external": {
						"finalize()": "infinite"
					}
				},
				"methodIdentifiers": {
					"finalize()": "4bb278f3"
				}
			},
			"storageLayout": {
				"storage": [
					{
						"astId": 27,
						"contract": "4.8.Assignment-Operator.sol:FinalExercise",
						"label": "a",
						"offset": 0,
						"slot": "0",
						"type": "t_uint256"
					},
					{
						"astId": 30,
						"contract": "4.8.Assignment-Operator.sol:FinalExercise",
						"label": "b",
						"offset": 0,
						"slot": "1",
						"type": "t_uint256"
					},
					{
						"astId": 33,
						"contract": "4.8.Assignment-Operator.sol:FinalExercise",
						"label": "f",
						"offset": 0,
						"slot": "2",
						"type": "t_uint256"
					}
				],
				"types": {
					"t_uint256": {
						"encoding": "inplace",
						"label": "uint256",
						"numberOfBytes": "32"
					}
				}
			},
			"userdoc": {
				"kind": "user",
				"methods": {},
				"version": 1
			}
		}
	}
}