{
	"data": {
		"bytecode": {
			"linkReferences": {},
			"object": "6080604052348015600e575f5ffd5b5060d480601a5f395ff3fe6080604052348015600e575f5ffd5b50600436106026575f3560e01c8063d32cb0fe14602a575b5f5ffd5b60306032565b005b603c8014604057603f6071565b5b610e108014604f57604e6071565b5b620151808014605f57605e6071565b5b62093a808014606f57606e6071565b5b565b7f4e487b71000000000000000000000000000000000000000000000000000000005f52600160045260245ffdfea2646970667358221220e8f77cca4d42c12831e48721a57d43b29e20837d71159301f539748f1020011364736f6c634300081e0033",
			"opcodes": "PUSH1 0x80 PUSH1 0x40 MSTORE CALLVALUE DUP1 ISZERO PUSH1 0xE JUMPI PUSH0 PUSH0 REVERT JUMPDEST POP PUSH1 0xD4 DUP1 PUSH1 0x1A PUSH0 CODECOPY PUSH0 RETURN INVALID PUSH1 0x80 PUSH1 0x40 MSTORE CALLVALUE DUP1 ISZERO PUSH1 0xE JUMPI PUSH0 PUSH0 REVERT JUMPDEST POP PUSH1 0x4 CALLDATASIZE LT PUSH1 0x26 JUMPI PUSH0 CALLDATALOAD PUSH1 0xE0 SHR DUP1 PUSH4 0xD32CB0FE EQ PUSH1 0x2A JUMPI JUMPDEST PUSH0 PUSH0 REVERT JUMPDEST PUSH1 0x30 PUSH1 0x32 JUMP JUMPDEST STOP JUMPDEST PUSH1 0x3C DUP1 EQ PUSH1 0x40 JUMPI PUSH1 0x3F PUSH1 0x71 JUMP JUMPDEST JUMPDEST PUSH2 0xE10 DUP1 EQ PUSH1 0x4F JUMPI PUSH1 0x4E PUSH1 0x71 JUMP JUMPDEST JUMPDEST PUSH3 0x15180 DUP1 EQ PUSH1 0x5F JUMPI PUSH1 0x5E PUSH1 0x71 JUMP JUMPDEST JUMPDEST PUSH3 0x93A80 DUP1 EQ PUSH1 0x6F JUMPI PUSH1 0x6E PUSH1 0x71 JUMP JUMPDEST JUMPDEST JUMP JUMPDEST PUSH32 0x4E487B7100000000000000000000000000000000000000000000000000000000 PUSH0 MSTORE PUSH1 0x1 PUSH1 0x4 MSTORE PUSH1 0x24 PUSH0 REVERT INVALID LOG2 PUSH5 0x6970667358 0x22 SLT KECCAK256 0xE8 0xF7 PUSH29 0xCA4D42C12831E48721A57D43B29E20837D71159301F539748F10200113 PUSH5 0x736F6C6343 STOP ADDMOD 0x1E STOP CALLER "
		},
		"gasEstimates": {
			"creation": {
				"codeDepositCost": "42400",
				"executionCost": "91",
				"totalCost": "42491"
			},
			"external": {
				"exercise()": "213"
			}
		},
		"methodIdentifiers": {
			"exercise()": "d32cb0fe"
		}
	},
	"abi": [
		{
			"inputs": [],
			"name": "exercise",
			"outputs": [],
			"stateMutability": "pure",
			"type": "function"
		}
	]
}