{
	"data": {
		"bytecode": {
			"linkReferences": {},
			"object": "608060405261012c5f556030600155602f600255348015601d575f5ffd5b506101968061002b5f395ff3fe608060405234801561000f575f5ffd5b5060043610610029575f3560e01c80634bb278f31461002d575b5f5ffd5b61003561004b565b60405161004291906100a6565b60405180910390f35b5f5f601790505f545f54101580156100665750600254600154105b15610087576001548161007991906100ec565b81610084919061011f565b90505b8091505090565b5f819050919050565b6100a08161008e565b82525050565b5f6020820190506100b95f830184610097565b92915050565b7f4e487b71000000000000000000000000000000000000000000000000000000005f52601160045260245ffd5b5f6100f68261008e565b91506101018361008e565b9250828203905081811115610119576101186100bf565b5b92915050565b5f6101298261008e565b91506101348361008e565b92508282026101428161008e565b91508282048414831517610159576101586100bf565b5b509291505056fea26469706673582212205e2388e558eb1624a30e9a147a910fa229de94a2e7a0aad4623246b79aa2c91664736f6c634300081e0033",
			"opcodes": "PUSH1 0x80 PUSH1 0x40 MSTORE PUSH2 0x12C PUSH0 SSTORE PUSH1 0x30 PUSH1 0x1 SSTORE PUSH1 0x2F PUSH1 0x2 SSTORE CALLVALUE DUP1 ISZERO PUSH1 0x1D JUMPI PUSH0 PUSH0 REVERT JUMPDEST POP PUSH2 0x196 DUP1 PUSH2 0x2B PUSH0 CODECOPY PUSH0 RETURN INVALID PUSH1 0x80 PUSH1 0x40 MSTORE CALLVALUE DUP1 ISZERO PUSH2 0xF JUMPI PUSH0 PUSH0 REVERT JUMPDEST POP PUSH1 0x4 CALLDATASIZE LT PUSH2 0x29 JUMPI PUSH0 CALLDATALOAD PUSH1 0xE0 SHR DUP1 PUSH4 0x4BB278F3 EQ PUSH2 0x2D JUMPI JUMPDEST PUSH0 PUSH0 REVERT JUMPDEST PUSH2 0x35 PUSH2 0x4B JUMP JUMPDEST PUSH1 0x40 MLOAD PUSH2 0x42 SWAP2 SWAP1 PUSH2 0xA6 JUMP JUMPDEST PUSH1 0x40 MLOAD DUP1 SWAP2 SUB SWAP1 RETURN JUMPDEST PUSH0 PUSH0 PUSH1 0x17 SWAP1 POP PUSH0 SLOAD PUSH0 SLOAD LT ISZERO DUP1 ISZERO PUSH2 0x66 JUMPI POP PUSH1 0x2 SLOAD PUSH1 0x1 SLOAD LT JUMPDEST ISZERO PUSH2 0x87 JUMPI PUSH1 0x1 SLOAD DUP2 PUSH2 0x79 SWAP2 SWAP1 PUSH2 0xEC JUMP JUMPDEST DUP2 PUSH2 0x84 SWAP2 SWAP1 PUSH2 0x11F JUMP JUMPDEST SWAP1 POP JUMPDEST DUP1 SWAP2 POP POP SWAP1 JUMP JUMPDEST PUSH0 DUP2 SWAP1 POP SWAP2 SWAP1 POP JUMP JUMPDEST PUSH2 0xA0 DUP2 PUSH2 0x8E JUMP JUMPDEST DUP3 MSTORE POP POP JUMP JUMPDEST PUSH0 PUSH1 0x20 DUP3 ADD SWAP1 POP PUSH2 0xB9 PUSH0 DUP4 ADD DUP5 PUSH2 0x97 JUMP JUMPDEST SWAP3 SWAP2 POP POP JUMP JUMPDEST PUSH32 0x4E487B7100000000000000000000000000000000000000000000000000000000 PUSH0 MSTORE PUSH1 0x11 PUSH1 0x4 MSTORE PUSH1 0x24 PUSH0 REVERT JUMPDEST PUSH0 PUSH2 0xF6 DUP3 PUSH2 0x8E JUMP JUMPDEST SWAP2 POP PUSH2 0x101 DUP4 PUSH2 0x8E JUMP JUMPDEST SWAP3 POP DUP3 DUP3 SUB SWAP1 POP DUP2 DUP2 GT ISZERO PUSH2 0x119 JUMPI PUSH2 0x118 PUSH2 0xBF JUMP JUMPDEST JUMPDEST SWAP3 SWAP2 POP POP JUMP JUMPDEST PUSH0 PUSH2 0x129 DUP3 PUSH2 0x8E JUMP JUMPDEST SWAP2 POP PUSH2 0x134 DUP4 PUSH2 0x8E JUMP JUMPDEST SWAP3 POP DUP3 DUP3 MUL PUSH2 0x142 DUP2 PUSH2 0x8E JUMP JUMPDEST SWAP2 POP DUP3 DUP3 DIV DUP5 EQ DUP4 ISZERO OR PUSH2 0x159 JUMPI PUSH2 0x158 PUSH2 0xBF JUMP JUMPDEST JUMPDEST POP SWAP3 SWAP2 POP POP JUMP INVALID LOG2 PUSH5 0x6970667358 0x22 SLT KECCAK256 MCOPY 0x23 DUP9 JUMPF 0x58EB AND 0x24 LOG3 0xE SWAP11 EQ PUSH27 0x910FA229DE94A2E7A0AAD4623246B79AA2C91664736F6C63430008 0x1E STOP CALLER "
		},
		"gasEstimates": {
			"creation": {
				"codeDepositCost": "81200",
				"executionCost": "66444",
				"totalCost": "147644"
			},
			"external": {
				"finalize()": "infinite"
			}
		},
		"methodIdentifiers": {
			"finalize()": "4bb278f3"
		}
	},
	"abi": [
		{
			"inputs": [],
			"name": "finalize",
			"outputs": [
				{
					"internalType": "uint256",
					"name": "",
					"type": "uint256"
				}
			],
			"stateMutability": "view",
			"type": "function"
		}
	]
}