{
	"data": {
		"bytecode": {
			"linkReferences": {},
			"object": "608060405260045f553480156012575f5ffd5b506103fb806100205f395ff3fe608060405234801561000f575f5ffd5b5060043610610055575f3560e01c806373088183146100595780637e1b73f5146100775780638292888e146100a7578063c5a79f70146100d7578063e581bdca14610107575b5f5ffd5b610061610125565b60405161006e91906101ba565b60405180910390f35b610091600480360381019061008c919061020c565b610143565b60405161009e9190610259565b60405180910390f35b6100c160048036038101906100bc919061029c565b610150565b6040516100ce91906101ba565b60405180910390f35b6100f160048036038101906100ec919061029c565b61016a565b6040516100fe91906101ba565b60405180910390f35b61010f610184565b60405161011c91906101ba565b60405180910390f35b5f5f600390505f815f5461013991906102f4565b9050809250505090565b5f5f602d90505092915050565b5f5f825f5461015f9190610354565b905080915050919050565b5f5f825f546101799190610384565b905080915050919050565b5f5f600590505f815f5461019891906102f4565b9050809250505090565b5f819050919050565b6101b4816101a2565b82525050565b5f6020820190506101cd5f8301846101ab565b92915050565b5f5ffd5b5f8115159050919050565b6101eb816101d7565b81146101f5575f5ffd5b50565b5f81359050610206816101e2565b92915050565b5f5f60408385031215610222576102216101d3565b5b5f61022f858286016101f8565b9250506020610240858286016101f8565b9150509250929050565b610253816101d7565b82525050565b5f60208201905061026c5f83018461024a565b92915050565b61027b816101a2565b8114610285575f5ffd5b50565b5f8135905061029681610272565b92915050565b5f602082840312156102b1576102b06101d3565b5b5f6102be84828501610288565b91505092915050565b7f4e487b71000000000000000000000000000000000000000000000000000000005f52601160045260245ffd5b5f6102fe826101a2565b9150610309836101a2565b9250828201905080821115610321576103206102c7565b5b92915050565b7f4e487b71000000000000000000000000000000000000000000000000000000005f52601260045260245ffd5b5f61035e826101a2565b9150610369836101a2565b92508261037957610378610327565b5b828204905092915050565b5f61038e826101a2565b9150610399836101a2565b92508282026103a7816101a2565b915082820484148315176103be576103bd6102c7565b5b509291505056fea26469706673582212205663a819effca84ce48c2dfc3160b036188f9fe41c4ac3b8a7e4050d7ed8c80564736f6c634300081e0033",
			"opcodes": "PUSH1 0x80 PUSH1 0x40 MSTORE PUSH1 0x4 PUSH0 SSTORE CALLVALUE DUP1 ISZERO PUSH1 0x12 JUMPI PUSH0 PUSH0 REVERT JUMPDEST POP PUSH2 0x3FB DUP1 PUSH2 0x20 PUSH0 CODECOPY PUSH0 RETURN INVALID PUSH1 0x80 PUSH1 0x40 MSTORE CALLVALUE DUP1 ISZERO PUSH2 0xF JUMPI PUSH0 PUSH0 REVERT JUMPDEST POP PUSH1 0x4 CALLDATASIZE LT PUSH2 0x55 JUMPI PUSH0 CALLDATALOAD PUSH1 0xE0 SHR DUP1 PUSH4 0x73088183 EQ PUSH2 0x59 JUMPI DUP1 PUSH4 0x7E1B73F5 EQ PUSH2 0x77 JUMPI DUP1 PUSH4 0x8292888E EQ PUSH2 0xA7 JUMPI DUP1 PUSH4 0xC5A79F70 EQ PUSH2 0xD7 JUMPI DUP1 PUSH4 0xE581BDCA EQ PUSH2 0x107 JUMPI JUMPDEST PUSH0 PUSH0 REVERT JUMPDEST PUSH2 0x61 PUSH2 0x125 JUMP JUMPDEST PUSH1 0x40 MLOAD PUSH2 0x6E SWAP2 SWAP1 PUSH2 0x1BA JUMP JUMPDEST PUSH1 0x40 MLOAD DUP1 SWAP2 SUB SWAP1 RETURN JUMPDEST PUSH2 0x91 PUSH1 0x4 DUP1 CALLDATASIZE SUB DUP2 ADD SWAP1 PUSH2 0x8C SWAP2 SWAP1 PUSH2 0x20C JUMP JUMPDEST PUSH2 0x143 JUMP JUMPDEST PUSH1 0x40 MLOAD PUSH2 0x9E SWAP2 SWAP1 PUSH2 0x259 JUMP JUMPDEST PUSH1 0x40 MLOAD DUP1 SWAP2 SUB SWAP1 RETURN JUMPDEST PUSH2 0xC1 PUSH1 0x4 DUP1 CALLDATASIZE SUB DUP2 ADD SWAP1 PUSH2 0xBC SWAP2 SWAP1 PUSH2 0x29C JUMP JUMPDEST PUSH2 0x150 JUMP JUMPDEST PUSH1 0x40 MLOAD PUSH2 0xCE SWAP2 SWAP1 PUSH2 0x1BA JUMP JUMPDEST PUSH1 0x40 MLOAD DUP1 SWAP2 SUB SWAP1 RETURN JUMPDEST PUSH2 0xF1 PUSH1 0x4 DUP1 CALLDATASIZE SUB DUP2 ADD SWAP1 PUSH2 0xEC SWAP2 SWAP1 PUSH2 0x29C JUMP JUMPDEST PUSH2 0x16A JUMP JUMPDEST PUSH1 0x40 MLOAD PUSH2 0xFE SWAP2 SWAP1 PUSH2 0x1BA JUMP JUMPDEST PUSH1 0x40 MLOAD DUP1 SWAP2 SUB SWAP1 RETURN JUMPDEST PUSH2 0x10F PUSH2 0x184 JUMP JUMPDEST PUSH1 0x40 MLOAD PUSH2 0x11C SWAP2 SWAP1 PUSH2 0x1BA JUMP JUMPDEST PUSH1 0x40 MLOAD DUP1 SWAP2 SUB SWAP1 RETURN JUMPDEST PUSH0 PUSH0 PUSH1 0x3 SWAP1 POP PUSH0 DUP2 PUSH0 SLOAD PUSH2 0x139 SWAP2 SWAP1 PUSH2 0x2F4 JUMP JUMPDEST SWAP1 POP DUP1 SWAP3 POP POP POP SWAP1 JUMP JUMPDEST PUSH0 PUSH0 PUSH1 0x2D SWAP1 POP POP SWAP3 SWAP2 POP POP JUMP JUMPDEST PUSH0 PUSH0 DUP3 PUSH0 SLOAD PUSH2 0x15F SWAP2 SWAP1 PUSH2 0x354 JUMP JUMPDEST SWAP1 POP DUP1 SWAP2 POP POP SWAP2 SWAP1 POP JUMP JUMPDEST PUSH0 PUSH0 DUP3 PUSH0 SLOAD PUSH2 0x179 SWAP2 SWAP1 PUSH2 0x384 JUMP JUMPDEST SWAP1 POP DUP1 SWAP2 POP POP SWAP2 SWAP1 POP JUMP JUMPDEST PUSH0 PUSH0 PUSH1 0x5 SWAP1 POP PUSH0 DUP2 PUSH0 SLOAD PUSH2 0x198 SWAP2 SWAP1 PUSH2 0x2F4 JUMP JUMPDEST SWAP1 POP DUP1 SWAP3 POP POP POP SWAP1 JUMP JUMPDEST PUSH0 DUP2 SWAP1 POP SWAP2 SWAP1 POP JUMP JUMPDEST PUSH2 0x1B4 DUP2 PUSH2 0x1A2 JUMP JUMPDEST DUP3 MSTORE POP POP JUMP JUMPDEST PUSH0 PUSH1 0x20 DUP3 ADD SWAP1 POP PUSH2 0x1CD PUSH0 DUP4 ADD DUP5 PUSH2 0x1AB JUMP JUMPDEST SWAP3 SWAP2 POP POP JUMP JUMPDEST PUSH0 PUSH0 REVERT JUMPDEST PUSH0 DUP2 ISZERO ISZERO SWAP1 POP SWAP2 SWAP1 POP JUMP JUMPDEST PUSH2 0x1EB DUP2 PUSH2 0x1D7 JUMP JUMPDEST DUP2 EQ PUSH2 0x1F5 JUMPI PUSH0 PUSH0 REVERT JUMPDEST POP JUMP JUMPDEST PUSH0 DUP2 CALLDATALOAD SWAP1 POP PUSH2 0x206 DUP2 PUSH2 0x1E2 JUMP JUMPDEST SWAP3 SWAP2 POP POP JUMP JUMPDEST PUSH0 PUSH0 PUSH1 0x40 DUP4 DUP6 SUB SLT ISZERO PUSH2 0x222 JUMPI PUSH2 0x221 PUSH2 0x1D3 JUMP JUMPDEST JUMPDEST PUSH0 PUSH2 0x22F DUP6 DUP3 DUP7 ADD PUSH2 0x1F8 JUMP JUMPDEST SWAP3 POP POP PUSH1 0x20 PUSH2 0x240 DUP6 DUP3 DUP7 ADD PUSH2 0x1F8 JUMP JUMPDEST SWAP2 POP POP SWAP3 POP SWAP3 SWAP1 POP JUMP JUMPDEST PUSH2 0x253 DUP2 PUSH2 0x1D7 JUMP JUMPDEST DUP3 MSTORE POP POP JUMP JUMPDEST PUSH0 PUSH1 0x20 DUP3 ADD SWAP1 POP PUSH2 0x26C PUSH0 DUP4 ADD DUP5 PUSH2 0x24A JUMP JUMPDEST SWAP3 SWAP2 POP POP JUMP JUMPDEST PUSH2 0x27B DUP2 PUSH2 0x1A2 JUMP JUMPDEST DUP2 EQ PUSH2 0x285 JUMPI PUSH0 PUSH0 REVERT JUMPDEST POP JUMP JUMPDEST PUSH0 DUP2 CALLDATALOAD SWAP1 POP PUSH2 0x296 DUP2 PUSH2 0x272 JUMP JUMPDEST SWAP3 SWAP2 POP POP JUMP JUMPDEST PUSH0 PUSH1 0x20 DUP3 DUP5 SUB SLT ISZERO PUSH2 0x2B1 JUMPI PUSH2 0x2B0 PUSH2 0x1D3 JUMP JUMPDEST JUMPDEST PUSH0 PUSH2 0x2BE DUP5 DUP3 DUP6 ADD PUSH2 0x288 JUMP JUMPDEST SWAP2 POP POP SWAP3 SWAP2 POP POP JUMP JUMPDEST PUSH32 0x4E487B7100000000000000000000000000000000000000000000000000000000 PUSH0 MSTORE PUSH1 0x11 PUSH1 0x4 MSTORE PUSH1 0x24 PUSH0 REVERT JUMPDEST PUSH0 PUSH2 0x2FE DUP3 PUSH2 0x1A2 JUMP JUMPDEST SWAP2 POP PUSH2 0x309 DUP4 PUSH2 0x1A2 JUMP JUMPDEST SWAP3 POP DUP3 DUP3 ADD SWAP1 POP DUP1 DUP3 GT ISZERO PUSH2 0x321 JUMPI PUSH2 0x320 PUSH2 0x2C7 JUMP JUMPDEST JUMPDEST SWAP3 SWAP2 POP POP JUMP JUMPDEST PUSH32 0x4E487B7100000000000000000000000000000000000000000000000000000000 PUSH0 MSTORE PUSH1 0x12 PUSH1 0x4 MSTORE PUSH1 0x24 PUSH0 REVERT JUMPDEST PUSH0 PUSH2 0x35E DUP3 PUSH2 0x1A2 JUMP JUMPDEST SWAP2 POP PUSH2 0x369 DUP4 PUSH2 0x1A2 JUMP JUMPDEST SWAP3 POP DUP3 PUSH2 0x379 JUMPI PUSH2 0x378 PUSH2 0x327 JUMP JUMPDEST JUMPDEST DUP3 DUP3 DIV SWAP1 POP SWAP3 SWAP2 POP POP JUMP JUMPDEST PUSH0 PUSH2 0x38E DUP3 PUSH2 0x1A2 JUMP JUMPDEST SWAP2 POP PUSH2 0x399 DUP4 PUSH2 0x1A2 JUMP JUMPDEST SWAP3 POP DUP3 DUP3 MUL PUSH2 0x3A7 DUP2 PUSH2 0x1A2 JUMP JUMPDEST SWAP2 POP DUP3 DUP3 DIV DUP5 EQ DUP4 ISZERO OR PUSH2 0x3BE JUMPI PUSH2 0x3BD PUSH2 0x2C7 JUMP JUMPDEST JUMPDEST POP SWAP3 SWAP2 POP POP JUMP INVALID LOG2 PUSH5 0x6970667358 0x22 SLT KECCAK256 JUMP PUSH4 0xA819EFFC 0xA8 0x4C RETF DUP13 0x2D 0xFC BALANCE PUSH1 0xB0 CALLDATASIZE XOR DUP16 SWAP16 RETF SHR BLOBBASEFEE 0xC3 0xB8 0xA7 RETF SDIV 0xD PUSH31 0xD8C80564736F6C634300081E00330000000000000000000000000000000000 "
		},
		"gasEstimates": {
			"creation": {
				"codeDepositCost": "203800",
				"executionCost": "22348",
				"totalCost": "226148"
			},
			"external": {
				"addNewValues()": "infinite",
				"addfValues()": "infinite",
				"divideCalculatorByFour(uint256)": "infinite",
				"multiplyCalculatorByFour(uint256)": "infinite",
				"remoteCcontrolOpen(bool,bool)": "infinite"
			}
		},
		"methodIdentifiers": {
			"addNewValues()": "e581bdca",
			"addfValues()": "73088183",
			"divideCalculatorByFour(uint256)": "8292888e",
			"multiplyCalculatorByFour(uint256)": "c5a79f70",
			"remoteCcontrolOpen(bool,bool)": "7e1b73f5"
		}
	},
	"abi": [
		{
			"inputs": [],
			"name": "addNewValues",
			"outputs": [
				{
					"internalType": "uint256",
					"name": "",
					"type": "uint256"
				}
			],
			"stateMutability": "view",
			"type": "function"
		},
		{
			"inputs": [],
			"name": "addfValues",
			"outputs": [
				{
					"internalType": "uint256",
					"name": "",
					"type": "uint256"
				}
			],
			"stateMutability": "view",
			"type": "function"
		},
		{
			"inputs": [
				{
					"internalType": "uint256",
					"name": "b",
					"type": "uint256"
				}
			],
			"name": "divideCalculatorByFour",
			"outputs": [
				{
					"internalType": "uint256",
					"name": "",
					"type": "uint256"
				}
			],
			"stateMutability": "view",
			"type": "function"
		},
		{
			"inputs": [
				{
					"internalType": "uint256",
					"name": "b",
					"type": "uint256"
				}
			],
			"name": "multiplyCalculatorByFour",
			"outputs": [
				{
					"internalType": "uint256",
					"name": "",
					"type": "uint256"
				}
			],
			"stateMutability": "view",
			"type": "function"
		},
		{
			"inputs": [
				{
					"internalType": "bool",
					"name": "closedDoor",
					"type": "bool"
				},
				{
					"internalType": "bool",
					"name": "openDoor",
					"type": "bool"
				}
			],
			"name": "remoteCcontrolOpen",
			"outputs": [
				{
					"internalType": "bool",
					"name": "",
					"type": "bool"
				}
			],
			"stateMutability": "nonpayable",
			"type": "function"
		}
	]
}