{
	"data": {
		"bytecode": {
			"linkReferences": {},
			"object": "6080604052348015600e575f5ffd5b5061011e8061001c5f395ff3fe6080604052348015600e575f5ffd5b50600436106026575f3560e01c8063ce3e39c014602a575b5f5ffd5b60306044565b604051603b9190607b565b60405180910390f35b5f5f600390505f600490505f8183605a919060bf565b905080935050505090565b5f819050919050565b6075816065565b82525050565b5f602082019050608c5f830184606e565b92915050565b7f4e487b71000000000000000000000000000000000000000000000000000000005f52601260045260245ffd5b5f60c7826065565b915060d0836065565b92508260dd5760dc6092565b5b82820690509291505056fea2646970667358221220a1376f1ea45ecacb0124eb51f25d337dce146988013d17c6568074da3c4c285864736f6c634300081e0033",
			"opcodes": "PUSH1 0x80 PUSH1 0x40 MSTORE CALLVALUE DUP1 ISZERO PUSH1 0xE JUMPI PUSH0 PUSH0 REVERT JUMPDEST POP PUSH2 0x11E DUP1 PUSH2 0x1C PUSH0 CODECOPY PUSH0 RETURN INVALID PUSH1 0x80 PUSH1 0x40 MSTORE CALLVALUE DUP1 ISZERO PUSH1 0xE JUMPI PUSH0 PUSH0 REVERT JUMPDEST POP PUSH1 0x4 CALLDATASIZE LT PUSH1 0x26 JUMPI PUSH0 CALLDATALOAD PUSH1 0xE0 SHR DUP1 PUSH4 0xCE3E39C0 EQ PUSH1 0x2A JUMPI JUMPDEST PUSH0 PUSH0 REVERT JUMPDEST PUSH1 0x30 PUSH1 0x44 JUMP JUMPDEST PUSH1 0x40 MLOAD PUSH1 0x3B SWAP2 SWAP1 PUSH1 0x7B JUMP JUMPDEST PUSH1 0x40 MLOAD DUP1 SWAP2 SUB SWAP1 RETURN JUMPDEST PUSH0 PUSH0 PUSH1 0x3 SWAP1 POP PUSH0 PUSH1 0x4 SWAP1 POP PUSH0 DUP2 DUP4 PUSH1 0x5A SWAP2 SWAP1 PUSH1 0xBF JUMP JUMPDEST SWAP1 POP DUP1 SWAP4 POP POP POP POP SWAP1 JUMP JUMPDEST PUSH0 DUP2 SWAP1 POP SWAP2 SWAP1 POP JUMP JUMPDEST PUSH1 0x75 DUP2 PUSH1 0x65 JUMP JUMPDEST DUP3 MSTORE POP POP JUMP JUMPDEST PUSH0 PUSH1 0x20 DUP3 ADD SWAP1 POP PUSH1 0x8C PUSH0 DUP4 ADD DUP5 PUSH1 0x6E JUMP JUMPDEST SWAP3 SWAP2 POP POP JUMP JUMPDEST PUSH32 0x4E487B7100000000000000000000000000000000000000000000000000000000 PUSH0 MSTORE PUSH1 0x12 PUSH1 0x4 MSTORE PUSH1 0x24 PUSH0 REVERT JUMPDEST PUSH0 PUSH1 0xC7 DUP3 PUSH1 0x65 JUMP JUMPDEST SWAP2 POP PUSH1 0xD0 DUP4 PUSH1 0x65 JUMP JUMPDEST SWAP3 POP DUP3 PUSH1 0xDD JUMPI PUSH1 0xDC PUSH1 0x92 JUMP JUMPDEST JUMPDEST DUP3 DUP3 MOD SWAP1 POP SWAP3 SWAP2 POP POP JUMP INVALID LOG2 PUSH5 0x6970667358 0x22 SLT KECCAK256 LOG1 CALLDATACOPY PUSH16 0x1EA45ECACB0124EB51F25D337DCE1469 DUP9 ADD RETURNDATASIZE OR 0xC6 JUMP DUP1 PUSH21 0xDA3C4C285864736F6C634300081E00330000000000 "
		},
		"gasEstimates": {
			"creation": {
				"codeDepositCost": "57200",
				"executionCost": "103",
				"totalCost": "57303"
			},
			"external": {
				"calculator()": "infinite"
			}
		},
		"methodIdentifiers": {
			"calculator()": "ce3e39c0"
		}
	},
	"abi": [
		{
			"inputs": [],
			"name": "calculator",
			"outputs": [
				{
					"internalType": "uint256",
					"name": "",
					"type": "uint256"
				}
			],
			"stateMutability": "view",
			"type": "function"
		}
	]
}